{
	"contracts/Main.sol": {
		"MainContract": {
			"abi": [
				{
					"inputs": [],
					"stateMutability": "nonpayable",
					"type": "constructor"
				},
				{
					"anonymous": false,
					"inputs": [
						{
							"indexed": true,
							"internalType": "address",
							"name": "previousOwner",
							"type": "address"
						},
						{
							"indexed": true,
							"internalType": "address",
							"name": "newOwner",
							"type": "address"
						}
					],
					"name": "OwnershipTransferred",
					"type": "event"
				},
				{
					"inputs": [
						{
							"internalType": "address",
							"name": "projectAddress",
							"type": "address"
						},
						{
							"internalType": "address",
							"name": "minter",
							"type": "address"
						},
						{
							"internalType": "address",
							"name": "kolAddress",
							"type": "address"
						}
					],
					"name": "MainMint",
					"outputs": [],
					"stateMutability": "payable",
					"type": "function"
				},
				{
					"inputs": [
						{
							"internalType": "address",
							"name": "kolAddress",
							"type": "address"
						},
						{
							"internalType": "address",
							"name": "projectAddress",
							"type": "address"
						}
					],
					"name": "getKOLValue",
					"outputs": [
						{
							"internalType": "uint256",
							"name": "",
							"type": "uint256"
						}
					],
					"stateMutability": "view",
					"type": "function"
				},
				{
					"inputs": [
						{
							"internalType": "address",
							"name": "projectAddress",
							"type": "address"
						}
					],
					"name": "getProjectConfig",
					"outputs": [
						{
							"components": [
								{
									"internalType": "uint8",
									"name": "project_sharing",
									"type": "uint8"
								},
								{
									"internalType": "uint8",
									"name": "kol_sharing",
									"type": "uint8"
								}
							],
							"internalType": "struct MainContract.sharing_config",
							"name": "",
							"type": "tuple"
						}
					],
					"stateMutability": "view",
					"type": "function"
				},
				{
					"inputs": [],
					"name": "owner",
					"outputs": [
						{
							"internalType": "address",
							"name": "",
							"type": "address"
						}
					],
					"stateMutability": "view",
					"type": "function"
				},
				{
					"inputs": [
						{
							"internalType": "address",
							"name": "projectAddress",
							"type": "address"
						},
						{
							"internalType": "address",
							"name": "kolAddress",
							"type": "address"
						}
					],
					"name": "readKOLInProject",
					"outputs": [
						{
							"internalType": "bool",
							"name": "",
							"type": "bool"
						}
					],
					"stateMutability": "view",
					"type": "function"
				},
				{
					"inputs": [
						{
							"internalType": "address",
							"name": "projectAddress",
							"type": "address"
						},
						{
							"internalType": "address",
							"name": "kolAddress",
							"type": "address"
						}
					],
					"name": "recordKOLInProject",
					"outputs": [],
					"stateMutability": "nonpayable",
					"type": "function"
				},
				{
					"inputs": [],
					"name": "renounceOwnership",
					"outputs": [],
					"stateMutability": "nonpayable",
					"type": "function"
				},
				{
					"inputs": [
						{
							"internalType": "address",
							"name": "projectAddress",
							"type": "address"
						},
						{
							"internalType": "uint8",
							"name": "project_sharing",
							"type": "uint8"
						},
						{
							"internalType": "uint8",
							"name": "kol_sharing",
							"type": "uint8"
						}
					],
					"name": "setProjectConfig",
					"outputs": [],
					"stateMutability": "nonpayable",
					"type": "function"
				},
				{
					"inputs": [
						{
							"internalType": "address",
							"name": "newOwner",
							"type": "address"
						}
					],
					"name": "transferOwnership",
					"outputs": [],
					"stateMutability": "nonpayable",
					"type": "function"
				}
			],
			"devdoc": {
				"kind": "dev",
				"methods": {
					"owner()": {
						"details": "Returns the address of the current owner."
					},
					"renounceOwnership()": {
						"details": "Leaves the contract without owner. It will not be possible to call `onlyOwner` functions anymore. Can only be called by the current owner. NOTE: Renouncing ownership will leave the contract without an owner, thereby removing any functionality that is only available to the owner."
					},
					"transferOwnership(address)": {
						"details": "Transfers ownership of the contract to a new account (`newOwner`). Can only be called by the current owner."
					}
				},
				"version": 1
			},
			"evm": {
				"assembly": "    /* \"contracts/Main.sol\":252:3869  contract MainContract is Ownable {... */\n  mstore(0x40, 0x80)\n    /* \"contracts/Main.sol\":324:326  90 */\n  0x5a\n    /* \"contracts/Main.sol\":291:326  uint8 private _project_sharing = 90 */\n  0x00\n  exp(0x0100, 0x14)\n  dup2\n  sload\n  dup2\n  0xff\n  mul\n  not\n  and\n  swap1\n  dup4\n  0xff\n  and\n  mul\n  or\n  swap1\n  sstore\n  pop\n    /* \"contracts/Main.sol\":361:362  8 */\n  0x08\n    /* \"contracts/Main.sol\":332:362  uint8 private _kol_sharing = 8 */\n  0x00\n  exp(0x0100, 0x15)\n  dup2\n  sload\n  dup2\n  0xff\n  mul\n  not\n  and\n  swap1\n  dup4\n  0xff\n  and\n  mul\n  or\n  swap1\n  sstore\n  pop\n    /* \"contracts/Main.sol\":829:850  constructor() {... */\n  callvalue\n  dup1\n  iszero\n  tag_1\n  jumpi\n  0x00\n  dup1\n  revert\ntag_1:\n  pop\n    /* \"@openzeppelin/contracts/access/Ownable.sol\":936:968  _transferOwnership(_msgSender()) */\n  tag_5\n    /* \"@openzeppelin/contracts/access/Ownable.sol\":955:967  _msgSender() */\n  tag_6\n    /* \"@openzeppelin/contracts/access/Ownable.sol\":955:965  _msgSender */\n  shl(0x20, tag_7)\n    /* \"@openzeppelin/contracts/access/Ownable.sol\":955:967  _msgSender() */\n  0x20\n  shr\n  jump\t// in\ntag_6:\n    /* \"@openzeppelin/contracts/access/Ownable.sol\":936:954  _transferOwnership */\n  shl(0x20, tag_8)\n    /* \"@openzeppelin/contracts/access/Ownable.sol\":936:968  _transferOwnership(_msgSender()) */\n  0x20\n  shr\n  jump\t// in\ntag_5:\n    /* \"contracts/Main.sol\":252:3869  contract MainContract is Ownable {... */\n  jump(tag_10)\n    /* \"@openzeppelin/contracts/utils/Context.sol\":640:736  function _msgSender() internal view virtual returns (address) {... */\ntag_7:\n    /* \"@openzeppelin/contracts/utils/Context.sol\":693:700  address */\n  0x00\n    /* \"@openzeppelin/contracts/utils/Context.sol\":719:729  msg.sender */\n  caller\n    /* \"@openzeppelin/contracts/utils/Context.sol\":712:729  return msg.sender */\n  swap1\n  pop\n    /* \"@openzeppelin/contracts/utils/Context.sol\":640:736  function _msgSender() internal view virtual returns (address) {... */\n  swap1\n  jump\t// out\n    /* \"@openzeppelin/contracts/access/Ownable.sol\":2433:2620  function _transferOwnership(address newOwner) internal virtual {... */\ntag_8:\n    /* \"@openzeppelin/contracts/access/Ownable.sol\":2506:2522  address oldOwner */\n  0x00\n    /* \"@openzeppelin/contracts/access/Ownable.sol\":2525:2531  _owner */\n  dup1\n  0x00\n  swap1\n  sload\n  swap1\n  0x0100\n  exp\n  swap1\n  div\n  0xffffffffffffffffffffffffffffffffffffffff\n  and\n    /* \"@openzeppelin/contracts/access/Ownable.sol\":2506:2531  address oldOwner = _owner */\n  swap1\n  pop\n    /* \"@openzeppelin/contracts/access/Ownable.sol\":2550:2558  newOwner */\n  dup2\n    /* \"@openzeppelin/contracts/access/Ownable.sol\":2541:2547  _owner */\n  0x00\n  dup1\n    /* \"@openzeppelin/contracts/access/Ownable.sol\":2541:2558  _owner = newOwner */\n  0x0100\n  exp\n  dup2\n  sload\n  dup2\n  0xffffffffffffffffffffffffffffffffffffffff\n  mul\n  not\n  and\n  swap1\n  dup4\n  0xffffffffffffffffffffffffffffffffffffffff\n  and\n  mul\n  or\n  swap1\n  sstore\n  pop\n    /* \"@openzeppelin/contracts/access/Ownable.sol\":2604:2612  newOwner */\n  dup2\n    /* \"@openzeppelin/contracts/access/Ownable.sol\":2573:2613  OwnershipTransferred(oldOwner, newOwner) */\n  0xffffffffffffffffffffffffffffffffffffffff\n  and\n    /* \"@openzeppelin/contracts/access/Ownable.sol\":2594:2602  oldOwner */\n  dup2\n    /* \"@openzeppelin/contracts/access/Ownable.sol\":2573:2613  OwnershipTransferred(oldOwner, newOwner) */\n  0xffffffffffffffffffffffffffffffffffffffff\n  and\n  0x8be0079c531659141344cd1fd0a4f28419497f9722a3daafe3b4186f6b6457e0\n  mload(0x40)\n  mload(0x40)\n  dup1\n  swap2\n  sub\n  swap1\n  log3\n    /* \"@openzeppelin/contracts/access/Ownable.sol\":2433:2620  function _transferOwnership(address newOwner) internal virtual {... */\n  pop\n  pop\n  jump\t// out\n    /* \"contracts/Main.sol\":252:3869  contract MainContract is Ownable {... */\ntag_10:\n  dataSize(sub_0)\n  dup1\n  dataOffset(sub_0)\n  0x00\n  codecopy\n  0x00\n  return\nstop\n\nsub_0: assembly {\n        /* \"contracts/Main.sol\":252:3869  contract MainContract is Ownable {... */\n      mstore(0x40, 0x80)\n      jumpi(tag_1, lt(calldatasize, 0x04))\n      shr(0xe0, calldataload(0x00))\n      dup1\n      0x8e41d948\n      gt\n      tag_11\n      jumpi\n      dup1\n      0x8e41d948\n      eq\n      tag_6\n      jumpi\n      dup1\n      0xcaed69b9\n      eq\n      tag_7\n      jumpi\n      dup1\n      0xdd4c74c1\n      eq\n      tag_8\n      jumpi\n      dup1\n      0xf1490318\n      eq\n      tag_9\n      jumpi\n      dup1\n      0xf2fde38b\n      eq\n      tag_10\n      jumpi\n      jump(tag_1)\n    tag_11:\n      dup1\n      0x1a54d9cb\n      eq\n      tag_2\n      jumpi\n      dup1\n      0x47a02312\n      eq\n      tag_3\n      jumpi\n      dup1\n      0x715018a6\n      eq\n      tag_4\n      jumpi\n      dup1\n      0x8da5cb5b\n      eq\n      tag_5\n      jumpi\n    tag_1:\n      0x00\n      dup1\n      revert\n        /* \"contracts/Main.sol\":3703:3867  function getKOLValue(address kolAddress, address projectAddress) public view returns (uint256) {... */\n    tag_2:\n      callvalue\n      dup1\n      iszero\n      tag_12\n      jumpi\n      0x00\n      dup1\n      revert\n    tag_12:\n      pop\n      tag_13\n      0x04\n      dup1\n      calldatasize\n      sub\n      dup2\n      add\n      swap1\n      tag_14\n      swap2\n      swap1\n      tag_15\n      jump\t// in\n    tag_14:\n      tag_16\n      jump\t// in\n    tag_13:\n      mload(0x40)\n      tag_17\n      swap2\n      swap1\n      tag_18\n      jump\t// in\n    tag_17:\n      mload(0x40)\n      dup1\n      swap2\n      sub\n      swap1\n      return\n        /* \"contracts/Main.sol\":1069:2549  function MainMint(... */\n    tag_3:\n      tag_19\n      0x04\n      dup1\n      calldatasize\n      sub\n      dup2\n      add\n      swap1\n      tag_20\n      swap2\n      swap1\n      tag_21\n      jump\t// in\n    tag_20:\n      tag_22\n      jump\t// in\n    tag_19:\n      stop\n        /* \"@openzeppelin/contracts/access/Ownable.sol\":1831:1932  function renounceOwnership() public virtual onlyOwner {... */\n    tag_4:\n      callvalue\n      dup1\n      iszero\n      tag_23\n      jumpi\n      0x00\n      dup1\n      revert\n    tag_23:\n      pop\n      tag_24\n      tag_25\n      jump\t// in\n    tag_24:\n      stop\n        /* \"@openzeppelin/contracts/access/Ownable.sol\":1201:1286  function owner() public view virtual returns (address) {... */\n    tag_5:\n      callvalue\n      dup1\n      iszero\n      tag_26\n      jumpi\n      0x00\n      dup1\n      revert\n    tag_26:\n      pop\n      tag_27\n      tag_28\n      jump\t// in\n    tag_27:\n      mload(0x40)\n      tag_29\n      swap2\n      swap1\n      tag_30\n      jump\t// in\n    tag_29:\n      mload(0x40)\n      dup1\n      swap2\n      sub\n      swap1\n      return\n        /* \"contracts/Main.sol\":2664:2807  function recordKOLInProject(address projectAddress, address kolAddress) public {... */\n    tag_6:\n      callvalue\n      dup1\n      iszero\n      tag_31\n      jumpi\n      0x00\n      dup1\n      revert\n    tag_31:\n      pop\n      tag_32\n      0x04\n      dup1\n      calldatasize\n      sub\n      dup2\n      add\n      swap1\n      tag_33\n      swap2\n      swap1\n      tag_15\n      jump\t// in\n    tag_33:\n      tag_34\n      jump\t// in\n    tag_32:\n      stop\n        /* \"contracts/Main.sol\":2813:2974  function readKOLInProject(address projectAddress, address kolAddress) public view returns (bool) {... */\n    tag_7:\n      callvalue\n      dup1\n      iszero\n      tag_35\n      jumpi\n      0x00\n      dup1\n      revert\n    tag_35:\n      pop\n      tag_36\n      0x04\n      dup1\n      calldatasize\n      sub\n      dup2\n      add\n      swap1\n      tag_37\n      swap2\n      swap1\n      tag_15\n      jump\t// in\n    tag_37:\n      tag_38\n      jump\t// in\n    tag_36:\n      mload(0x40)\n      tag_39\n      swap2\n      swap1\n      tag_40\n      jump\t// in\n    tag_39:\n      mload(0x40)\n      dup1\n      swap2\n      sub\n      swap1\n      return\n        /* \"contracts/Main.sol\":3246:3697  function getProjectConfig(address projectAddress) public view returns (sharing_config memory) {... */\n    tag_8:\n      callvalue\n      dup1\n      iszero\n      tag_41\n      jumpi\n      0x00\n      dup1\n      revert\n    tag_41:\n      pop\n      tag_42\n      0x04\n      dup1\n      calldatasize\n      sub\n      dup2\n      add\n      swap1\n      tag_43\n      swap2\n      swap1\n      tag_44\n      jump\t// in\n    tag_43:\n      tag_45\n      jump\t// in\n    tag_42:\n      mload(0x40)\n      tag_46\n      swap2\n      swap1\n      tag_47\n      jump\t// in\n    tag_46:\n      mload(0x40)\n      dup1\n      swap2\n      sub\n      swap1\n      return\n        /* \"contracts/Main.sol\":2980:3240  function setProjectConfig(address projectAddress, uint8 project_sharing, uint8 kol_sharing) external onlyOwner {... */\n    tag_9:\n      callvalue\n      dup1\n      iszero\n      tag_48\n      jumpi\n      0x00\n      dup1\n      revert\n    tag_48:\n      pop\n      tag_49\n      0x04\n      dup1\n      calldatasize\n      sub\n      dup2\n      add\n      swap1\n      tag_50\n      swap2\n      swap1\n      tag_51\n      jump\t// in\n    tag_50:\n      tag_52\n      jump\t// in\n    tag_49:\n      stop\n        /* \"@openzeppelin/contracts/access/Ownable.sol\":2081:2279  function transferOwnership(address newOwner) public virtual onlyOwner {... */\n    tag_10:\n      callvalue\n      dup1\n      iszero\n      tag_53\n      jumpi\n      0x00\n      dup1\n      revert\n    tag_53:\n      pop\n      tag_54\n      0x04\n      dup1\n      calldatasize\n      sub\n      dup2\n      add\n      swap1\n      tag_55\n      swap2\n      swap1\n      tag_44\n      jump\t// in\n    tag_55:\n      tag_56\n      jump\t// in\n    tag_54:\n      stop\n        /* \"contracts/Main.sol\":3703:3867  function getKOLValue(address kolAddress, address projectAddress) public view returns (uint256) {... */\n    tag_16:\n        /* \"contracts/Main.sol\":3789:3796  uint256 */\n      0x00\n        /* \"contracts/Main.sol\":3815:3832  kol_project_value */\n      0x03\n        /* \"contracts/Main.sol\":3815:3844  kol_project_value[kolAddress] */\n      0x00\n        /* \"contracts/Main.sol\":3833:3843  kolAddress */\n      dup5\n        /* \"contracts/Main.sol\":3815:3844  kol_project_value[kolAddress] */\n      0xffffffffffffffffffffffffffffffffffffffff\n      and\n      0xffffffffffffffffffffffffffffffffffffffff\n      and\n      dup2\n      mstore\n      0x20\n      add\n      swap1\n      dup2\n      mstore\n      0x20\n      add\n      0x00\n      keccak256\n        /* \"contracts/Main.sol\":3815:3860  kol_project_value[kolAddress][projectAddress] */\n      0x00\n        /* \"contracts/Main.sol\":3845:3859  projectAddress */\n      dup4\n        /* \"contracts/Main.sol\":3815:3860  kol_project_value[kolAddress][projectAddress] */\n      0xffffffffffffffffffffffffffffffffffffffff\n      and\n      0xffffffffffffffffffffffffffffffffffffffff\n      and\n      dup2\n      mstore\n      0x20\n      add\n      swap1\n      dup2\n      mstore\n      0x20\n      add\n      0x00\n      keccak256\n      sload\n        /* \"contracts/Main.sol\":3808:3860  return kol_project_value[kolAddress][projectAddress] */\n      swap1\n      pop\n        /* \"contracts/Main.sol\":3703:3867  function getKOLValue(address kolAddress, address projectAddress) public view returns (uint256) {... */\n      swap3\n      swap2\n      pop\n      pop\n      jump\t// out\n        /* \"contracts/Main.sol\":1069:2549  function MainMint(... */\n    tag_22:\n        /* \"contracts/Main.sol\":1346:1366  ProjectToken project */\n      0x00\n        /* \"contracts/Main.sol\":1382:1396  projectAddress */\n      dup4\n        /* \"contracts/Main.sol\":1346:1397  ProjectToken project = ProjectToken(projectAddress) */\n      swap1\n      pop\n        /* \"contracts/Main.sol\":1686:1708  bool is_kol_in_project */\n      0x00\n        /* \"contracts/Main.sol\":1711:1723  project_kols */\n      0x02\n        /* \"contracts/Main.sol\":1711:1739  project_kols[projectAddress] */\n      0x00\n        /* \"contracts/Main.sol\":1724:1738  projectAddress */\n      dup7\n        /* \"contracts/Main.sol\":1711:1739  project_kols[projectAddress] */\n      0xffffffffffffffffffffffffffffffffffffffff\n      and\n      0xffffffffffffffffffffffffffffffffffffffff\n      and\n      dup2\n      mstore\n      0x20\n      add\n      swap1\n      dup2\n      mstore\n      0x20\n      add\n      0x00\n      keccak256\n        /* \"contracts/Main.sol\":1711:1751  project_kols[projectAddress][kolAddress] */\n      0x00\n        /* \"contracts/Main.sol\":1740:1750  kolAddress */\n      dup5\n        /* \"contracts/Main.sol\":1711:1751  project_kols[projectAddress][kolAddress] */\n      0xffffffffffffffffffffffffffffffffffffffff\n      and\n      0xffffffffffffffffffffffffffffffffffffffff\n      and\n      dup2\n      mstore\n      0x20\n      add\n      swap1\n      dup2\n      mstore\n      0x20\n      add\n      0x00\n      keccak256\n      0x00\n      swap1\n      sload\n      swap1\n      0x0100\n      exp\n      swap1\n      div\n      0xff\n      and\n        /* \"contracts/Main.sol\":1686:1751  bool is_kol_in_project = project_kols[projectAddress][kolAddress] */\n      swap1\n      pop\n        /* \"contracts/Main.sol\":1761:1772  address kol */\n      0x00\n        /* \"contracts/Main.sol\":1786:1803  is_kol_in_project */\n      dup2\n        /* \"contracts/Main.sol\":1782:2543  if (is_kol_in_project) {... */\n      iszero\n      tag_59\n      jumpi\n        /* \"contracts/Main.sol\":1819:1840  uint8 project_sharing */\n      0x00\n        /* \"contracts/Main.sol\":1894:1895  0 */\n      dup1\n        /* \"contracts/Main.sol\":1843:1858  project_configs */\n      0x01\n        /* \"contracts/Main.sol\":1843:1874  project_configs[projectAddress] */\n      0x00\n        /* \"contracts/Main.sol\":1859:1873  projectAddress */\n      dup10\n        /* \"contracts/Main.sol\":1843:1874  project_configs[projectAddress] */\n      0xffffffffffffffffffffffffffffffffffffffff\n      and\n      0xffffffffffffffffffffffffffffffffffffffff\n      and\n      dup2\n      mstore\n      0x20\n      add\n      swap1\n      dup2\n      mstore\n      0x20\n      add\n      0x00\n      keccak256\n        /* \"contracts/Main.sol\":1843:1890  project_configs[projectAddress].project_sharing */\n      0x00\n      add\n      0x00\n      swap1\n      sload\n      swap1\n      0x0100\n      exp\n      swap1\n      div\n      0xff\n      and\n        /* \"contracts/Main.sol\":1843:1895  project_configs[projectAddress].project_sharing == 0 */\n      0xff\n      and\n      eq\n        /* \"contracts/Main.sol\":1843:1964  project_configs[projectAddress].project_sharing == 0 ? _project_sharing : project_configs[projectAddress].project_sharing */\n      tag_60\n      jumpi\n        /* \"contracts/Main.sol\":1917:1932  project_configs */\n      0x01\n        /* \"contracts/Main.sol\":1917:1948  project_configs[projectAddress] */\n      0x00\n        /* \"contracts/Main.sol\":1933:1947  projectAddress */\n      dup9\n        /* \"contracts/Main.sol\":1917:1948  project_configs[projectAddress] */\n      0xffffffffffffffffffffffffffffffffffffffff\n      and\n      0xffffffffffffffffffffffffffffffffffffffff\n      and\n      dup2\n      mstore\n      0x20\n      add\n      swap1\n      dup2\n      mstore\n      0x20\n      add\n      0x00\n      keccak256\n        /* \"contracts/Main.sol\":1917:1964  project_configs[projectAddress].project_sharing */\n      0x00\n      add\n      0x00\n      swap1\n      sload\n      swap1\n      0x0100\n      exp\n      swap1\n      div\n      0xff\n      and\n        /* \"contracts/Main.sol\":1843:1964  project_configs[projectAddress].project_sharing == 0 ? _project_sharing : project_configs[projectAddress].project_sharing */\n      jump(tag_61)\n    tag_60:\n        /* \"contracts/Main.sol\":1898:1914  _project_sharing */\n      0x00\n      0x14\n      swap1\n      sload\n      swap1\n      0x0100\n      exp\n      swap1\n      div\n      0xff\n      and\n        /* \"contracts/Main.sol\":1843:1964  project_configs[projectAddress].project_sharing == 0 ? _project_sharing : project_configs[projectAddress].project_sharing */\n    tag_61:\n        /* \"contracts/Main.sol\":1819:1964  uint8 project_sharing = project_configs[projectAddress].project_sharing == 0 ? _project_sharing : project_configs[projectAddress].project_sharing */\n      swap1\n      pop\n        /* \"contracts/Main.sol\":1978:1995  uint8 kol_sharing */\n      0x00\n        /* \"contracts/Main.sol\":2045:2046  0 */\n      dup1\n        /* \"contracts/Main.sol\":1998:2013  project_configs */\n      0x01\n        /* \"contracts/Main.sol\":1998:2029  project_configs[projectAddress] */\n      0x00\n        /* \"contracts/Main.sol\":2014:2028  projectAddress */\n      dup11\n        /* \"contracts/Main.sol\":1998:2029  project_configs[projectAddress] */\n      0xffffffffffffffffffffffffffffffffffffffff\n      and\n      0xffffffffffffffffffffffffffffffffffffffff\n      and\n      dup2\n      mstore\n      0x20\n      add\n      swap1\n      dup2\n      mstore\n      0x20\n      add\n      0x00\n      keccak256\n        /* \"contracts/Main.sol\":1998:2041  project_configs[projectAddress].kol_sharing */\n      0x00\n      add\n      0x01\n      swap1\n      sload\n      swap1\n      0x0100\n      exp\n      swap1\n      div\n      0xff\n      and\n        /* \"contracts/Main.sol\":1998:2046  project_configs[projectAddress].kol_sharing == 0 */\n      0xff\n      and\n      eq\n        /* \"contracts/Main.sol\":1998:2107  project_configs[projectAddress].kol_sharing == 0 ? _kol_sharing : project_configs[projectAddress].kol_sharing */\n      tag_62\n      jumpi\n        /* \"contracts/Main.sol\":2064:2079  project_configs */\n      0x01\n        /* \"contracts/Main.sol\":2064:2095  project_configs[projectAddress] */\n      0x00\n        /* \"contracts/Main.sol\":2080:2094  projectAddress */\n      dup10\n        /* \"contracts/Main.sol\":2064:2095  project_configs[projectAddress] */\n      0xffffffffffffffffffffffffffffffffffffffff\n      and\n      0xffffffffffffffffffffffffffffffffffffffff\n      and\n      dup2\n      mstore\n      0x20\n      add\n      swap1\n      dup2\n      mstore\n      0x20\n      add\n      0x00\n      keccak256\n        /* \"contracts/Main.sol\":2064:2107  project_configs[projectAddress].kol_sharing */\n      0x00\n      add\n      0x01\n      swap1\n      sload\n      swap1\n      0x0100\n      exp\n      swap1\n      div\n      0xff\n      and\n        /* \"contracts/Main.sol\":1998:2107  project_configs[projectAddress].kol_sharing == 0 ? _kol_sharing : project_configs[projectAddress].kol_sharing */\n      jump(tag_63)\n    tag_62:\n        /* \"contracts/Main.sol\":2049:2061  _kol_sharing */\n      0x00\n      0x15\n      swap1\n      sload\n      swap1\n      0x0100\n      exp\n      swap1\n      div\n      0xff\n      and\n        /* \"contracts/Main.sol\":1998:2107  project_configs[projectAddress].kol_sharing == 0 ? _kol_sharing : project_configs[projectAddress].kol_sharing */\n    tag_63:\n        /* \"contracts/Main.sol\":1978:2107  uint8 kol_sharing = project_configs[projectAddress].kol_sharing == 0 ? _kol_sharing : project_configs[projectAddress].kol_sharing */\n      swap1\n      pop\n        /* \"contracts/Main.sol\":2121:2128  project */\n      dup5\n        /* \"contracts/Main.sol\":2121:2137  project.safeMint */\n      0xffffffffffffffffffffffffffffffffffffffff\n      and\n      0x40d097c3\n        /* \"contracts/Main.sol\":2175:2178  100 */\n      0x64\n        /* \"contracts/Main.sol\":2157:2172  project_sharing */\n      dup5\n        /* \"contracts/Main.sol\":2145:2172  msg.value * project_sharing */\n      0xff\n      and\n        /* \"contracts/Main.sol\":2145:2154  msg.value */\n      callvalue\n        /* \"contracts/Main.sol\":2145:2172  msg.value * project_sharing */\n      tag_64\n      swap2\n      swap1\n      tag_65\n      jump\t// in\n    tag_64:\n        /* \"contracts/Main.sol\":2145:2178  msg.value * project_sharing / 100 */\n      tag_66\n      swap2\n      swap1\n      tag_67\n      jump\t// in\n    tag_66:\n        /* \"contracts/Main.sol\":2180:2186  minter */\n      dup10\n        /* \"contracts/Main.sol\":2121:2187  project.safeMint{value: msg.value * project_sharing / 100}(minter) */\n      mload(0x40)\n      dup4\n      0xffffffff\n      and\n      0xe0\n      shl\n      dup2\n      mstore\n      0x04\n      add\n      tag_68\n      swap2\n      swap1\n      tag_30\n      jump\t// in\n    tag_68:\n      0x00\n      mload(0x40)\n      dup1\n      dup4\n      sub\n      dup2\n      dup6\n      dup9\n      dup1\n      extcodesize\n      iszero\n      dup1\n      iszero\n      tag_69\n      jumpi\n      0x00\n      dup1\n      revert\n    tag_69:\n      pop\n      gas\n      call\n      iszero\n      dup1\n      iszero\n      tag_71\n      jumpi\n      returndatasize\n      0x00\n      dup1\n      returndatacopy\n      revert(0x00, returndatasize)\n    tag_71:\n      pop\n      pop\n      pop\n      pop\n      pop\n        /* \"contracts/Main.sol\":2207:2217  kolAddress */\n      dup6\n        /* \"contracts/Main.sol\":2201:2217  kol = kolAddress */\n      swap3\n      pop\n        /* \"contracts/Main.sol\":2239:2242  kol */\n      dup3\n        /* \"contracts/Main.sol\":2231:2252  payable(kol).transfer */\n      0xffffffffffffffffffffffffffffffffffffffff\n      and\n        /* \"contracts/Main.sol\":2231:2283  payable(kol).transfer(msg.value * kol_sharing / 100) */\n      0x08fc\n        /* \"contracts/Main.sol\":2279:2282  100 */\n      0x64\n        /* \"contracts/Main.sol\":2265:2276  kol_sharing */\n      dup4\n        /* \"contracts/Main.sol\":2253:2276  msg.value * kol_sharing */\n      0xff\n      and\n        /* \"contracts/Main.sol\":2253:2262  msg.value */\n      callvalue\n        /* \"contracts/Main.sol\":2253:2276  msg.value * kol_sharing */\n      tag_72\n      swap2\n      swap1\n      tag_65\n      jump\t// in\n    tag_72:\n        /* \"contracts/Main.sol\":2253:2282  msg.value * kol_sharing / 100 */\n      tag_73\n      swap2\n      swap1\n      tag_67\n      jump\t// in\n    tag_73:\n        /* \"contracts/Main.sol\":2231:2283  payable(kol).transfer(msg.value * kol_sharing / 100) */\n      swap1\n      dup2\n      iszero\n      mul\n      swap1\n      mload(0x40)\n      0x00\n      mload(0x40)\n      dup1\n      dup4\n      sub\n      dup2\n      dup6\n      dup9\n      dup9\n      call\n      swap4\n      pop\n      pop\n      pop\n      pop\n      iszero\n      dup1\n      iszero\n      tag_75\n      jumpi\n      returndatasize\n      0x00\n      dup1\n      returndatacopy\n      revert(0x00, returndatasize)\n    tag_75:\n      pop\n        /* \"contracts/Main.sol\":2412:2421  msg.value */\n      callvalue\n        /* \"contracts/Main.sol\":2364:2381  kol_project_value */\n      0x03\n        /* \"contracts/Main.sol\":2364:2393  kol_project_value[kolAddress] */\n      0x00\n        /* \"contracts/Main.sol\":2382:2392  kolAddress */\n      dup9\n        /* \"contracts/Main.sol\":2364:2393  kol_project_value[kolAddress] */\n      0xffffffffffffffffffffffffffffffffffffffff\n      and\n      0xffffffffffffffffffffffffffffffffffffffff\n      and\n      dup2\n      mstore\n      0x20\n      add\n      swap1\n      dup2\n      mstore\n      0x20\n      add\n      0x00\n      keccak256\n        /* \"contracts/Main.sol\":2364:2409  kol_project_value[kolAddress][projectAddress] */\n      0x00\n        /* \"contracts/Main.sol\":2394:2408  projectAddress */\n      dup11\n        /* \"contracts/Main.sol\":2364:2409  kol_project_value[kolAddress][projectAddress] */\n      0xffffffffffffffffffffffffffffffffffffffff\n      and\n      0xffffffffffffffffffffffffffffffffffffffff\n      and\n      dup2\n      mstore\n      0x20\n      add\n      swap1\n      dup2\n      mstore\n      0x20\n      add\n      0x00\n      keccak256\n      sload\n        /* \"contracts/Main.sol\":2364:2421  kol_project_value[kolAddress][projectAddress] + msg.value */\n      tag_76\n      swap2\n      swap1\n      tag_77\n      jump\t// in\n    tag_76:\n        /* \"contracts/Main.sol\":2316:2333  kol_project_value */\n      0x03\n        /* \"contracts/Main.sol\":2316:2345  kol_project_value[kolAddress] */\n      0x00\n        /* \"contracts/Main.sol\":2334:2344  kolAddress */\n      dup9\n        /* \"contracts/Main.sol\":2316:2345  kol_project_value[kolAddress] */\n      0xffffffffffffffffffffffffffffffffffffffff\n      and\n      0xffffffffffffffffffffffffffffffffffffffff\n      and\n      dup2\n      mstore\n      0x20\n      add\n      swap1\n      dup2\n      mstore\n      0x20\n      add\n      0x00\n      keccak256\n        /* \"contracts/Main.sol\":2316:2361  kol_project_value[kolAddress][projectAddress] */\n      0x00\n        /* \"contracts/Main.sol\":2346:2360  projectAddress */\n      dup11\n        /* \"contracts/Main.sol\":2316:2361  kol_project_value[kolAddress][projectAddress] */\n      0xffffffffffffffffffffffffffffffffffffffff\n      and\n      0xffffffffffffffffffffffffffffffffffffffff\n      and\n      dup2\n      mstore\n      0x20\n      add\n      swap1\n      dup2\n      mstore\n      0x20\n      add\n      0x00\n      keccak256\n        /* \"contracts/Main.sol\":2316:2421  kol_project_value[kolAddress][projectAddress] = kol_project_value[kolAddress][projectAddress] + msg.value */\n      dup2\n      swap1\n      sstore\n      pop\n        /* \"contracts/Main.sol\":1782:2543  if (is_kol_in_project) {... */\n      pop\n      pop\n      jump(tag_78)\n    tag_59:\n        /* \"contracts/Main.sol\":2490:2497  project */\n      dup3\n        /* \"contracts/Main.sol\":2490:2506  project.safeMint */\n      0xffffffffffffffffffffffffffffffffffffffff\n      and\n      0x40d097c3\n        /* \"contracts/Main.sol\":2514:2523  msg.value */\n      callvalue\n        /* \"contracts/Main.sol\":2525:2531  minter */\n      dup8\n        /* \"contracts/Main.sol\":2490:2532  project.safeMint{value: msg.value}(minter) */\n      mload(0x40)\n      dup4\n      0xffffffff\n      and\n      0xe0\n      shl\n      dup2\n      mstore\n      0x04\n      add\n      tag_79\n      swap2\n      swap1\n      tag_30\n      jump\t// in\n    tag_79:\n      0x00\n      mload(0x40)\n      dup1\n      dup4\n      sub\n      dup2\n      dup6\n      dup9\n      dup1\n      extcodesize\n      iszero\n      dup1\n      iszero\n      tag_80\n      jumpi\n      0x00\n      dup1\n      revert\n    tag_80:\n      pop\n      gas\n      call\n      iszero\n      dup1\n      iszero\n      tag_82\n      jumpi\n      returndatasize\n      0x00\n      dup1\n      returndatacopy\n      revert(0x00, returndatasize)\n    tag_82:\n      pop\n      pop\n      pop\n      pop\n      pop\n        /* \"contracts/Main.sol\":1782:2543  if (is_kol_in_project) {... */\n    tag_78:\n        /* \"contracts/Main.sol\":1069:2549  function MainMint(... */\n      pop\n      pop\n      pop\n      pop\n      pop\n      pop\n      jump\t// out\n        /* \"@openzeppelin/contracts/access/Ownable.sol\":1831:1932  function renounceOwnership() public virtual onlyOwner {... */\n    tag_25:\n        /* \"@openzeppelin/contracts/access/Ownable.sol\":1094:1107  _checkOwner() */\n      tag_84\n        /* \"@openzeppelin/contracts/access/Ownable.sol\":1094:1105  _checkOwner */\n      tag_85\n        /* \"@openzeppelin/contracts/access/Ownable.sol\":1094:1107  _checkOwner() */\n      jump\t// in\n    tag_84:\n        /* \"@openzeppelin/contracts/access/Ownable.sol\":1895:1925  _transferOwnership(address(0)) */\n      tag_87\n        /* \"@openzeppelin/contracts/access/Ownable.sol\":1922:1923  0 */\n      0x00\n        /* \"@openzeppelin/contracts/access/Ownable.sol\":1895:1913  _transferOwnership */\n      tag_88\n        /* \"@openzeppelin/contracts/access/Ownable.sol\":1895:1925  _transferOwnership(address(0)) */\n      jump\t// in\n    tag_87:\n        /* \"@openzeppelin/contracts/access/Ownable.sol\":1831:1932  function renounceOwnership() public virtual onlyOwner {... */\n      jump\t// out\n        /* \"@openzeppelin/contracts/access/Ownable.sol\":1201:1286  function owner() public view virtual returns (address) {... */\n    tag_28:\n        /* \"@openzeppelin/contracts/access/Ownable.sol\":1247:1254  address */\n      0x00\n        /* \"@openzeppelin/contracts/access/Ownable.sol\":1273:1279  _owner */\n      dup1\n      0x00\n      swap1\n      sload\n      swap1\n      0x0100\n      exp\n      swap1\n      div\n      0xffffffffffffffffffffffffffffffffffffffff\n      and\n        /* \"@openzeppelin/contracts/access/Ownable.sol\":1266:1279  return _owner */\n      swap1\n      pop\n        /* \"@openzeppelin/contracts/access/Ownable.sol\":1201:1286  function owner() public view virtual returns (address) {... */\n      swap1\n      jump\t// out\n        /* \"contracts/Main.sol\":2664:2807  function recordKOLInProject(address projectAddress, address kolAddress) public {... */\n    tag_34:\n        /* \"contracts/Main.sol\":2796:2800  true */\n      0x01\n        /* \"contracts/Main.sol\":2753:2765  project_kols */\n      0x02\n        /* \"contracts/Main.sol\":2753:2781  project_kols[projectAddress] */\n      0x00\n        /* \"contracts/Main.sol\":2766:2780  projectAddress */\n      dup5\n        /* \"contracts/Main.sol\":2753:2781  project_kols[projectAddress] */\n      0xffffffffffffffffffffffffffffffffffffffff\n      and\n      0xffffffffffffffffffffffffffffffffffffffff\n      and\n      dup2\n      mstore\n      0x20\n      add\n      swap1\n      dup2\n      mstore\n      0x20\n      add\n      0x00\n      keccak256\n        /* \"contracts/Main.sol\":2753:2793  project_kols[projectAddress][kolAddress] */\n      0x00\n        /* \"contracts/Main.sol\":2782:2792  kolAddress */\n      dup4\n        /* \"contracts/Main.sol\":2753:2793  project_kols[projectAddress][kolAddress] */\n      0xffffffffffffffffffffffffffffffffffffffff\n      and\n      0xffffffffffffffffffffffffffffffffffffffff\n      and\n      dup2\n      mstore\n      0x20\n      add\n      swap1\n      dup2\n      mstore\n      0x20\n      add\n      0x00\n      keccak256\n      0x00\n        /* \"contracts/Main.sol\":2753:2800  project_kols[projectAddress][kolAddress] = true */\n      0x0100\n      exp\n      dup2\n      sload\n      dup2\n      0xff\n      mul\n      not\n      and\n      swap1\n      dup4\n      iszero\n      iszero\n      mul\n      or\n      swap1\n      sstore\n      pop\n        /* \"contracts/Main.sol\":2664:2807  function recordKOLInProject(address projectAddress, address kolAddress) public {... */\n      pop\n      pop\n      jump\t// out\n        /* \"contracts/Main.sol\":2813:2974  function readKOLInProject(address projectAddress, address kolAddress) public view returns (bool) {... */\n    tag_38:\n        /* \"contracts/Main.sol\":2904:2908  bool */\n      0x00\n        /* \"contracts/Main.sol\":2927:2939  project_kols */\n      0x02\n        /* \"contracts/Main.sol\":2927:2955  project_kols[projectAddress] */\n      0x00\n        /* \"contracts/Main.sol\":2940:2954  projectAddress */\n      dup5\n        /* \"contracts/Main.sol\":2927:2955  project_kols[projectAddress] */\n      0xffffffffffffffffffffffffffffffffffffffff\n      and\n      0xffffffffffffffffffffffffffffffffffffffff\n      and\n      dup2\n      mstore\n      0x20\n      add\n      swap1\n      dup2\n      mstore\n      0x20\n      add\n      0x00\n      keccak256\n        /* \"contracts/Main.sol\":2927:2967  project_kols[projectAddress][kolAddress] */\n      0x00\n        /* \"contracts/Main.sol\":2956:2966  kolAddress */\n      dup4\n        /* \"contracts/Main.sol\":2927:2967  project_kols[projectAddress][kolAddress] */\n      0xffffffffffffffffffffffffffffffffffffffff\n      and\n      0xffffffffffffffffffffffffffffffffffffffff\n      and\n      dup2\n      mstore\n      0x20\n      add\n      swap1\n      dup2\n      mstore\n      0x20\n      add\n      0x00\n      keccak256\n      0x00\n      swap1\n      sload\n      swap1\n      0x0100\n      exp\n      swap1\n      div\n      0xff\n      and\n        /* \"contracts/Main.sol\":2920:2967  return project_kols[projectAddress][kolAddress] */\n      swap1\n      pop\n        /* \"contracts/Main.sol\":2813:2974  function readKOLInProject(address projectAddress, address kolAddress) public view returns (bool) {... */\n      swap3\n      swap2\n      pop\n      pop\n      jump\t// out\n        /* \"contracts/Main.sol\":3246:3697  function getProjectConfig(address projectAddress) public view returns (sharing_config memory) {... */\n    tag_45:\n        /* \"contracts/Main.sol\":3317:3338  sharing_config memory */\n      tag_92\n      tag_93\n      jump\t// in\n    tag_92:\n        /* \"contracts/Main.sol\":3405:3406  0 */\n      0x00\n        /* \"contracts/Main.sol\":3354:3369  project_configs */\n      0x01\n        /* \"contracts/Main.sol\":3354:3385  project_configs[projectAddress] */\n      0x00\n        /* \"contracts/Main.sol\":3370:3384  projectAddress */\n      dup5\n        /* \"contracts/Main.sol\":3354:3385  project_configs[projectAddress] */\n      0xffffffffffffffffffffffffffffffffffffffff\n      and\n      0xffffffffffffffffffffffffffffffffffffffff\n      and\n      dup2\n      mstore\n      0x20\n      add\n      swap1\n      dup2\n      mstore\n      0x20\n      add\n      0x00\n      keccak256\n        /* \"contracts/Main.sol\":3354:3401  project_configs[projectAddress].project_sharing */\n      0x00\n      add\n      0x00\n      swap1\n      sload\n      swap1\n      0x0100\n      exp\n      swap1\n      div\n      0xff\n      and\n        /* \"contracts/Main.sol\":3354:3406  project_configs[projectAddress].project_sharing != 0 */\n      0xff\n      and\n      eq\n        /* \"contracts/Main.sol\":3350:3691  if (project_configs[projectAddress].project_sharing != 0) {... */\n      tag_95\n      jumpi\n        /* \"contracts/Main.sol\":3429:3444  project_configs */\n      0x01\n        /* \"contracts/Main.sol\":3429:3460  project_configs[projectAddress] */\n      0x00\n        /* \"contracts/Main.sol\":3445:3459  projectAddress */\n      dup4\n        /* \"contracts/Main.sol\":3429:3460  project_configs[projectAddress] */\n      0xffffffffffffffffffffffffffffffffffffffff\n      and\n      0xffffffffffffffffffffffffffffffffffffffff\n      and\n      dup2\n      mstore\n      0x20\n      add\n      swap1\n      dup2\n      mstore\n      0x20\n      add\n      0x00\n      keccak256\n        /* \"contracts/Main.sol\":3422:3460  return project_configs[projectAddress] */\n      mload(0x40)\n      dup1\n      0x40\n      add\n      0x40\n      mstore\n      swap1\n      dup2\n      0x00\n      dup3\n      add\n      0x00\n      swap1\n      sload\n      swap1\n      0x0100\n      exp\n      swap1\n      div\n      0xff\n      and\n      0xff\n      and\n      0xff\n      and\n      dup2\n      mstore\n      0x20\n      add\n      0x00\n      dup3\n      add\n      0x01\n      swap1\n      sload\n      swap1\n      0x0100\n      exp\n      swap1\n      div\n      0xff\n      and\n      0xff\n      and\n      0xff\n      and\n      dup2\n      mstore\n      pop\n      pop\n      swap1\n      pop\n      jump(tag_94)\n        /* \"contracts/Main.sol\":3350:3691  if (project_configs[projectAddress].project_sharing != 0) {... */\n    tag_95:\n        /* \"contracts/Main.sol\":3491:3527  sharing_config memory project_config */\n      tag_97\n      tag_93\n      jump\t// in\n    tag_97:\n        /* \"contracts/Main.sol\":3574:3590  _project_sharing */\n      0x00\n      0x14\n      swap1\n      sload\n      swap1\n      0x0100\n      exp\n      swap1\n      div\n      0xff\n      and\n        /* \"contracts/Main.sol\":3541:3555  project_config */\n      dup2\n        /* \"contracts/Main.sol\":3541:3571  project_config.project_sharing */\n      0x00\n      add\n        /* \"contracts/Main.sol\":3541:3590  project_config.project_sharing = _project_sharing */\n      swap1\n      0xff\n      and\n      swap1\n      dup2\n      0xff\n      and\n      dup2\n      mstore\n      pop\n      pop\n        /* \"contracts/Main.sol\":3633:3645  _kol_sharing */\n      0x00\n      0x15\n      swap1\n      sload\n      swap1\n      0x0100\n      exp\n      swap1\n      div\n      0xff\n      and\n        /* \"contracts/Main.sol\":3604:3618  project_config */\n      dup2\n        /* \"contracts/Main.sol\":3604:3630  project_config.kol_sharing */\n      0x20\n      add\n        /* \"contracts/Main.sol\":3604:3645  project_config.kol_sharing = _kol_sharing */\n      swap1\n      0xff\n      and\n      swap1\n      dup2\n      0xff\n      and\n      dup2\n      mstore\n      pop\n      pop\n        /* \"contracts/Main.sol\":3666:3680  project_config */\n      dup1\n        /* \"contracts/Main.sol\":3659:3680  return project_config */\n      swap2\n      pop\n      pop\n        /* \"contracts/Main.sol\":3246:3697  function getProjectConfig(address projectAddress) public view returns (sharing_config memory) {... */\n    tag_94:\n      swap2\n      swap1\n      pop\n      jump\t// out\n        /* \"contracts/Main.sol\":2980:3240  function setProjectConfig(address projectAddress, uint8 project_sharing, uint8 kol_sharing) external onlyOwner {... */\n    tag_52:\n        /* \"@openzeppelin/contracts/access/Ownable.sol\":1094:1107  _checkOwner() */\n      tag_99\n        /* \"@openzeppelin/contracts/access/Ownable.sol\":1094:1105  _checkOwner */\n      tag_85\n        /* \"@openzeppelin/contracts/access/Ownable.sol\":1094:1107  _checkOwner() */\n      jump\t// in\n    tag_99:\n        /* \"contracts/Main.sol\":3151:3166  project_sharing */\n      dup2\n        /* \"contracts/Main.sol\":3101:3116  project_configs */\n      0x01\n        /* \"contracts/Main.sol\":3101:3132  project_configs[projectAddress] */\n      0x00\n        /* \"contracts/Main.sol\":3117:3131  projectAddress */\n      dup6\n        /* \"contracts/Main.sol\":3101:3132  project_configs[projectAddress] */\n      0xffffffffffffffffffffffffffffffffffffffff\n      and\n      0xffffffffffffffffffffffffffffffffffffffff\n      and\n      dup2\n      mstore\n      0x20\n      add\n      swap1\n      dup2\n      mstore\n      0x20\n      add\n      0x00\n      keccak256\n        /* \"contracts/Main.sol\":3101:3148  project_configs[projectAddress].project_sharing */\n      0x00\n      add\n      0x00\n        /* \"contracts/Main.sol\":3101:3166  project_configs[projectAddress].project_sharing = project_sharing */\n      0x0100\n      exp\n      dup2\n      sload\n      dup2\n      0xff\n      mul\n      not\n      and\n      swap1\n      dup4\n      0xff\n      and\n      mul\n      or\n      swap1\n      sstore\n      pop\n        /* \"contracts/Main.sol\":3222:3233  kol_sharing */\n      dup1\n        /* \"contracts/Main.sol\":3176:3191  project_configs */\n      0x01\n        /* \"contracts/Main.sol\":3176:3207  project_configs[projectAddress] */\n      0x00\n        /* \"contracts/Main.sol\":3192:3206  projectAddress */\n      dup6\n        /* \"contracts/Main.sol\":3176:3207  project_configs[projectAddress] */\n      0xffffffffffffffffffffffffffffffffffffffff\n      and\n      0xffffffffffffffffffffffffffffffffffffffff\n      and\n      dup2\n      mstore\n      0x20\n      add\n      swap1\n      dup2\n      mstore\n      0x20\n      add\n      0x00\n      keccak256\n        /* \"contracts/Main.sol\":3176:3219  project_configs[projectAddress].kol_sharing */\n      0x00\n      add\n      0x01\n        /* \"contracts/Main.sol\":3176:3233  project_configs[projectAddress].kol_sharing = kol_sharing */\n      0x0100\n      exp\n      dup2\n      sload\n      dup2\n      0xff\n      mul\n      not\n      and\n      swap1\n      dup4\n      0xff\n      and\n      mul\n      or\n      swap1\n      sstore\n      pop\n        /* \"contracts/Main.sol\":2980:3240  function setProjectConfig(address projectAddress, uint8 project_sharing, uint8 kol_sharing) external onlyOwner {... */\n      pop\n      pop\n      pop\n      jump\t// out\n        /* \"@openzeppelin/contracts/access/Ownable.sol\":2081:2279  function transferOwnership(address newOwner) public virtual onlyOwner {... */\n    tag_56:\n        /* \"@openzeppelin/contracts/access/Ownable.sol\":1094:1107  _checkOwner() */\n      tag_102\n        /* \"@openzeppelin/contracts/access/Ownable.sol\":1094:1105  _checkOwner */\n      tag_85\n        /* \"@openzeppelin/contracts/access/Ownable.sol\":1094:1107  _checkOwner() */\n      jump\t// in\n    tag_102:\n        /* \"@openzeppelin/contracts/access/Ownable.sol\":2189:2190  0 */\n      0x00\n        /* \"@openzeppelin/contracts/access/Ownable.sol\":2169:2191  newOwner != address(0) */\n      0xffffffffffffffffffffffffffffffffffffffff\n      and\n        /* \"@openzeppelin/contracts/access/Ownable.sol\":2169:2177  newOwner */\n      dup2\n        /* \"@openzeppelin/contracts/access/Ownable.sol\":2169:2191  newOwner != address(0) */\n      0xffffffffffffffffffffffffffffffffffffffff\n      and\n      eq\n      iszero\n        /* \"@openzeppelin/contracts/access/Ownable.sol\":2161:2234  require(newOwner != address(0), \"Ownable: new owner is the zero address\") */\n      tag_104\n      jumpi\n      mload(0x40)\n      0x08c379a000000000000000000000000000000000000000000000000000000000\n      dup2\n      mstore\n      0x04\n      add\n      tag_105\n      swap1\n      tag_106\n      jump\t// in\n    tag_105:\n      mload(0x40)\n      dup1\n      swap2\n      sub\n      swap1\n      revert\n    tag_104:\n        /* \"@openzeppelin/contracts/access/Ownable.sol\":2244:2272  _transferOwnership(newOwner) */\n      tag_107\n        /* \"@openzeppelin/contracts/access/Ownable.sol\":2263:2271  newOwner */\n      dup2\n        /* \"@openzeppelin/contracts/access/Ownable.sol\":2244:2262  _transferOwnership */\n      tag_88\n        /* \"@openzeppelin/contracts/access/Ownable.sol\":2244:2272  _transferOwnership(newOwner) */\n      jump\t// in\n    tag_107:\n        /* \"@openzeppelin/contracts/access/Ownable.sol\":2081:2279  function transferOwnership(address newOwner) public virtual onlyOwner {... */\n      pop\n      jump\t// out\n        /* \"@openzeppelin/contracts/access/Ownable.sol\":1359:1489  function _checkOwner() internal view virtual {... */\n    tag_85:\n        /* \"@openzeppelin/contracts/access/Ownable.sol\":1433:1445  _msgSender() */\n      tag_109\n        /* \"@openzeppelin/contracts/access/Ownable.sol\":1433:1443  _msgSender */\n      tag_110\n        /* \"@openzeppelin/contracts/access/Ownable.sol\":1433:1445  _msgSender() */\n      jump\t// in\n    tag_109:\n        /* \"@openzeppelin/contracts/access/Ownable.sol\":1422:1445  owner() == _msgSender() */\n      0xffffffffffffffffffffffffffffffffffffffff\n      and\n        /* \"@openzeppelin/contracts/access/Ownable.sol\":1422:1429  owner() */\n      tag_111\n        /* \"@openzeppelin/contracts/access/Ownable.sol\":1422:1427  owner */\n      tag_28\n        /* \"@openzeppelin/contracts/access/Ownable.sol\":1422:1429  owner() */\n      jump\t// in\n    tag_111:\n        /* \"@openzeppelin/contracts/access/Ownable.sol\":1422:1445  owner() == _msgSender() */\n      0xffffffffffffffffffffffffffffffffffffffff\n      and\n      eq\n        /* \"@openzeppelin/contracts/access/Ownable.sol\":1414:1482  require(owner() == _msgSender(), \"Ownable: caller is not the owner\") */\n      tag_112\n      jumpi\n      mload(0x40)\n      0x08c379a000000000000000000000000000000000000000000000000000000000\n      dup2\n      mstore\n      0x04\n      add\n      tag_113\n      swap1\n      tag_114\n      jump\t// in\n    tag_113:\n      mload(0x40)\n      dup1\n      swap2\n      sub\n      swap1\n      revert\n    tag_112:\n        /* \"@openzeppelin/contracts/access/Ownable.sol\":1359:1489  function _checkOwner() internal view virtual {... */\n      jump\t// out\n        /* \"@openzeppelin/contracts/access/Ownable.sol\":2433:2620  function _transferOwnership(address newOwner) internal virtual {... */\n    tag_88:\n        /* \"@openzeppelin/contracts/access/Ownable.sol\":2506:2522  address oldOwner */\n      0x00\n        /* \"@openzeppelin/contracts/access/Ownable.sol\":2525:2531  _owner */\n      dup1\n      0x00\n      swap1\n      sload\n      swap1\n      0x0100\n      exp\n      swap1\n      div\n      0xffffffffffffffffffffffffffffffffffffffff\n      and\n        /* \"@openzeppelin/contracts/access/Ownable.sol\":2506:2531  address oldOwner = _owner */\n      swap1\n      pop\n        /* \"@openzeppelin/contracts/access/Ownable.sol\":2550:2558  newOwner */\n      dup2\n        /* \"@openzeppelin/contracts/access/Ownable.sol\":2541:2547  _owner */\n      0x00\n      dup1\n        /* \"@openzeppelin/contracts/access/Ownable.sol\":2541:2558  _owner = newOwner */\n      0x0100\n      exp\n      dup2\n      sload\n      dup2\n      0xffffffffffffffffffffffffffffffffffffffff\n      mul\n      not\n      and\n      swap1\n      dup4\n      0xffffffffffffffffffffffffffffffffffffffff\n      and\n      mul\n      or\n      swap1\n      sstore\n      pop\n        /* \"@openzeppelin/contracts/access/Ownable.sol\":2604:2612  newOwner */\n      dup2\n        /* \"@openzeppelin/contracts/access/Ownable.sol\":2573:2613  OwnershipTransferred(oldOwner, newOwner) */\n      0xffffffffffffffffffffffffffffffffffffffff\n      and\n        /* \"@openzeppelin/contracts/access/Ownable.sol\":2594:2602  oldOwner */\n      dup2\n        /* \"@openzeppelin/contracts/access/Ownable.sol\":2573:2613  OwnershipTransferred(oldOwner, newOwner) */\n      0xffffffffffffffffffffffffffffffffffffffff\n      and\n      0x8be0079c531659141344cd1fd0a4f28419497f9722a3daafe3b4186f6b6457e0\n      mload(0x40)\n      mload(0x40)\n      dup1\n      swap2\n      sub\n      swap1\n      log3\n        /* \"@openzeppelin/contracts/access/Ownable.sol\":2433:2620  function _transferOwnership(address newOwner) internal virtual {... */\n      pop\n      pop\n      jump\t// out\n        /* \"@openzeppelin/contracts/utils/Context.sol\":640:736  function _msgSender() internal view virtual returns (address) {... */\n    tag_110:\n        /* \"@openzeppelin/contracts/utils/Context.sol\":693:700  address */\n      0x00\n        /* \"@openzeppelin/contracts/utils/Context.sol\":719:729  msg.sender */\n      caller\n        /* \"@openzeppelin/contracts/utils/Context.sol\":712:729  return msg.sender */\n      swap1\n      pop\n        /* \"@openzeppelin/contracts/utils/Context.sol\":640:736  function _msgSender() internal view virtual returns (address) {... */\n      swap1\n      jump\t// out\n    tag_93:\n      mload(0x40)\n      dup1\n      0x40\n      add\n      0x40\n      mstore\n      dup1\n      and(0xff, 0x00)\n      dup2\n      mstore\n      0x20\n      add\n      and(0xff, 0x00)\n      dup2\n      mstore\n      pop\n      swap1\n      jump\t// out\n        /* \"#utility.yul\":7:146   */\n    tag_118:\n        /* \"#utility.yul\":53:58   */\n      0x00\n        /* \"#utility.yul\":91:97   */\n      dup2\n        /* \"#utility.yul\":78:98   */\n      calldataload\n        /* \"#utility.yul\":69:98   */\n      swap1\n      pop\n        /* \"#utility.yul\":107:140   */\n      tag_120\n        /* \"#utility.yul\":134:139   */\n      dup2\n        /* \"#utility.yul\":107:140   */\n      tag_121\n      jump\t// in\n    tag_120:\n        /* \"#utility.yul\":59:146   */\n      swap3\n      swap2\n      pop\n      pop\n      jump\t// out\n        /* \"#utility.yul\":152:287   */\n    tag_122:\n        /* \"#utility.yul\":196:201   */\n      0x00\n        /* \"#utility.yul\":234:240   */\n      dup2\n        /* \"#utility.yul\":221:241   */\n      calldataload\n        /* \"#utility.yul\":212:241   */\n      swap1\n      pop\n        /* \"#utility.yul\":250:281   */\n      tag_124\n        /* \"#utility.yul\":275:280   */\n      dup2\n        /* \"#utility.yul\":250:281   */\n      tag_125\n      jump\t// in\n    tag_124:\n        /* \"#utility.yul\":202:287   */\n      swap3\n      swap2\n      pop\n      pop\n      jump\t// out\n        /* \"#utility.yul\":293:555   */\n    tag_44:\n        /* \"#utility.yul\":352:358   */\n      0x00\n        /* \"#utility.yul\":401:403   */\n      0x20\n        /* \"#utility.yul\":389:398   */\n      dup3\n        /* \"#utility.yul\":380:387   */\n      dup5\n        /* \"#utility.yul\":376:399   */\n      sub\n        /* \"#utility.yul\":372:404   */\n      slt\n        /* \"#utility.yul\":369:371   */\n      iszero\n      tag_127\n      jumpi\n        /* \"#utility.yul\":417:418   */\n      0x00\n        /* \"#utility.yul\":414:415   */\n      dup1\n        /* \"#utility.yul\":407:419   */\n      revert\n        /* \"#utility.yul\":369:371   */\n    tag_127:\n        /* \"#utility.yul\":460:461   */\n      0x00\n        /* \"#utility.yul\":485:538   */\n      tag_128\n        /* \"#utility.yul\":530:537   */\n      dup5\n        /* \"#utility.yul\":521:527   */\n      dup3\n        /* \"#utility.yul\":510:519   */\n      dup6\n        /* \"#utility.yul\":506:528   */\n      add\n        /* \"#utility.yul\":485:538   */\n      tag_118\n      jump\t// in\n    tag_128:\n        /* \"#utility.yul\":475:538   */\n      swap2\n      pop\n        /* \"#utility.yul\":431:548   */\n      pop\n        /* \"#utility.yul\":359:555   */\n      swap3\n      swap2\n      pop\n      pop\n      jump\t// out\n        /* \"#utility.yul\":561:968   */\n    tag_15:\n        /* \"#utility.yul\":629:635   */\n      0x00\n        /* \"#utility.yul\":637:643   */\n      dup1\n        /* \"#utility.yul\":686:688   */\n      0x40\n        /* \"#utility.yul\":674:683   */\n      dup4\n        /* \"#utility.yul\":665:672   */\n      dup6\n        /* \"#utility.yul\":661:684   */\n      sub\n        /* \"#utility.yul\":657:689   */\n      slt\n        /* \"#utility.yul\":654:656   */\n      iszero\n      tag_130\n      jumpi\n        /* \"#utility.yul\":702:703   */\n      0x00\n        /* \"#utility.yul\":699:700   */\n      dup1\n        /* \"#utility.yul\":692:704   */\n      revert\n        /* \"#utility.yul\":654:656   */\n    tag_130:\n        /* \"#utility.yul\":745:746   */\n      0x00\n        /* \"#utility.yul\":770:823   */\n      tag_131\n        /* \"#utility.yul\":815:822   */\n      dup6\n        /* \"#utility.yul\":806:812   */\n      dup3\n        /* \"#utility.yul\":795:804   */\n      dup7\n        /* \"#utility.yul\":791:813   */\n      add\n        /* \"#utility.yul\":770:823   */\n      tag_118\n      jump\t// in\n    tag_131:\n        /* \"#utility.yul\":760:823   */\n      swap3\n      pop\n        /* \"#utility.yul\":716:833   */\n      pop\n        /* \"#utility.yul\":872:874   */\n      0x20\n        /* \"#utility.yul\":898:951   */\n      tag_132\n        /* \"#utility.yul\":943:950   */\n      dup6\n        /* \"#utility.yul\":934:940   */\n      dup3\n        /* \"#utility.yul\":923:932   */\n      dup7\n        /* \"#utility.yul\":919:941   */\n      add\n        /* \"#utility.yul\":898:951   */\n      tag_118\n      jump\t// in\n    tag_132:\n        /* \"#utility.yul\":888:951   */\n      swap2\n      pop\n        /* \"#utility.yul\":843:961   */\n      pop\n        /* \"#utility.yul\":644:968   */\n      swap3\n      pop\n      swap3\n      swap1\n      pop\n      jump\t// out\n        /* \"#utility.yul\":974:1526   */\n    tag_21:\n        /* \"#utility.yul\":1051:1057   */\n      0x00\n        /* \"#utility.yul\":1059:1065   */\n      dup1\n        /* \"#utility.yul\":1067:1073   */\n      0x00\n        /* \"#utility.yul\":1116:1118   */\n      0x60\n        /* \"#utility.yul\":1104:1113   */\n      dup5\n        /* \"#utility.yul\":1095:1102   */\n      dup7\n        /* \"#utility.yul\":1091:1114   */\n      sub\n        /* \"#utility.yul\":1087:1119   */\n      slt\n        /* \"#utility.yul\":1084:1086   */\n      iszero\n      tag_134\n      jumpi\n        /* \"#utility.yul\":1132:1133   */\n      0x00\n        /* \"#utility.yul\":1129:1130   */\n      dup1\n        /* \"#utility.yul\":1122:1134   */\n      revert\n        /* \"#utility.yul\":1084:1086   */\n    tag_134:\n        /* \"#utility.yul\":1175:1176   */\n      0x00\n        /* \"#utility.yul\":1200:1253   */\n      tag_135\n        /* \"#utility.yul\":1245:1252   */\n      dup7\n        /* \"#utility.yul\":1236:1242   */\n      dup3\n        /* \"#utility.yul\":1225:1234   */\n      dup8\n        /* \"#utility.yul\":1221:1243   */\n      add\n        /* \"#utility.yul\":1200:1253   */\n      tag_118\n      jump\t// in\n    tag_135:\n        /* \"#utility.yul\":1190:1253   */\n      swap4\n      pop\n        /* \"#utility.yul\":1146:1263   */\n      pop\n        /* \"#utility.yul\":1302:1304   */\n      0x20\n        /* \"#utility.yul\":1328:1381   */\n      tag_136\n        /* \"#utility.yul\":1373:1380   */\n      dup7\n        /* \"#utility.yul\":1364:1370   */\n      dup3\n        /* \"#utility.yul\":1353:1362   */\n      dup8\n        /* \"#utility.yul\":1349:1371   */\n      add\n        /* \"#utility.yul\":1328:1381   */\n      tag_118\n      jump\t// in\n    tag_136:\n        /* \"#utility.yul\":1318:1381   */\n      swap3\n      pop\n        /* \"#utility.yul\":1273:1391   */\n      pop\n        /* \"#utility.yul\":1430:1432   */\n      0x40\n        /* \"#utility.yul\":1456:1509   */\n      tag_137\n        /* \"#utility.yul\":1501:1508   */\n      dup7\n        /* \"#utility.yul\":1492:1498   */\n      dup3\n        /* \"#utility.yul\":1481:1490   */\n      dup8\n        /* \"#utility.yul\":1477:1499   */\n      add\n        /* \"#utility.yul\":1456:1509   */\n      tag_118\n      jump\t// in\n    tag_137:\n        /* \"#utility.yul\":1446:1509   */\n      swap2\n      pop\n        /* \"#utility.yul\":1401:1519   */\n      pop\n        /* \"#utility.yul\":1074:1526   */\n      swap3\n      pop\n      swap3\n      pop\n      swap3\n      jump\t// out\n        /* \"#utility.yul\":1532:2076   */\n    tag_51:\n        /* \"#utility.yul\":1605:1611   */\n      0x00\n        /* \"#utility.yul\":1613:1619   */\n      dup1\n        /* \"#utility.yul\":1621:1627   */\n      0x00\n        /* \"#utility.yul\":1670:1672   */\n      0x60\n        /* \"#utility.yul\":1658:1667   */\n      dup5\n        /* \"#utility.yul\":1649:1656   */\n      dup7\n        /* \"#utility.yul\":1645:1668   */\n      sub\n        /* \"#utility.yul\":1641:1673   */\n      slt\n        /* \"#utility.yul\":1638:1640   */\n      iszero\n      tag_139\n      jumpi\n        /* \"#utility.yul\":1686:1687   */\n      0x00\n        /* \"#utility.yul\":1683:1684   */\n      dup1\n        /* \"#utility.yul\":1676:1688   */\n      revert\n        /* \"#utility.yul\":1638:1640   */\n    tag_139:\n        /* \"#utility.yul\":1729:1730   */\n      0x00\n        /* \"#utility.yul\":1754:1807   */\n      tag_140\n        /* \"#utility.yul\":1799:1806   */\n      dup7\n        /* \"#utility.yul\":1790:1796   */\n      dup3\n        /* \"#utility.yul\":1779:1788   */\n      dup8\n        /* \"#utility.yul\":1775:1797   */\n      add\n        /* \"#utility.yul\":1754:1807   */\n      tag_118\n      jump\t// in\n    tag_140:\n        /* \"#utility.yul\":1744:1807   */\n      swap4\n      pop\n        /* \"#utility.yul\":1700:1817   */\n      pop\n        /* \"#utility.yul\":1856:1858   */\n      0x20\n        /* \"#utility.yul\":1882:1933   */\n      tag_141\n        /* \"#utility.yul\":1925:1932   */\n      dup7\n        /* \"#utility.yul\":1916:1922   */\n      dup3\n        /* \"#utility.yul\":1905:1914   */\n      dup8\n        /* \"#utility.yul\":1901:1923   */\n      add\n        /* \"#utility.yul\":1882:1933   */\n      tag_122\n      jump\t// in\n    tag_141:\n        /* \"#utility.yul\":1872:1933   */\n      swap3\n      pop\n        /* \"#utility.yul\":1827:1943   */\n      pop\n        /* \"#utility.yul\":1982:1984   */\n      0x40\n        /* \"#utility.yul\":2008:2059   */\n      tag_142\n        /* \"#utility.yul\":2051:2058   */\n      dup7\n        /* \"#utility.yul\":2042:2048   */\n      dup3\n        /* \"#utility.yul\":2031:2040   */\n      dup8\n        /* \"#utility.yul\":2027:2049   */\n      add\n        /* \"#utility.yul\":2008:2059   */\n      tag_122\n      jump\t// in\n    tag_142:\n        /* \"#utility.yul\":1998:2059   */\n      swap2\n      pop\n        /* \"#utility.yul\":1953:2069   */\n      pop\n        /* \"#utility.yul\":1628:2076   */\n      swap3\n      pop\n      swap3\n      pop\n      swap3\n      jump\t// out\n        /* \"#utility.yul\":2082:2200   */\n    tag_143:\n        /* \"#utility.yul\":2169:2193   */\n      tag_145\n        /* \"#utility.yul\":2187:2192   */\n      dup2\n        /* \"#utility.yul\":2169:2193   */\n      tag_146\n      jump\t// in\n    tag_145:\n        /* \"#utility.yul\":2164:2167   */\n      dup3\n        /* \"#utility.yul\":2157:2194   */\n      mstore\n        /* \"#utility.yul\":2147:2200   */\n      pop\n      pop\n      jump\t// out\n        /* \"#utility.yul\":2206:2315   */\n    tag_147:\n        /* \"#utility.yul\":2287:2308   */\n      tag_149\n        /* \"#utility.yul\":2302:2307   */\n      dup2\n        /* \"#utility.yul\":2287:2308   */\n      tag_150\n      jump\t// in\n    tag_149:\n        /* \"#utility.yul\":2282:2285   */\n      dup3\n        /* \"#utility.yul\":2275:2309   */\n      mstore\n        /* \"#utility.yul\":2265:2315   */\n      pop\n      pop\n      jump\t// out\n        /* \"#utility.yul\":2321:2687   */\n    tag_151:\n        /* \"#utility.yul\":2463:2466   */\n      0x00\n        /* \"#utility.yul\":2484:2551   */\n      tag_153\n        /* \"#utility.yul\":2548:2550   */\n      0x26\n        /* \"#utility.yul\":2543:2546   */\n      dup4\n        /* \"#utility.yul\":2484:2551   */\n      tag_154\n      jump\t// in\n    tag_153:\n        /* \"#utility.yul\":2477:2551   */\n      swap2\n      pop\n        /* \"#utility.yul\":2560:2653   */\n      tag_155\n        /* \"#utility.yul\":2649:2652   */\n      dup3\n        /* \"#utility.yul\":2560:2653   */\n      tag_156\n      jump\t// in\n    tag_155:\n        /* \"#utility.yul\":2678:2680   */\n      0x40\n        /* \"#utility.yul\":2673:2676   */\n      dup3\n        /* \"#utility.yul\":2669:2681   */\n      add\n        /* \"#utility.yul\":2662:2681   */\n      swap1\n      pop\n        /* \"#utility.yul\":2467:2687   */\n      swap2\n      swap1\n      pop\n      jump\t// out\n        /* \"#utility.yul\":2693:3059   */\n    tag_157:\n        /* \"#utility.yul\":2835:2838   */\n      0x00\n        /* \"#utility.yul\":2856:2923   */\n      tag_159\n        /* \"#utility.yul\":2920:2922   */\n      0x20\n        /* \"#utility.yul\":2915:2918   */\n      dup4\n        /* \"#utility.yul\":2856:2923   */\n      tag_154\n      jump\t// in\n    tag_159:\n        /* \"#utility.yul\":2849:2923   */\n      swap2\n      pop\n        /* \"#utility.yul\":2932:3025   */\n      tag_160\n        /* \"#utility.yul\":3021:3024   */\n      dup3\n        /* \"#utility.yul\":2932:3025   */\n      tag_161\n      jump\t// in\n    tag_160:\n        /* \"#utility.yul\":3050:3052   */\n      0x20\n        /* \"#utility.yul\":3045:3048   */\n      dup3\n        /* \"#utility.yul\":3041:3053   */\n      add\n        /* \"#utility.yul\":3034:3053   */\n      swap1\n      pop\n        /* \"#utility.yul\":2839:3059   */\n      swap2\n      swap1\n      pop\n      jump\t// out\n        /* \"#utility.yul\":3145:3674   */\n    tag_162:\n        /* \"#utility.yul\":3304:3308   */\n      0x40\n        /* \"#utility.yul\":3299:3302   */\n      dup3\n        /* \"#utility.yul\":3295:3309   */\n      add\n        /* \"#utility.yul\":3402:3406   */\n      0x00\n        /* \"#utility.yul\":3395:3400   */\n      dup3\n        /* \"#utility.yul\":3391:3407   */\n      add\n        /* \"#utility.yul\":3385:3408   */\n      mload\n        /* \"#utility.yul\":3421:3480   */\n      tag_164\n        /* \"#utility.yul\":3474:3478   */\n      0x00\n        /* \"#utility.yul\":3469:3472   */\n      dup6\n        /* \"#utility.yul\":3465:3479   */\n      add\n        /* \"#utility.yul\":3451:3463   */\n      dup3\n        /* \"#utility.yul\":3421:3480   */\n      tag_165\n      jump\t// in\n    tag_164:\n        /* \"#utility.yul\":3319:3490   */\n      pop\n        /* \"#utility.yul\":3579:3583   */\n      0x20\n        /* \"#utility.yul\":3572:3577   */\n      dup3\n        /* \"#utility.yul\":3568:3584   */\n      add\n        /* \"#utility.yul\":3562:3585   */\n      mload\n        /* \"#utility.yul\":3598:3657   */\n      tag_166\n        /* \"#utility.yul\":3651:3655   */\n      0x20\n        /* \"#utility.yul\":3646:3649   */\n      dup6\n        /* \"#utility.yul\":3642:3656   */\n      add\n        /* \"#utility.yul\":3628:3640   */\n      dup3\n        /* \"#utility.yul\":3598:3657   */\n      tag_165\n      jump\t// in\n    tag_166:\n        /* \"#utility.yul\":3500:3667   */\n      pop\n        /* \"#utility.yul\":3273:3674   */\n      pop\n      pop\n      pop\n      jump\t// out\n        /* \"#utility.yul\":3680:3798   */\n    tag_167:\n        /* \"#utility.yul\":3767:3791   */\n      tag_169\n        /* \"#utility.yul\":3785:3790   */\n      dup2\n        /* \"#utility.yul\":3767:3791   */\n      tag_170\n      jump\t// in\n    tag_169:\n        /* \"#utility.yul\":3762:3765   */\n      dup3\n        /* \"#utility.yul\":3755:3792   */\n      mstore\n        /* \"#utility.yul\":3745:3798   */\n      pop\n      pop\n      jump\t// out\n        /* \"#utility.yul\":3804:3906   */\n    tag_165:\n        /* \"#utility.yul\":3877:3899   */\n      tag_172\n        /* \"#utility.yul\":3893:3898   */\n      dup2\n        /* \"#utility.yul\":3877:3899   */\n      tag_173\n      jump\t// in\n    tag_172:\n        /* \"#utility.yul\":3872:3875   */\n      dup3\n        /* \"#utility.yul\":3865:3900   */\n      mstore\n        /* \"#utility.yul\":3855:3906   */\n      pop\n      pop\n      jump\t// out\n        /* \"#utility.yul\":3912:4134   */\n    tag_30:\n        /* \"#utility.yul\":4005:4009   */\n      0x00\n        /* \"#utility.yul\":4043:4045   */\n      0x20\n        /* \"#utility.yul\":4032:4041   */\n      dup3\n        /* \"#utility.yul\":4028:4046   */\n      add\n        /* \"#utility.yul\":4020:4046   */\n      swap1\n      pop\n        /* \"#utility.yul\":4056:4127   */\n      tag_175\n        /* \"#utility.yul\":4124:4125   */\n      0x00\n        /* \"#utility.yul\":4113:4122   */\n      dup4\n        /* \"#utility.yul\":4109:4126   */\n      add\n        /* \"#utility.yul\":4100:4106   */\n      dup5\n        /* \"#utility.yul\":4056:4127   */\n      tag_143\n      jump\t// in\n    tag_175:\n        /* \"#utility.yul\":4010:4134   */\n      swap3\n      swap2\n      pop\n      pop\n      jump\t// out\n        /* \"#utility.yul\":4140:4350   */\n    tag_40:\n        /* \"#utility.yul\":4227:4231   */\n      0x00\n        /* \"#utility.yul\":4265:4267   */\n      0x20\n        /* \"#utility.yul\":4254:4263   */\n      dup3\n        /* \"#utility.yul\":4250:4268   */\n      add\n        /* \"#utility.yul\":4242:4268   */\n      swap1\n      pop\n        /* \"#utility.yul\":4278:4343   */\n      tag_177\n        /* \"#utility.yul\":4340:4341   */\n      0x00\n        /* \"#utility.yul\":4329:4338   */\n      dup4\n        /* \"#utility.yul\":4325:4342   */\n      add\n        /* \"#utility.yul\":4316:4322   */\n      dup5\n        /* \"#utility.yul\":4278:4343   */\n      tag_147\n      jump\t// in\n    tag_177:\n        /* \"#utility.yul\":4232:4350   */\n      swap3\n      swap2\n      pop\n      pop\n      jump\t// out\n        /* \"#utility.yul\":4356:4775   */\n    tag_106:\n        /* \"#utility.yul\":4522:4526   */\n      0x00\n        /* \"#utility.yul\":4560:4562   */\n      0x20\n        /* \"#utility.yul\":4549:4558   */\n      dup3\n        /* \"#utility.yul\":4545:4563   */\n      add\n        /* \"#utility.yul\":4537:4563   */\n      swap1\n      pop\n        /* \"#utility.yul\":4609:4618   */\n      dup2\n        /* \"#utility.yul\":4603:4607   */\n      dup2\n        /* \"#utility.yul\":4599:4619   */\n      sub\n        /* \"#utility.yul\":4595:4596   */\n      0x00\n        /* \"#utility.yul\":4584:4593   */\n      dup4\n        /* \"#utility.yul\":4580:4597   */\n      add\n        /* \"#utility.yul\":4573:4620   */\n      mstore\n        /* \"#utility.yul\":4637:4768   */\n      tag_179\n        /* \"#utility.yul\":4763:4767   */\n      dup2\n        /* \"#utility.yul\":4637:4768   */\n      tag_151\n      jump\t// in\n    tag_179:\n        /* \"#utility.yul\":4629:4768   */\n      swap1\n      pop\n        /* \"#utility.yul\":4527:4775   */\n      swap2\n      swap1\n      pop\n      jump\t// out\n        /* \"#utility.yul\":4781:5200   */\n    tag_114:\n        /* \"#utility.yul\":4947:4951   */\n      0x00\n        /* \"#utility.yul\":4985:4987   */\n      0x20\n        /* \"#utility.yul\":4974:4983   */\n      dup3\n        /* \"#utility.yul\":4970:4988   */\n      add\n        /* \"#utility.yul\":4962:4988   */\n      swap1\n      pop\n        /* \"#utility.yul\":5034:5043   */\n      dup2\n        /* \"#utility.yul\":5028:5032   */\n      dup2\n        /* \"#utility.yul\":5024:5044   */\n      sub\n        /* \"#utility.yul\":5020:5021   */\n      0x00\n        /* \"#utility.yul\":5009:5018   */\n      dup4\n        /* \"#utility.yul\":5005:5022   */\n      add\n        /* \"#utility.yul\":4998:5045   */\n      mstore\n        /* \"#utility.yul\":5062:5193   */\n      tag_181\n        /* \"#utility.yul\":5188:5192   */\n      dup2\n        /* \"#utility.yul\":5062:5193   */\n      tag_157\n      jump\t// in\n    tag_181:\n        /* \"#utility.yul\":5054:5193   */\n      swap1\n      pop\n        /* \"#utility.yul\":4952:5200   */\n      swap2\n      swap1\n      pop\n      jump\t// out\n        /* \"#utility.yul\":5206:5552   */\n    tag_47:\n        /* \"#utility.yul\":5361:5365   */\n      0x00\n        /* \"#utility.yul\":5399:5401   */\n      0x40\n        /* \"#utility.yul\":5388:5397   */\n      dup3\n        /* \"#utility.yul\":5384:5402   */\n      add\n        /* \"#utility.yul\":5376:5402   */\n      swap1\n      pop\n        /* \"#utility.yul\":5412:5545   */\n      tag_183\n        /* \"#utility.yul\":5542:5543   */\n      0x00\n        /* \"#utility.yul\":5531:5540   */\n      dup4\n        /* \"#utility.yul\":5527:5544   */\n      add\n        /* \"#utility.yul\":5518:5524   */\n      dup5\n        /* \"#utility.yul\":5412:5545   */\n      tag_162\n      jump\t// in\n    tag_183:\n        /* \"#utility.yul\":5366:5552   */\n      swap3\n      swap2\n      pop\n      pop\n      jump\t// out\n        /* \"#utility.yul\":5558:5780   */\n    tag_18:\n        /* \"#utility.yul\":5651:5655   */\n      0x00\n        /* \"#utility.yul\":5689:5691   */\n      0x20\n        /* \"#utility.yul\":5678:5687   */\n      dup3\n        /* \"#utility.yul\":5674:5692   */\n      add\n        /* \"#utility.yul\":5666:5692   */\n      swap1\n      pop\n        /* \"#utility.yul\":5702:5773   */\n      tag_185\n        /* \"#utility.yul\":5770:5771   */\n      0x00\n        /* \"#utility.yul\":5759:5768   */\n      dup4\n        /* \"#utility.yul\":5755:5772   */\n      add\n        /* \"#utility.yul\":5746:5752   */\n      dup5\n        /* \"#utility.yul\":5702:5773   */\n      tag_167\n      jump\t// in\n    tag_185:\n        /* \"#utility.yul\":5656:5780   */\n      swap3\n      swap2\n      pop\n      pop\n      jump\t// out\n        /* \"#utility.yul\":5786:5955   */\n    tag_154:\n        /* \"#utility.yul\":5870:5881   */\n      0x00\n        /* \"#utility.yul\":5904:5910   */\n      dup3\n        /* \"#utility.yul\":5899:5902   */\n      dup3\n        /* \"#utility.yul\":5892:5911   */\n      mstore\n        /* \"#utility.yul\":5944:5948   */\n      0x20\n        /* \"#utility.yul\":5939:5942   */\n      dup3\n        /* \"#utility.yul\":5935:5949   */\n      add\n        /* \"#utility.yul\":5920:5949   */\n      swap1\n      pop\n        /* \"#utility.yul\":5882:5955   */\n      swap3\n      swap2\n      pop\n      pop\n      jump\t// out\n        /* \"#utility.yul\":5961:6266   */\n    tag_77:\n        /* \"#utility.yul\":6001:6004   */\n      0x00\n        /* \"#utility.yul\":6020:6040   */\n      tag_188\n        /* \"#utility.yul\":6038:6039   */\n      dup3\n        /* \"#utility.yul\":6020:6040   */\n      tag_170\n      jump\t// in\n    tag_188:\n        /* \"#utility.yul\":6015:6040   */\n      swap2\n      pop\n        /* \"#utility.yul\":6054:6074   */\n      tag_189\n        /* \"#utility.yul\":6072:6073   */\n      dup4\n        /* \"#utility.yul\":6054:6074   */\n      tag_170\n      jump\t// in\n    tag_189:\n        /* \"#utility.yul\":6049:6074   */\n      swap3\n      pop\n        /* \"#utility.yul\":6208:6209   */\n      dup3\n        /* \"#utility.yul\":6140:6206   */\n      0xffffffffffffffffffffffffffffffffffffffffffffffffffffffffffffffff\n        /* \"#utility.yul\":6136:6210   */\n      sub\n        /* \"#utility.yul\":6133:6134   */\n      dup3\n        /* \"#utility.yul\":6130:6211   */\n      gt\n        /* \"#utility.yul\":6127:6129   */\n      iszero\n      tag_190\n      jumpi\n        /* \"#utility.yul\":6214:6232   */\n      tag_191\n      tag_192\n      jump\t// in\n    tag_191:\n        /* \"#utility.yul\":6127:6129   */\n    tag_190:\n        /* \"#utility.yul\":6258:6259   */\n      dup3\n        /* \"#utility.yul\":6255:6256   */\n      dup3\n        /* \"#utility.yul\":6251:6260   */\n      add\n        /* \"#utility.yul\":6244:6260   */\n      swap1\n      pop\n        /* \"#utility.yul\":6005:6266   */\n      swap3\n      swap2\n      pop\n      pop\n      jump\t// out\n        /* \"#utility.yul\":6272:6457   */\n    tag_67:\n        /* \"#utility.yul\":6312:6313   */\n      0x00\n        /* \"#utility.yul\":6329:6349   */\n      tag_194\n        /* \"#utility.yul\":6347:6348   */\n      dup3\n        /* \"#utility.yul\":6329:6349   */\n      tag_170\n      jump\t// in\n    tag_194:\n        /* \"#utility.yul\":6324:6349   */\n      swap2\n      pop\n        /* \"#utility.yul\":6363:6383   */\n      tag_195\n        /* \"#utility.yul\":6381:6382   */\n      dup4\n        /* \"#utility.yul\":6363:6383   */\n      tag_170\n      jump\t// in\n    tag_195:\n        /* \"#utility.yul\":6358:6383   */\n      swap3\n      pop\n        /* \"#utility.yul\":6402:6403   */\n      dup3\n        /* \"#utility.yul\":6392:6394   */\n      tag_196\n      jumpi\n        /* \"#utility.yul\":6407:6425   */\n      tag_197\n      tag_198\n      jump\t// in\n    tag_197:\n        /* \"#utility.yul\":6392:6394   */\n    tag_196:\n        /* \"#utility.yul\":6449:6450   */\n      dup3\n        /* \"#utility.yul\":6446:6447   */\n      dup3\n        /* \"#utility.yul\":6442:6451   */\n      div\n        /* \"#utility.yul\":6437:6451   */\n      swap1\n      pop\n        /* \"#utility.yul\":6314:6457   */\n      swap3\n      swap2\n      pop\n      pop\n      jump\t// out\n        /* \"#utility.yul\":6463:6811   */\n    tag_65:\n        /* \"#utility.yul\":6503:6510   */\n      0x00\n        /* \"#utility.yul\":6526:6546   */\n      tag_200\n        /* \"#utility.yul\":6544:6545   */\n      dup3\n        /* \"#utility.yul\":6526:6546   */\n      tag_170\n      jump\t// in\n    tag_200:\n        /* \"#utility.yul\":6521:6546   */\n      swap2\n      pop\n        /* \"#utility.yul\":6560:6580   */\n      tag_201\n        /* \"#utility.yul\":6578:6579   */\n      dup4\n        /* \"#utility.yul\":6560:6580   */\n      tag_170\n      jump\t// in\n    tag_201:\n        /* \"#utility.yul\":6555:6580   */\n      swap3\n      pop\n        /* \"#utility.yul\":6748:6749   */\n      dup2\n        /* \"#utility.yul\":6680:6746   */\n      0xffffffffffffffffffffffffffffffffffffffffffffffffffffffffffffffff\n        /* \"#utility.yul\":6676:6750   */\n      div\n        /* \"#utility.yul\":6673:6674   */\n      dup4\n        /* \"#utility.yul\":6670:6751   */\n      gt\n        /* \"#utility.yul\":6665:6666   */\n      dup3\n        /* \"#utility.yul\":6658:6667   */\n      iszero\n        /* \"#utility.yul\":6651:6668   */\n      iszero\n        /* \"#utility.yul\":6647:6752   */\n      and\n        /* \"#utility.yul\":6644:6646   */\n      iszero\n      tag_202\n      jumpi\n        /* \"#utility.yul\":6755:6773   */\n      tag_203\n      tag_192\n      jump\t// in\n    tag_203:\n        /* \"#utility.yul\":6644:6646   */\n    tag_202:\n        /* \"#utility.yul\":6803:6804   */\n      dup3\n        /* \"#utility.yul\":6800:6801   */\n      dup3\n        /* \"#utility.yul\":6796:6805   */\n      mul\n        /* \"#utility.yul\":6785:6805   */\n      swap1\n      pop\n        /* \"#utility.yul\":6511:6811   */\n      swap3\n      swap2\n      pop\n      pop\n      jump\t// out\n        /* \"#utility.yul\":6817:6913   */\n    tag_146:\n        /* \"#utility.yul\":6854:6861   */\n      0x00\n        /* \"#utility.yul\":6883:6907   */\n      tag_205\n        /* \"#utility.yul\":6901:6906   */\n      dup3\n        /* \"#utility.yul\":6883:6907   */\n      tag_206\n      jump\t// in\n    tag_205:\n        /* \"#utility.yul\":6872:6907   */\n      swap1\n      pop\n        /* \"#utility.yul\":6862:6913   */\n      swap2\n      swap1\n      pop\n      jump\t// out\n        /* \"#utility.yul\":6919:7009   */\n    tag_150:\n        /* \"#utility.yul\":6953:6960   */\n      0x00\n        /* \"#utility.yul\":6996:7001   */\n      dup2\n        /* \"#utility.yul\":6989:7002   */\n      iszero\n        /* \"#utility.yul\":6982:7003   */\n      iszero\n        /* \"#utility.yul\":6971:7003   */\n      swap1\n      pop\n        /* \"#utility.yul\":6961:7009   */\n      swap2\n      swap1\n      pop\n      jump\t// out\n        /* \"#utility.yul\":7015:7141   */\n    tag_206:\n        /* \"#utility.yul\":7052:7059   */\n      0x00\n        /* \"#utility.yul\":7092:7134   */\n      0xffffffffffffffffffffffffffffffffffffffff\n        /* \"#utility.yul\":7085:7090   */\n      dup3\n        /* \"#utility.yul\":7081:7135   */\n      and\n        /* \"#utility.yul\":7070:7135   */\n      swap1\n      pop\n        /* \"#utility.yul\":7060:7141   */\n      swap2\n      swap1\n      pop\n      jump\t// out\n        /* \"#utility.yul\":7147:7224   */\n    tag_170:\n        /* \"#utility.yul\":7184:7191   */\n      0x00\n        /* \"#utility.yul\":7213:7218   */\n      dup2\n        /* \"#utility.yul\":7202:7218   */\n      swap1\n      pop\n        /* \"#utility.yul\":7192:7224   */\n      swap2\n      swap1\n      pop\n      jump\t// out\n        /* \"#utility.yul\":7230:7316   */\n    tag_173:\n        /* \"#utility.yul\":7265:7272   */\n      0x00\n        /* \"#utility.yul\":7305:7309   */\n      0xff\n        /* \"#utility.yul\":7298:7303   */\n      dup3\n        /* \"#utility.yul\":7294:7310   */\n      and\n        /* \"#utility.yul\":7283:7310   */\n      swap1\n      pop\n        /* \"#utility.yul\":7273:7316   */\n      swap2\n      swap1\n      pop\n      jump\t// out\n        /* \"#utility.yul\":7322:7502   */\n    tag_192:\n        /* \"#utility.yul\":7370:7447   */\n      0x4e487b7100000000000000000000000000000000000000000000000000000000\n        /* \"#utility.yul\":7367:7368   */\n      0x00\n        /* \"#utility.yul\":7360:7448   */\n      mstore\n        /* \"#utility.yul\":7467:7471   */\n      0x11\n        /* \"#utility.yul\":7464:7465   */\n      0x04\n        /* \"#utility.yul\":7457:7472   */\n      mstore\n        /* \"#utility.yul\":7491:7495   */\n      0x24\n        /* \"#utility.yul\":7488:7489   */\n      0x00\n        /* \"#utility.yul\":7481:7496   */\n      revert\n        /* \"#utility.yul\":7508:7688   */\n    tag_198:\n        /* \"#utility.yul\":7556:7633   */\n      0x4e487b7100000000000000000000000000000000000000000000000000000000\n        /* \"#utility.yul\":7553:7554   */\n      0x00\n        /* \"#utility.yul\":7546:7634   */\n      mstore\n        /* \"#utility.yul\":7653:7657   */\n      0x12\n        /* \"#utility.yul\":7650:7651   */\n      0x04\n        /* \"#utility.yul\":7643:7658   */\n      mstore\n        /* \"#utility.yul\":7677:7681   */\n      0x24\n        /* \"#utility.yul\":7674:7675   */\n      0x00\n        /* \"#utility.yul\":7667:7682   */\n      revert\n        /* \"#utility.yul\":7694:7919   */\n    tag_156:\n        /* \"#utility.yul\":7834:7868   */\n      0x4f776e61626c653a206e6577206f776e657220697320746865207a65726f2061\n        /* \"#utility.yul\":7830:7831   */\n      0x00\n        /* \"#utility.yul\":7822:7828   */\n      dup3\n        /* \"#utility.yul\":7818:7832   */\n      add\n        /* \"#utility.yul\":7811:7869   */\n      mstore\n        /* \"#utility.yul\":7903:7911   */\n      0x6464726573730000000000000000000000000000000000000000000000000000\n        /* \"#utility.yul\":7898:7900   */\n      0x20\n        /* \"#utility.yul\":7890:7896   */\n      dup3\n        /* \"#utility.yul\":7886:7901   */\n      add\n        /* \"#utility.yul\":7879:7912   */\n      mstore\n        /* \"#utility.yul\":7800:7919   */\n      pop\n      jump\t// out\n        /* \"#utility.yul\":7925:8107   */\n    tag_161:\n        /* \"#utility.yul\":8065:8099   */\n      0x4f776e61626c653a2063616c6c6572206973206e6f7420746865206f776e6572\n        /* \"#utility.yul\":8061:8062   */\n      0x00\n        /* \"#utility.yul\":8053:8059   */\n      dup3\n        /* \"#utility.yul\":8049:8063   */\n      add\n        /* \"#utility.yul\":8042:8100   */\n      mstore\n        /* \"#utility.yul\":8031:8107   */\n      pop\n      jump\t// out\n        /* \"#utility.yul\":8113:8235   */\n    tag_121:\n        /* \"#utility.yul\":8186:8210   */\n      tag_216\n        /* \"#utility.yul\":8204:8209   */\n      dup2\n        /* \"#utility.yul\":8186:8210   */\n      tag_146\n      jump\t// in\n    tag_216:\n        /* \"#utility.yul\":8179:8184   */\n      dup2\n        /* \"#utility.yul\":8176:8211   */\n      eq\n        /* \"#utility.yul\":8166:8168   */\n      tag_217\n      jumpi\n        /* \"#utility.yul\":8225:8226   */\n      0x00\n        /* \"#utility.yul\":8222:8223   */\n      dup1\n        /* \"#utility.yul\":8215:8227   */\n      revert\n        /* \"#utility.yul\":8166:8168   */\n    tag_217:\n        /* \"#utility.yul\":8156:8235   */\n      pop\n      jump\t// out\n        /* \"#utility.yul\":8241:8359   */\n    tag_125:\n        /* \"#utility.yul\":8312:8334   */\n      tag_219\n        /* \"#utility.yul\":8328:8333   */\n      dup2\n        /* \"#utility.yul\":8312:8334   */\n      tag_173\n      jump\t// in\n    tag_219:\n        /* \"#utility.yul\":8305:8310   */\n      dup2\n        /* \"#utility.yul\":8302:8335   */\n      eq\n        /* \"#utility.yul\":8292:8294   */\n      tag_220\n      jumpi\n        /* \"#utility.yul\":8349:8350   */\n      0x00\n        /* \"#utility.yul\":8346:8347   */\n      dup1\n        /* \"#utility.yul\":8339:8351   */\n      revert\n        /* \"#utility.yul\":8292:8294   */\n    tag_220:\n        /* \"#utility.yul\":8282:8359   */\n      pop\n      jump\t// out\n\n    auxdata: 0xa26469706673582212200d4fbd9b45257d4990fecbcef7dfa84564f8c6e6edf240009b695e1321c73bf164736f6c63430008040033\n}\n",
				"bytecode": {
					"linkReferences": {},
					"object": "6080604052605a600060146101000a81548160ff021916908360ff1602179055506008600060156101000a81548160ff021916908360ff16021790555034801561004857600080fd5b5061006561005a61006a60201b60201c565b61007260201b60201c565b610136565b600033905090565b60008060009054906101000a900473ffffffffffffffffffffffffffffffffffffffff169050816000806101000a81548173ffffffffffffffffffffffffffffffffffffffff021916908373ffffffffffffffffffffffffffffffffffffffff1602179055508173ffffffffffffffffffffffffffffffffffffffff168173ffffffffffffffffffffffffffffffffffffffff167f8be0079c531659141344cd1fd0a4f28419497f9722a3daafe3b4186f6b6457e060405160405180910390a35050565b611198806101456000396000f3fe6080604052600436106100865760003560e01c80638e41d948116100595780638e41d94814610126578063caed69b91461014f578063dd4c74c11461018c578063f1490318146101c9578063f2fde38b146101f257610086565b80631a54d9cb1461008b57806347a02312146100c8578063715018a6146100e45780638da5cb5b146100fb575b600080fd5b34801561009757600080fd5b506100b260048036038101906100ad9190610ce0565b61021b565b6040516100bf9190610efc565b60405180910390f35b6100e260048036038101906100dd9190610d1c565b6102a2565b005b3480156100f057600080fd5b506100f9610731565b005b34801561010757600080fd5b50610110610745565b60405161011d9190610e6b565b60405180910390f35b34801561013257600080fd5b5061014d60048036038101906101489190610ce0565b61076e565b005b34801561015b57600080fd5b5061017660048036038101906101719190610ce0565b610807565b6040516101839190610e86565b60405180910390f35b34801561019857600080fd5b506101b360048036038101906101ae9190610cb7565b61089b565b6040516101c09190610ee1565b60405180910390f35b3480156101d557600080fd5b506101f060048036038101906101eb9190610d6b565b6109dc565b005b3480156101fe57600080fd5b5061021960048036038101906102149190610cb7565b610a9f565b005b6000600360008473ffffffffffffffffffffffffffffffffffffffff1673ffffffffffffffffffffffffffffffffffffffff16815260200190815260200160002060008373ffffffffffffffffffffffffffffffffffffffff1673ffffffffffffffffffffffffffffffffffffffff16815260200190815260200160002054905092915050565b60008390506000600260008673ffffffffffffffffffffffffffffffffffffffff1673ffffffffffffffffffffffffffffffffffffffff16815260200190815260200160002060008473ffffffffffffffffffffffffffffffffffffffff1673ffffffffffffffffffffffffffffffffffffffff16815260200190815260200160002060009054906101000a900460ff169050600081156106bc57600080600160008973ffffffffffffffffffffffffffffffffffffffff1673ffffffffffffffffffffffffffffffffffffffff16815260200190815260200160002060000160009054906101000a900460ff1660ff16146103ed57600160008873ffffffffffffffffffffffffffffffffffffffff1673ffffffffffffffffffffffffffffffffffffffff16815260200190815260200160002060000160009054906101000a900460ff166103fe565b600060149054906101000a900460ff165b9050600080600160008a73ffffffffffffffffffffffffffffffffffffffff1673ffffffffffffffffffffffffffffffffffffffff16815260200190815260200160002060000160019054906101000a900460ff1660ff16146104b057600160008973ffffffffffffffffffffffffffffffffffffffff1673ffffffffffffffffffffffffffffffffffffffff16815260200190815260200160002060000160019054906101000a900460ff166104c1565b600060159054906101000a900460ff165b90508473ffffffffffffffffffffffffffffffffffffffff166340d097c360648460ff16346104f09190610faf565b6104fa9190610f7e565b896040518363ffffffff1660e01b81526004016105179190610e6b565b6000604051808303818588803b15801561053057600080fd5b505af1158015610544573d6000803e3d6000fd5b50505050508592508273ffffffffffffffffffffffffffffffffffffffff166108fc60648360ff16346105779190610faf565b6105819190610f7e565b9081150290604051600060405180830381858888f193505050501580156105ac573d6000803e3d6000fd5b5034600360008873ffffffffffffffffffffffffffffffffffffffff1673ffffffffffffffffffffffffffffffffffffffff16815260200190815260200160002060008a73ffffffffffffffffffffffffffffffffffffffff1673ffffffffffffffffffffffffffffffffffffffff168152602001908152602001600020546106359190610f28565b600360008873ffffffffffffffffffffffffffffffffffffffff1673ffffffffffffffffffffffffffffffffffffffff16815260200190815260200160002060008a73ffffffffffffffffffffffffffffffffffffffff1673ffffffffffffffffffffffffffffffffffffffff168152602001908152602001600020819055505050610729565b8273ffffffffffffffffffffffffffffffffffffffff166340d097c334876040518363ffffffff1660e01b81526004016106f69190610e6b565b6000604051808303818588803b15801561070f57600080fd5b505af1158015610723573d6000803e3d6000fd5b50505050505b505050505050565b610739610b23565b6107436000610ba1565b565b60008060009054906101000a900473ffffffffffffffffffffffffffffffffffffffff16905090565b6001600260008473ffffffffffffffffffffffffffffffffffffffff1673ffffffffffffffffffffffffffffffffffffffff16815260200190815260200160002060008373ffffffffffffffffffffffffffffffffffffffff1673ffffffffffffffffffffffffffffffffffffffff16815260200190815260200160002060006101000a81548160ff0219169083151502179055505050565b6000600260008473ffffffffffffffffffffffffffffffffffffffff1673ffffffffffffffffffffffffffffffffffffffff16815260200190815260200160002060008373ffffffffffffffffffffffffffffffffffffffff1673ffffffffffffffffffffffffffffffffffffffff16815260200190815260200160002060009054906101000a900460ff16905092915050565b6108a3610c6d565b6000600160008473ffffffffffffffffffffffffffffffffffffffff1673ffffffffffffffffffffffffffffffffffffffff16815260200190815260200160002060000160009054906101000a900460ff1660ff161461098857600160008373ffffffffffffffffffffffffffffffffffffffff1673ffffffffffffffffffffffffffffffffffffffff1681526020019081526020016000206040518060400160405290816000820160009054906101000a900460ff1660ff1660ff1681526020016000820160019054906101000a900460ff1660ff1660ff168152505090506109d7565b610990610c6d565b600060149054906101000a900460ff16816000019060ff16908160ff1681525050600060159054906101000a900460ff16816020019060ff16908160ff1681525050809150505b919050565b6109e4610b23565b81600160008573ffffffffffffffffffffffffffffffffffffffff1673ffffffffffffffffffffffffffffffffffffffff16815260200190815260200160002060000160006101000a81548160ff021916908360ff16021790555080600160008573ffffffffffffffffffffffffffffffffffffffff1673ffffffffffffffffffffffffffffffffffffffff16815260200190815260200160002060000160016101000a81548160ff021916908360ff160217905550505050565b610aa7610b23565b600073ffffffffffffffffffffffffffffffffffffffff168173ffffffffffffffffffffffffffffffffffffffff161415610b17576040517f08c379a0000000000000000000000000000000000000000000000000000000008152600401610b0e90610ea1565b60405180910390fd5b610b2081610ba1565b50565b610b2b610c65565b73ffffffffffffffffffffffffffffffffffffffff16610b49610745565b73ffffffffffffffffffffffffffffffffffffffff1614610b9f576040517f08c379a0000000000000000000000000000000000000000000000000000000008152600401610b9690610ec1565b60405180910390fd5b565b60008060009054906101000a900473ffffffffffffffffffffffffffffffffffffffff169050816000806101000a81548173ffffffffffffffffffffffffffffffffffffffff021916908373ffffffffffffffffffffffffffffffffffffffff1602179055508173ffffffffffffffffffffffffffffffffffffffff168173ffffffffffffffffffffffffffffffffffffffff167f8be0079c531659141344cd1fd0a4f28419497f9722a3daafe3b4186f6b6457e060405160405180910390a35050565b600033905090565b6040518060400160405280600060ff168152602001600060ff1681525090565b600081359050610c9c81611134565b92915050565b600081359050610cb18161114b565b92915050565b600060208284031215610cc957600080fd5b6000610cd784828501610c8d565b91505092915050565b60008060408385031215610cf357600080fd5b6000610d0185828601610c8d565b9250506020610d1285828601610c8d565b9150509250929050565b600080600060608486031215610d3157600080fd5b6000610d3f86828701610c8d565b9350506020610d5086828701610c8d565b9250506040610d6186828701610c8d565b9150509250925092565b600080600060608486031215610d8057600080fd5b6000610d8e86828701610c8d565b9350506020610d9f86828701610ca2565b9250506040610db086828701610ca2565b9150509250925092565b610dc381611009565b82525050565b610dd28161101b565b82525050565b6000610de5602683610f17565b9150610df0826110bc565b604082019050919050565b6000610e08602083610f17565b9150610e138261110b565b602082019050919050565b604082016000820151610e346000850182610e5c565b506020820151610e476020850182610e5c565b50505050565b610e5681611047565b82525050565b610e6581611051565b82525050565b6000602082019050610e806000830184610dba565b92915050565b6000602082019050610e9b6000830184610dc9565b92915050565b60006020820190508181036000830152610eba81610dd8565b9050919050565b60006020820190508181036000830152610eda81610dfb565b9050919050565b6000604082019050610ef66000830184610e1e565b92915050565b6000602082019050610f116000830184610e4d565b92915050565b600082825260208201905092915050565b6000610f3382611047565b9150610f3e83611047565b9250827fffffffffffffffffffffffffffffffffffffffffffffffffffffffffffffffff03821115610f7357610f7261105e565b5b828201905092915050565b6000610f8982611047565b9150610f9483611047565b925082610fa457610fa361108d565b5b828204905092915050565b6000610fba82611047565b9150610fc583611047565b9250817fffffffffffffffffffffffffffffffffffffffffffffffffffffffffffffffff0483118215151615610ffe57610ffd61105e565b5b828202905092915050565b600061101482611027565b9050919050565b60008115159050919050565b600073ffffffffffffffffffffffffffffffffffffffff82169050919050565b6000819050919050565b600060ff82169050919050565b7f4e487b7100000000000000000000000000000000000000000000000000000000600052601160045260246000fd5b7f4e487b7100000000000000000000000000000000000000000000000000000000600052601260045260246000fd5b7f4f776e61626c653a206e6577206f776e657220697320746865207a65726f206160008201527f6464726573730000000000000000000000000000000000000000000000000000602082015250565b7f4f776e61626c653a2063616c6c6572206973206e6f7420746865206f776e6572600082015250565b61113d81611009565b811461114857600080fd5b50565b61115481611051565b811461115f57600080fd5b5056fea26469706673582212200d4fbd9b45257d4990fecbcef7dfa84564f8c6e6edf240009b695e1321c73bf164736f6c63430008040033",
					"opcodes": "PUSH1 0x80 PUSH1 0x40 MSTORE PUSH1 0x5A PUSH1 0x0 PUSH1 0x14 PUSH2 0x100 EXP DUP2 SLOAD DUP2 PUSH1 0xFF MUL NOT AND SWAP1 DUP4 PUSH1 0xFF AND MUL OR SWAP1 SSTORE POP PUSH1 0x8 PUSH1 0x0 PUSH1 0x15 PUSH2 0x100 EXP DUP2 SLOAD DUP2 PUSH1 0xFF MUL NOT AND SWAP1 DUP4 PUSH1 0xFF AND MUL OR SWAP1 SSTORE POP CALLVALUE DUP1 ISZERO PUSH2 0x48 JUMPI PUSH1 0x0 DUP1 REVERT JUMPDEST POP PUSH2 0x65 PUSH2 0x5A PUSH2 0x6A PUSH1 0x20 SHL PUSH1 0x20 SHR JUMP JUMPDEST PUSH2 0x72 PUSH1 0x20 SHL PUSH1 0x20 SHR JUMP JUMPDEST PUSH2 0x136 JUMP JUMPDEST PUSH1 0x0 CALLER SWAP1 POP SWAP1 JUMP JUMPDEST PUSH1 0x0 DUP1 PUSH1 0x0 SWAP1 SLOAD SWAP1 PUSH2 0x100 EXP SWAP1 DIV PUSH20 0xFFFFFFFFFFFFFFFFFFFFFFFFFFFFFFFFFFFFFFFF AND SWAP1 POP DUP2 PUSH1 0x0 DUP1 PUSH2 0x100 EXP DUP2 SLOAD DUP2 PUSH20 0xFFFFFFFFFFFFFFFFFFFFFFFFFFFFFFFFFFFFFFFF MUL NOT AND SWAP1 DUP4 PUSH20 0xFFFFFFFFFFFFFFFFFFFFFFFFFFFFFFFFFFFFFFFF AND MUL OR SWAP1 SSTORE POP DUP2 PUSH20 0xFFFFFFFFFFFFFFFFFFFFFFFFFFFFFFFFFFFFFFFF AND DUP2 PUSH20 0xFFFFFFFFFFFFFFFFFFFFFFFFFFFFFFFFFFFFFFFF AND PUSH32 0x8BE0079C531659141344CD1FD0A4F28419497F9722A3DAAFE3B4186F6B6457E0 PUSH1 0x40 MLOAD PUSH1 0x40 MLOAD DUP1 SWAP2 SUB SWAP1 LOG3 POP POP JUMP JUMPDEST PUSH2 0x1198 DUP1 PUSH2 0x145 PUSH1 0x0 CODECOPY PUSH1 0x0 RETURN INVALID PUSH1 0x80 PUSH1 0x40 MSTORE PUSH1 0x4 CALLDATASIZE LT PUSH2 0x86 JUMPI PUSH1 0x0 CALLDATALOAD PUSH1 0xE0 SHR DUP1 PUSH4 0x8E41D948 GT PUSH2 0x59 JUMPI DUP1 PUSH4 0x8E41D948 EQ PUSH2 0x126 JUMPI DUP1 PUSH4 0xCAED69B9 EQ PUSH2 0x14F JUMPI DUP1 PUSH4 0xDD4C74C1 EQ PUSH2 0x18C JUMPI DUP1 PUSH4 0xF1490318 EQ PUSH2 0x1C9 JUMPI DUP1 PUSH4 0xF2FDE38B EQ PUSH2 0x1F2 JUMPI PUSH2 0x86 JUMP JUMPDEST DUP1 PUSH4 0x1A54D9CB EQ PUSH2 0x8B JUMPI DUP1 PUSH4 0x47A02312 EQ PUSH2 0xC8 JUMPI DUP1 PUSH4 0x715018A6 EQ PUSH2 0xE4 JUMPI DUP1 PUSH4 0x8DA5CB5B EQ PUSH2 0xFB JUMPI JUMPDEST PUSH1 0x0 DUP1 REVERT JUMPDEST CALLVALUE DUP1 ISZERO PUSH2 0x97 JUMPI PUSH1 0x0 DUP1 REVERT JUMPDEST POP PUSH2 0xB2 PUSH1 0x4 DUP1 CALLDATASIZE SUB DUP2 ADD SWAP1 PUSH2 0xAD SWAP2 SWAP1 PUSH2 0xCE0 JUMP JUMPDEST PUSH2 0x21B JUMP JUMPDEST PUSH1 0x40 MLOAD PUSH2 0xBF SWAP2 SWAP1 PUSH2 0xEFC JUMP JUMPDEST PUSH1 0x40 MLOAD DUP1 SWAP2 SUB SWAP1 RETURN JUMPDEST PUSH2 0xE2 PUSH1 0x4 DUP1 CALLDATASIZE SUB DUP2 ADD SWAP1 PUSH2 0xDD SWAP2 SWAP1 PUSH2 0xD1C JUMP JUMPDEST PUSH2 0x2A2 JUMP JUMPDEST STOP JUMPDEST CALLVALUE DUP1 ISZERO PUSH2 0xF0 JUMPI PUSH1 0x0 DUP1 REVERT JUMPDEST POP PUSH2 0xF9 PUSH2 0x731 JUMP JUMPDEST STOP JUMPDEST CALLVALUE DUP1 ISZERO PUSH2 0x107 JUMPI PUSH1 0x0 DUP1 REVERT JUMPDEST POP PUSH2 0x110 PUSH2 0x745 JUMP JUMPDEST PUSH1 0x40 MLOAD PUSH2 0x11D SWAP2 SWAP1 PUSH2 0xE6B JUMP JUMPDEST PUSH1 0x40 MLOAD DUP1 SWAP2 SUB SWAP1 RETURN JUMPDEST CALLVALUE DUP1 ISZERO PUSH2 0x132 JUMPI PUSH1 0x0 DUP1 REVERT JUMPDEST POP PUSH2 0x14D PUSH1 0x4 DUP1 CALLDATASIZE SUB DUP2 ADD SWAP1 PUSH2 0x148 SWAP2 SWAP1 PUSH2 0xCE0 JUMP JUMPDEST PUSH2 0x76E JUMP JUMPDEST STOP JUMPDEST CALLVALUE DUP1 ISZERO PUSH2 0x15B JUMPI PUSH1 0x0 DUP1 REVERT JUMPDEST POP PUSH2 0x176 PUSH1 0x4 DUP1 CALLDATASIZE SUB DUP2 ADD SWAP1 PUSH2 0x171 SWAP2 SWAP1 PUSH2 0xCE0 JUMP JUMPDEST PUSH2 0x807 JUMP JUMPDEST PUSH1 0x40 MLOAD PUSH2 0x183 SWAP2 SWAP1 PUSH2 0xE86 JUMP JUMPDEST PUSH1 0x40 MLOAD DUP1 SWAP2 SUB SWAP1 RETURN JUMPDEST CALLVALUE DUP1 ISZERO PUSH2 0x198 JUMPI PUSH1 0x0 DUP1 REVERT JUMPDEST POP PUSH2 0x1B3 PUSH1 0x4 DUP1 CALLDATASIZE SUB DUP2 ADD SWAP1 PUSH2 0x1AE SWAP2 SWAP1 PUSH2 0xCB7 JUMP JUMPDEST PUSH2 0x89B JUMP JUMPDEST PUSH1 0x40 MLOAD PUSH2 0x1C0 SWAP2 SWAP1 PUSH2 0xEE1 JUMP JUMPDEST PUSH1 0x40 MLOAD DUP1 SWAP2 SUB SWAP1 RETURN JUMPDEST CALLVALUE DUP1 ISZERO PUSH2 0x1D5 JUMPI PUSH1 0x0 DUP1 REVERT JUMPDEST POP PUSH2 0x1F0 PUSH1 0x4 DUP1 CALLDATASIZE SUB DUP2 ADD SWAP1 PUSH2 0x1EB SWAP2 SWAP1 PUSH2 0xD6B JUMP JUMPDEST PUSH2 0x9DC JUMP JUMPDEST STOP JUMPDEST CALLVALUE DUP1 ISZERO PUSH2 0x1FE JUMPI PUSH1 0x0 DUP1 REVERT JUMPDEST POP PUSH2 0x219 PUSH1 0x4 DUP1 CALLDATASIZE SUB DUP2 ADD SWAP1 PUSH2 0x214 SWAP2 SWAP1 PUSH2 0xCB7 JUMP JUMPDEST PUSH2 0xA9F JUMP JUMPDEST STOP JUMPDEST PUSH1 0x0 PUSH1 0x3 PUSH1 0x0 DUP5 PUSH20 0xFFFFFFFFFFFFFFFFFFFFFFFFFFFFFFFFFFFFFFFF AND PUSH20 0xFFFFFFFFFFFFFFFFFFFFFFFFFFFFFFFFFFFFFFFF AND DUP2 MSTORE PUSH1 0x20 ADD SWAP1 DUP2 MSTORE PUSH1 0x20 ADD PUSH1 0x0 KECCAK256 PUSH1 0x0 DUP4 PUSH20 0xFFFFFFFFFFFFFFFFFFFFFFFFFFFFFFFFFFFFFFFF AND PUSH20 0xFFFFFFFFFFFFFFFFFFFFFFFFFFFFFFFFFFFFFFFF AND DUP2 MSTORE PUSH1 0x20 ADD SWAP1 DUP2 MSTORE PUSH1 0x20 ADD PUSH1 0x0 KECCAK256 SLOAD SWAP1 POP SWAP3 SWAP2 POP POP JUMP JUMPDEST PUSH1 0x0 DUP4 SWAP1 POP PUSH1 0x0 PUSH1 0x2 PUSH1 0x0 DUP7 PUSH20 0xFFFFFFFFFFFFFFFFFFFFFFFFFFFFFFFFFFFFFFFF AND PUSH20 0xFFFFFFFFFFFFFFFFFFFFFFFFFFFFFFFFFFFFFFFF AND DUP2 MSTORE PUSH1 0x20 ADD SWAP1 DUP2 MSTORE PUSH1 0x20 ADD PUSH1 0x0 KECCAK256 PUSH1 0x0 DUP5 PUSH20 0xFFFFFFFFFFFFFFFFFFFFFFFFFFFFFFFFFFFFFFFF AND PUSH20 0xFFFFFFFFFFFFFFFFFFFFFFFFFFFFFFFFFFFFFFFF AND DUP2 MSTORE PUSH1 0x20 ADD SWAP1 DUP2 MSTORE PUSH1 0x20 ADD PUSH1 0x0 KECCAK256 PUSH1 0x0 SWAP1 SLOAD SWAP1 PUSH2 0x100 EXP SWAP1 DIV PUSH1 0xFF AND SWAP1 POP PUSH1 0x0 DUP2 ISZERO PUSH2 0x6BC JUMPI PUSH1 0x0 DUP1 PUSH1 0x1 PUSH1 0x0 DUP10 PUSH20 0xFFFFFFFFFFFFFFFFFFFFFFFFFFFFFFFFFFFFFFFF AND PUSH20 0xFFFFFFFFFFFFFFFFFFFFFFFFFFFFFFFFFFFFFFFF AND DUP2 MSTORE PUSH1 0x20 ADD SWAP1 DUP2 MSTORE PUSH1 0x20 ADD PUSH1 0x0 KECCAK256 PUSH1 0x0 ADD PUSH1 0x0 SWAP1 SLOAD SWAP1 PUSH2 0x100 EXP SWAP1 DIV PUSH1 0xFF AND PUSH1 0xFF AND EQ PUSH2 0x3ED JUMPI PUSH1 0x1 PUSH1 0x0 DUP9 PUSH20 0xFFFFFFFFFFFFFFFFFFFFFFFFFFFFFFFFFFFFFFFF AND PUSH20 0xFFFFFFFFFFFFFFFFFFFFFFFFFFFFFFFFFFFFFFFF AND DUP2 MSTORE PUSH1 0x20 ADD SWAP1 DUP2 MSTORE PUSH1 0x20 ADD PUSH1 0x0 KECCAK256 PUSH1 0x0 ADD PUSH1 0x0 SWAP1 SLOAD SWAP1 PUSH2 0x100 EXP SWAP1 DIV PUSH1 0xFF AND PUSH2 0x3FE JUMP JUMPDEST PUSH1 0x0 PUSH1 0x14 SWAP1 SLOAD SWAP1 PUSH2 0x100 EXP SWAP1 DIV PUSH1 0xFF AND JUMPDEST SWAP1 POP PUSH1 0x0 DUP1 PUSH1 0x1 PUSH1 0x0 DUP11 PUSH20 0xFFFFFFFFFFFFFFFFFFFFFFFFFFFFFFFFFFFFFFFF AND PUSH20 0xFFFFFFFFFFFFFFFFFFFFFFFFFFFFFFFFFFFFFFFF AND DUP2 MSTORE PUSH1 0x20 ADD SWAP1 DUP2 MSTORE PUSH1 0x20 ADD PUSH1 0x0 KECCAK256 PUSH1 0x0 ADD PUSH1 0x1 SWAP1 SLOAD SWAP1 PUSH2 0x100 EXP SWAP1 DIV PUSH1 0xFF AND PUSH1 0xFF AND EQ PUSH2 0x4B0 JUMPI PUSH1 0x1 PUSH1 0x0 DUP10 PUSH20 0xFFFFFFFFFFFFFFFFFFFFFFFFFFFFFFFFFFFFFFFF AND PUSH20 0xFFFFFFFFFFFFFFFFFFFFFFFFFFFFFFFFFFFFFFFF AND DUP2 MSTORE PUSH1 0x20 ADD SWAP1 DUP2 MSTORE PUSH1 0x20 ADD PUSH1 0x0 KECCAK256 PUSH1 0x0 ADD PUSH1 0x1 SWAP1 SLOAD SWAP1 PUSH2 0x100 EXP SWAP1 DIV PUSH1 0xFF AND PUSH2 0x4C1 JUMP JUMPDEST PUSH1 0x0 PUSH1 0x15 SWAP1 SLOAD SWAP1 PUSH2 0x100 EXP SWAP1 DIV PUSH1 0xFF AND JUMPDEST SWAP1 POP DUP5 PUSH20 0xFFFFFFFFFFFFFFFFFFFFFFFFFFFFFFFFFFFFFFFF AND PUSH4 0x40D097C3 PUSH1 0x64 DUP5 PUSH1 0xFF AND CALLVALUE PUSH2 0x4F0 SWAP2 SWAP1 PUSH2 0xFAF JUMP JUMPDEST PUSH2 0x4FA SWAP2 SWAP1 PUSH2 0xF7E JUMP JUMPDEST DUP10 PUSH1 0x40 MLOAD DUP4 PUSH4 0xFFFFFFFF AND PUSH1 0xE0 SHL DUP2 MSTORE PUSH1 0x4 ADD PUSH2 0x517 SWAP2 SWAP1 PUSH2 0xE6B JUMP JUMPDEST PUSH1 0x0 PUSH1 0x40 MLOAD DUP1 DUP4 SUB DUP2 DUP6 DUP9 DUP1 EXTCODESIZE ISZERO DUP1 ISZERO PUSH2 0x530 JUMPI PUSH1 0x0 DUP1 REVERT JUMPDEST POP GAS CALL ISZERO DUP1 ISZERO PUSH2 0x544 JUMPI RETURNDATASIZE PUSH1 0x0 DUP1 RETURNDATACOPY RETURNDATASIZE PUSH1 0x0 REVERT JUMPDEST POP POP POP POP POP DUP6 SWAP3 POP DUP3 PUSH20 0xFFFFFFFFFFFFFFFFFFFFFFFFFFFFFFFFFFFFFFFF AND PUSH2 0x8FC PUSH1 0x64 DUP4 PUSH1 0xFF AND CALLVALUE PUSH2 0x577 SWAP2 SWAP1 PUSH2 0xFAF JUMP JUMPDEST PUSH2 0x581 SWAP2 SWAP1 PUSH2 0xF7E JUMP JUMPDEST SWAP1 DUP2 ISZERO MUL SWAP1 PUSH1 0x40 MLOAD PUSH1 0x0 PUSH1 0x40 MLOAD DUP1 DUP4 SUB DUP2 DUP6 DUP9 DUP9 CALL SWAP4 POP POP POP POP ISZERO DUP1 ISZERO PUSH2 0x5AC JUMPI RETURNDATASIZE PUSH1 0x0 DUP1 RETURNDATACOPY RETURNDATASIZE PUSH1 0x0 REVERT JUMPDEST POP CALLVALUE PUSH1 0x3 PUSH1 0x0 DUP9 PUSH20 0xFFFFFFFFFFFFFFFFFFFFFFFFFFFFFFFFFFFFFFFF AND PUSH20 0xFFFFFFFFFFFFFFFFFFFFFFFFFFFFFFFFFFFFFFFF AND DUP2 MSTORE PUSH1 0x20 ADD SWAP1 DUP2 MSTORE PUSH1 0x20 ADD PUSH1 0x0 KECCAK256 PUSH1 0x0 DUP11 PUSH20 0xFFFFFFFFFFFFFFFFFFFFFFFFFFFFFFFFFFFFFFFF AND PUSH20 0xFFFFFFFFFFFFFFFFFFFFFFFFFFFFFFFFFFFFFFFF AND DUP2 MSTORE PUSH1 0x20 ADD SWAP1 DUP2 MSTORE PUSH1 0x20 ADD PUSH1 0x0 KECCAK256 SLOAD PUSH2 0x635 SWAP2 SWAP1 PUSH2 0xF28 JUMP JUMPDEST PUSH1 0x3 PUSH1 0x0 DUP9 PUSH20 0xFFFFFFFFFFFFFFFFFFFFFFFFFFFFFFFFFFFFFFFF AND PUSH20 0xFFFFFFFFFFFFFFFFFFFFFFFFFFFFFFFFFFFFFFFF AND DUP2 MSTORE PUSH1 0x20 ADD SWAP1 DUP2 MSTORE PUSH1 0x20 ADD PUSH1 0x0 KECCAK256 PUSH1 0x0 DUP11 PUSH20 0xFFFFFFFFFFFFFFFFFFFFFFFFFFFFFFFFFFFFFFFF AND PUSH20 0xFFFFFFFFFFFFFFFFFFFFFFFFFFFFFFFFFFFFFFFF AND DUP2 MSTORE PUSH1 0x20 ADD SWAP1 DUP2 MSTORE PUSH1 0x20 ADD PUSH1 0x0 KECCAK256 DUP2 SWAP1 SSTORE POP POP POP PUSH2 0x729 JUMP JUMPDEST DUP3 PUSH20 0xFFFFFFFFFFFFFFFFFFFFFFFFFFFFFFFFFFFFFFFF AND PUSH4 0x40D097C3 CALLVALUE DUP8 PUSH1 0x40 MLOAD DUP4 PUSH4 0xFFFFFFFF AND PUSH1 0xE0 SHL DUP2 MSTORE PUSH1 0x4 ADD PUSH2 0x6F6 SWAP2 SWAP1 PUSH2 0xE6B JUMP JUMPDEST PUSH1 0x0 PUSH1 0x40 MLOAD DUP1 DUP4 SUB DUP2 DUP6 DUP9 DUP1 EXTCODESIZE ISZERO DUP1 ISZERO PUSH2 0x70F JUMPI PUSH1 0x0 DUP1 REVERT JUMPDEST POP GAS CALL ISZERO DUP1 ISZERO PUSH2 0x723 JUMPI RETURNDATASIZE PUSH1 0x0 DUP1 RETURNDATACOPY RETURNDATASIZE PUSH1 0x0 REVERT JUMPDEST POP POP POP POP POP JUMPDEST POP POP POP POP POP POP JUMP JUMPDEST PUSH2 0x739 PUSH2 0xB23 JUMP JUMPDEST PUSH2 0x743 PUSH1 0x0 PUSH2 0xBA1 JUMP JUMPDEST JUMP JUMPDEST PUSH1 0x0 DUP1 PUSH1 0x0 SWAP1 SLOAD SWAP1 PUSH2 0x100 EXP SWAP1 DIV PUSH20 0xFFFFFFFFFFFFFFFFFFFFFFFFFFFFFFFFFFFFFFFF AND SWAP1 POP SWAP1 JUMP JUMPDEST PUSH1 0x1 PUSH1 0x2 PUSH1 0x0 DUP5 PUSH20 0xFFFFFFFFFFFFFFFFFFFFFFFFFFFFFFFFFFFFFFFF AND PUSH20 0xFFFFFFFFFFFFFFFFFFFFFFFFFFFFFFFFFFFFFFFF AND DUP2 MSTORE PUSH1 0x20 ADD SWAP1 DUP2 MSTORE PUSH1 0x20 ADD PUSH1 0x0 KECCAK256 PUSH1 0x0 DUP4 PUSH20 0xFFFFFFFFFFFFFFFFFFFFFFFFFFFFFFFFFFFFFFFF AND PUSH20 0xFFFFFFFFFFFFFFFFFFFFFFFFFFFFFFFFFFFFFFFF AND DUP2 MSTORE PUSH1 0x20 ADD SWAP1 DUP2 MSTORE PUSH1 0x20 ADD PUSH1 0x0 KECCAK256 PUSH1 0x0 PUSH2 0x100 EXP DUP2 SLOAD DUP2 PUSH1 0xFF MUL NOT AND SWAP1 DUP4 ISZERO ISZERO MUL OR SWAP1 SSTORE POP POP POP JUMP JUMPDEST PUSH1 0x0 PUSH1 0x2 PUSH1 0x0 DUP5 PUSH20 0xFFFFFFFFFFFFFFFFFFFFFFFFFFFFFFFFFFFFFFFF AND PUSH20 0xFFFFFFFFFFFFFFFFFFFFFFFFFFFFFFFFFFFFFFFF AND DUP2 MSTORE PUSH1 0x20 ADD SWAP1 DUP2 MSTORE PUSH1 0x20 ADD PUSH1 0x0 KECCAK256 PUSH1 0x0 DUP4 PUSH20 0xFFFFFFFFFFFFFFFFFFFFFFFFFFFFFFFFFFFFFFFF AND PUSH20 0xFFFFFFFFFFFFFFFFFFFFFFFFFFFFFFFFFFFFFFFF AND DUP2 MSTORE PUSH1 0x20 ADD SWAP1 DUP2 MSTORE PUSH1 0x20 ADD PUSH1 0x0 KECCAK256 PUSH1 0x0 SWAP1 SLOAD SWAP1 PUSH2 0x100 EXP SWAP1 DIV PUSH1 0xFF AND SWAP1 POP SWAP3 SWAP2 POP POP JUMP JUMPDEST PUSH2 0x8A3 PUSH2 0xC6D JUMP JUMPDEST PUSH1 0x0 PUSH1 0x1 PUSH1 0x0 DUP5 PUSH20 0xFFFFFFFFFFFFFFFFFFFFFFFFFFFFFFFFFFFFFFFF AND PUSH20 0xFFFFFFFFFFFFFFFFFFFFFFFFFFFFFFFFFFFFFFFF AND DUP2 MSTORE PUSH1 0x20 ADD SWAP1 DUP2 MSTORE PUSH1 0x20 ADD PUSH1 0x0 KECCAK256 PUSH1 0x0 ADD PUSH1 0x0 SWAP1 SLOAD SWAP1 PUSH2 0x100 EXP SWAP1 DIV PUSH1 0xFF AND PUSH1 0xFF AND EQ PUSH2 0x988 JUMPI PUSH1 0x1 PUSH1 0x0 DUP4 PUSH20 0xFFFFFFFFFFFFFFFFFFFFFFFFFFFFFFFFFFFFFFFF AND PUSH20 0xFFFFFFFFFFFFFFFFFFFFFFFFFFFFFFFFFFFFFFFF AND DUP2 MSTORE PUSH1 0x20 ADD SWAP1 DUP2 MSTORE PUSH1 0x20 ADD PUSH1 0x0 KECCAK256 PUSH1 0x40 MLOAD DUP1 PUSH1 0x40 ADD PUSH1 0x40 MSTORE SWAP1 DUP2 PUSH1 0x0 DUP3 ADD PUSH1 0x0 SWAP1 SLOAD SWAP1 PUSH2 0x100 EXP SWAP1 DIV PUSH1 0xFF AND PUSH1 0xFF AND PUSH1 0xFF AND DUP2 MSTORE PUSH1 0x20 ADD PUSH1 0x0 DUP3 ADD PUSH1 0x1 SWAP1 SLOAD SWAP1 PUSH2 0x100 EXP SWAP1 DIV PUSH1 0xFF AND PUSH1 0xFF AND PUSH1 0xFF AND DUP2 MSTORE POP POP SWAP1 POP PUSH2 0x9D7 JUMP JUMPDEST PUSH2 0x990 PUSH2 0xC6D JUMP JUMPDEST PUSH1 0x0 PUSH1 0x14 SWAP1 SLOAD SWAP1 PUSH2 0x100 EXP SWAP1 DIV PUSH1 0xFF AND DUP2 PUSH1 0x0 ADD SWAP1 PUSH1 0xFF AND SWAP1 DUP2 PUSH1 0xFF AND DUP2 MSTORE POP POP PUSH1 0x0 PUSH1 0x15 SWAP1 SLOAD SWAP1 PUSH2 0x100 EXP SWAP1 DIV PUSH1 0xFF AND DUP2 PUSH1 0x20 ADD SWAP1 PUSH1 0xFF AND SWAP1 DUP2 PUSH1 0xFF AND DUP2 MSTORE POP POP DUP1 SWAP2 POP POP JUMPDEST SWAP2 SWAP1 POP JUMP JUMPDEST PUSH2 0x9E4 PUSH2 0xB23 JUMP JUMPDEST DUP2 PUSH1 0x1 PUSH1 0x0 DUP6 PUSH20 0xFFFFFFFFFFFFFFFFFFFFFFFFFFFFFFFFFFFFFFFF AND PUSH20 0xFFFFFFFFFFFFFFFFFFFFFFFFFFFFFFFFFFFFFFFF AND DUP2 MSTORE PUSH1 0x20 ADD SWAP1 DUP2 MSTORE PUSH1 0x20 ADD PUSH1 0x0 KECCAK256 PUSH1 0x0 ADD PUSH1 0x0 PUSH2 0x100 EXP DUP2 SLOAD DUP2 PUSH1 0xFF MUL NOT AND SWAP1 DUP4 PUSH1 0xFF AND MUL OR SWAP1 SSTORE POP DUP1 PUSH1 0x1 PUSH1 0x0 DUP6 PUSH20 0xFFFFFFFFFFFFFFFFFFFFFFFFFFFFFFFFFFFFFFFF AND PUSH20 0xFFFFFFFFFFFFFFFFFFFFFFFFFFFFFFFFFFFFFFFF AND DUP2 MSTORE PUSH1 0x20 ADD SWAP1 DUP2 MSTORE PUSH1 0x20 ADD PUSH1 0x0 KECCAK256 PUSH1 0x0 ADD PUSH1 0x1 PUSH2 0x100 EXP DUP2 SLOAD DUP2 PUSH1 0xFF MUL NOT AND SWAP1 DUP4 PUSH1 0xFF AND MUL OR SWAP1 SSTORE POP POP POP POP JUMP JUMPDEST PUSH2 0xAA7 PUSH2 0xB23 JUMP JUMPDEST PUSH1 0x0 PUSH20 0xFFFFFFFFFFFFFFFFFFFFFFFFFFFFFFFFFFFFFFFF AND DUP2 PUSH20 0xFFFFFFFFFFFFFFFFFFFFFFFFFFFFFFFFFFFFFFFF AND EQ ISZERO PUSH2 0xB17 JUMPI PUSH1 0x40 MLOAD PUSH32 0x8C379A000000000000000000000000000000000000000000000000000000000 DUP2 MSTORE PUSH1 0x4 ADD PUSH2 0xB0E SWAP1 PUSH2 0xEA1 JUMP JUMPDEST PUSH1 0x40 MLOAD DUP1 SWAP2 SUB SWAP1 REVERT JUMPDEST PUSH2 0xB20 DUP2 PUSH2 0xBA1 JUMP JUMPDEST POP JUMP JUMPDEST PUSH2 0xB2B PUSH2 0xC65 JUMP JUMPDEST PUSH20 0xFFFFFFFFFFFFFFFFFFFFFFFFFFFFFFFFFFFFFFFF AND PUSH2 0xB49 PUSH2 0x745 JUMP JUMPDEST PUSH20 0xFFFFFFFFFFFFFFFFFFFFFFFFFFFFFFFFFFFFFFFF AND EQ PUSH2 0xB9F JUMPI PUSH1 0x40 MLOAD PUSH32 0x8C379A000000000000000000000000000000000000000000000000000000000 DUP2 MSTORE PUSH1 0x4 ADD PUSH2 0xB96 SWAP1 PUSH2 0xEC1 JUMP JUMPDEST PUSH1 0x40 MLOAD DUP1 SWAP2 SUB SWAP1 REVERT JUMPDEST JUMP JUMPDEST PUSH1 0x0 DUP1 PUSH1 0x0 SWAP1 SLOAD SWAP1 PUSH2 0x100 EXP SWAP1 DIV PUSH20 0xFFFFFFFFFFFFFFFFFFFFFFFFFFFFFFFFFFFFFFFF AND SWAP1 POP DUP2 PUSH1 0x0 DUP1 PUSH2 0x100 EXP DUP2 SLOAD DUP2 PUSH20 0xFFFFFFFFFFFFFFFFFFFFFFFFFFFFFFFFFFFFFFFF MUL NOT AND SWAP1 DUP4 PUSH20 0xFFFFFFFFFFFFFFFFFFFFFFFFFFFFFFFFFFFFFFFF AND MUL OR SWAP1 SSTORE POP DUP2 PUSH20 0xFFFFFFFFFFFFFFFFFFFFFFFFFFFFFFFFFFFFFFFF AND DUP2 PUSH20 0xFFFFFFFFFFFFFFFFFFFFFFFFFFFFFFFFFFFFFFFF AND PUSH32 0x8BE0079C531659141344CD1FD0A4F28419497F9722A3DAAFE3B4186F6B6457E0 PUSH1 0x40 MLOAD PUSH1 0x40 MLOAD DUP1 SWAP2 SUB SWAP1 LOG3 POP POP JUMP JUMPDEST PUSH1 0x0 CALLER SWAP1 POP SWAP1 JUMP JUMPDEST PUSH1 0x40 MLOAD DUP1 PUSH1 0x40 ADD PUSH1 0x40 MSTORE DUP1 PUSH1 0x0 PUSH1 0xFF AND DUP2 MSTORE PUSH1 0x20 ADD PUSH1 0x0 PUSH1 0xFF AND DUP2 MSTORE POP SWAP1 JUMP JUMPDEST PUSH1 0x0 DUP2 CALLDATALOAD SWAP1 POP PUSH2 0xC9C DUP2 PUSH2 0x1134 JUMP JUMPDEST SWAP3 SWAP2 POP POP JUMP JUMPDEST PUSH1 0x0 DUP2 CALLDATALOAD SWAP1 POP PUSH2 0xCB1 DUP2 PUSH2 0x114B JUMP JUMPDEST SWAP3 SWAP2 POP POP JUMP JUMPDEST PUSH1 0x0 PUSH1 0x20 DUP3 DUP5 SUB SLT ISZERO PUSH2 0xCC9 JUMPI PUSH1 0x0 DUP1 REVERT JUMPDEST PUSH1 0x0 PUSH2 0xCD7 DUP5 DUP3 DUP6 ADD PUSH2 0xC8D JUMP JUMPDEST SWAP2 POP POP SWAP3 SWAP2 POP POP JUMP JUMPDEST PUSH1 0x0 DUP1 PUSH1 0x40 DUP4 DUP6 SUB SLT ISZERO PUSH2 0xCF3 JUMPI PUSH1 0x0 DUP1 REVERT JUMPDEST PUSH1 0x0 PUSH2 0xD01 DUP6 DUP3 DUP7 ADD PUSH2 0xC8D JUMP JUMPDEST SWAP3 POP POP PUSH1 0x20 PUSH2 0xD12 DUP6 DUP3 DUP7 ADD PUSH2 0xC8D JUMP JUMPDEST SWAP2 POP POP SWAP3 POP SWAP3 SWAP1 POP JUMP JUMPDEST PUSH1 0x0 DUP1 PUSH1 0x0 PUSH1 0x60 DUP5 DUP7 SUB SLT ISZERO PUSH2 0xD31 JUMPI PUSH1 0x0 DUP1 REVERT JUMPDEST PUSH1 0x0 PUSH2 0xD3F DUP7 DUP3 DUP8 ADD PUSH2 0xC8D JUMP JUMPDEST SWAP4 POP POP PUSH1 0x20 PUSH2 0xD50 DUP7 DUP3 DUP8 ADD PUSH2 0xC8D JUMP JUMPDEST SWAP3 POP POP PUSH1 0x40 PUSH2 0xD61 DUP7 DUP3 DUP8 ADD PUSH2 0xC8D JUMP JUMPDEST SWAP2 POP POP SWAP3 POP SWAP3 POP SWAP3 JUMP JUMPDEST PUSH1 0x0 DUP1 PUSH1 0x0 PUSH1 0x60 DUP5 DUP7 SUB SLT ISZERO PUSH2 0xD80 JUMPI PUSH1 0x0 DUP1 REVERT JUMPDEST PUSH1 0x0 PUSH2 0xD8E DUP7 DUP3 DUP8 ADD PUSH2 0xC8D JUMP JUMPDEST SWAP4 POP POP PUSH1 0x20 PUSH2 0xD9F DUP7 DUP3 DUP8 ADD PUSH2 0xCA2 JUMP JUMPDEST SWAP3 POP POP PUSH1 0x40 PUSH2 0xDB0 DUP7 DUP3 DUP8 ADD PUSH2 0xCA2 JUMP JUMPDEST SWAP2 POP POP SWAP3 POP SWAP3 POP SWAP3 JUMP JUMPDEST PUSH2 0xDC3 DUP2 PUSH2 0x1009 JUMP JUMPDEST DUP3 MSTORE POP POP JUMP JUMPDEST PUSH2 0xDD2 DUP2 PUSH2 0x101B JUMP JUMPDEST DUP3 MSTORE POP POP JUMP JUMPDEST PUSH1 0x0 PUSH2 0xDE5 PUSH1 0x26 DUP4 PUSH2 0xF17 JUMP JUMPDEST SWAP2 POP PUSH2 0xDF0 DUP3 PUSH2 0x10BC JUMP JUMPDEST PUSH1 0x40 DUP3 ADD SWAP1 POP SWAP2 SWAP1 POP JUMP JUMPDEST PUSH1 0x0 PUSH2 0xE08 PUSH1 0x20 DUP4 PUSH2 0xF17 JUMP JUMPDEST SWAP2 POP PUSH2 0xE13 DUP3 PUSH2 0x110B JUMP JUMPDEST PUSH1 0x20 DUP3 ADD SWAP1 POP SWAP2 SWAP1 POP JUMP JUMPDEST PUSH1 0x40 DUP3 ADD PUSH1 0x0 DUP3 ADD MLOAD PUSH2 0xE34 PUSH1 0x0 DUP6 ADD DUP3 PUSH2 0xE5C JUMP JUMPDEST POP PUSH1 0x20 DUP3 ADD MLOAD PUSH2 0xE47 PUSH1 0x20 DUP6 ADD DUP3 PUSH2 0xE5C JUMP JUMPDEST POP POP POP POP JUMP JUMPDEST PUSH2 0xE56 DUP2 PUSH2 0x1047 JUMP JUMPDEST DUP3 MSTORE POP POP JUMP JUMPDEST PUSH2 0xE65 DUP2 PUSH2 0x1051 JUMP JUMPDEST DUP3 MSTORE POP POP JUMP JUMPDEST PUSH1 0x0 PUSH1 0x20 DUP3 ADD SWAP1 POP PUSH2 0xE80 PUSH1 0x0 DUP4 ADD DUP5 PUSH2 0xDBA JUMP JUMPDEST SWAP3 SWAP2 POP POP JUMP JUMPDEST PUSH1 0x0 PUSH1 0x20 DUP3 ADD SWAP1 POP PUSH2 0xE9B PUSH1 0x0 DUP4 ADD DUP5 PUSH2 0xDC9 JUMP JUMPDEST SWAP3 SWAP2 POP POP JUMP JUMPDEST PUSH1 0x0 PUSH1 0x20 DUP3 ADD SWAP1 POP DUP2 DUP2 SUB PUSH1 0x0 DUP4 ADD MSTORE PUSH2 0xEBA DUP2 PUSH2 0xDD8 JUMP JUMPDEST SWAP1 POP SWAP2 SWAP1 POP JUMP JUMPDEST PUSH1 0x0 PUSH1 0x20 DUP3 ADD SWAP1 POP DUP2 DUP2 SUB PUSH1 0x0 DUP4 ADD MSTORE PUSH2 0xEDA DUP2 PUSH2 0xDFB JUMP JUMPDEST SWAP1 POP SWAP2 SWAP1 POP JUMP JUMPDEST PUSH1 0x0 PUSH1 0x40 DUP3 ADD SWAP1 POP PUSH2 0xEF6 PUSH1 0x0 DUP4 ADD DUP5 PUSH2 0xE1E JUMP JUMPDEST SWAP3 SWAP2 POP POP JUMP JUMPDEST PUSH1 0x0 PUSH1 0x20 DUP3 ADD SWAP1 POP PUSH2 0xF11 PUSH1 0x0 DUP4 ADD DUP5 PUSH2 0xE4D JUMP JUMPDEST SWAP3 SWAP2 POP POP JUMP JUMPDEST PUSH1 0x0 DUP3 DUP3 MSTORE PUSH1 0x20 DUP3 ADD SWAP1 POP SWAP3 SWAP2 POP POP JUMP JUMPDEST PUSH1 0x0 PUSH2 0xF33 DUP3 PUSH2 0x1047 JUMP JUMPDEST SWAP2 POP PUSH2 0xF3E DUP4 PUSH2 0x1047 JUMP JUMPDEST SWAP3 POP DUP3 PUSH32 0xFFFFFFFFFFFFFFFFFFFFFFFFFFFFFFFFFFFFFFFFFFFFFFFFFFFFFFFFFFFFFFFF SUB DUP3 GT ISZERO PUSH2 0xF73 JUMPI PUSH2 0xF72 PUSH2 0x105E JUMP JUMPDEST JUMPDEST DUP3 DUP3 ADD SWAP1 POP SWAP3 SWAP2 POP POP JUMP JUMPDEST PUSH1 0x0 PUSH2 0xF89 DUP3 PUSH2 0x1047 JUMP JUMPDEST SWAP2 POP PUSH2 0xF94 DUP4 PUSH2 0x1047 JUMP JUMPDEST SWAP3 POP DUP3 PUSH2 0xFA4 JUMPI PUSH2 0xFA3 PUSH2 0x108D JUMP JUMPDEST JUMPDEST DUP3 DUP3 DIV SWAP1 POP SWAP3 SWAP2 POP POP JUMP JUMPDEST PUSH1 0x0 PUSH2 0xFBA DUP3 PUSH2 0x1047 JUMP JUMPDEST SWAP2 POP PUSH2 0xFC5 DUP4 PUSH2 0x1047 JUMP JUMPDEST SWAP3 POP DUP2 PUSH32 0xFFFFFFFFFFFFFFFFFFFFFFFFFFFFFFFFFFFFFFFFFFFFFFFFFFFFFFFFFFFFFFFF DIV DUP4 GT DUP3 ISZERO ISZERO AND ISZERO PUSH2 0xFFE JUMPI PUSH2 0xFFD PUSH2 0x105E JUMP JUMPDEST JUMPDEST DUP3 DUP3 MUL SWAP1 POP SWAP3 SWAP2 POP POP JUMP JUMPDEST PUSH1 0x0 PUSH2 0x1014 DUP3 PUSH2 0x1027 JUMP JUMPDEST SWAP1 POP SWAP2 SWAP1 POP JUMP JUMPDEST PUSH1 0x0 DUP2 ISZERO ISZERO SWAP1 POP SWAP2 SWAP1 POP JUMP JUMPDEST PUSH1 0x0 PUSH20 0xFFFFFFFFFFFFFFFFFFFFFFFFFFFFFFFFFFFFFFFF DUP3 AND SWAP1 POP SWAP2 SWAP1 POP JUMP JUMPDEST PUSH1 0x0 DUP2 SWAP1 POP SWAP2 SWAP1 POP JUMP JUMPDEST PUSH1 0x0 PUSH1 0xFF DUP3 AND SWAP1 POP SWAP2 SWAP1 POP JUMP JUMPDEST PUSH32 0x4E487B7100000000000000000000000000000000000000000000000000000000 PUSH1 0x0 MSTORE PUSH1 0x11 PUSH1 0x4 MSTORE PUSH1 0x24 PUSH1 0x0 REVERT JUMPDEST PUSH32 0x4E487B7100000000000000000000000000000000000000000000000000000000 PUSH1 0x0 MSTORE PUSH1 0x12 PUSH1 0x4 MSTORE PUSH1 0x24 PUSH1 0x0 REVERT JUMPDEST PUSH32 0x4F776E61626C653A206E6577206F776E657220697320746865207A65726F2061 PUSH1 0x0 DUP3 ADD MSTORE PUSH32 0x6464726573730000000000000000000000000000000000000000000000000000 PUSH1 0x20 DUP3 ADD MSTORE POP JUMP JUMPDEST PUSH32 0x4F776E61626C653A2063616C6C6572206973206E6F7420746865206F776E6572 PUSH1 0x0 DUP3 ADD MSTORE POP JUMP JUMPDEST PUSH2 0x113D DUP2 PUSH2 0x1009 JUMP JUMPDEST DUP2 EQ PUSH2 0x1148 JUMPI PUSH1 0x0 DUP1 REVERT JUMPDEST POP JUMP JUMPDEST PUSH2 0x1154 DUP2 PUSH2 0x1051 JUMP JUMPDEST DUP2 EQ PUSH2 0x115F JUMPI PUSH1 0x0 DUP1 REVERT JUMPDEST POP JUMP INVALID LOG2 PUSH5 0x6970667358 0x22 SLT KECCAK256 0xD 0x4F 0xBD SWAP12 GASLIMIT 0x25 PUSH30 0x4990FECBCEF7DFA84564F8C6E6EDF240009B695E1321C73BF164736F6C63 NUMBER STOP ADDMOD DIV STOP CALLER "
				},
				"gasEstimates": {
					"creation": {
						"codeDepositCost": "900800",
						"executionCost": "infinite",
						"totalCost": "infinite"
					},
					"external": {
						"MainMint(address,address,address)": "infinite",
						"getKOLValue(address,address)": "infinite",
						"getProjectConfig(address)": "infinite",
						"owner()": "1289",
						"readKOLInProject(address,address)": "infinite",
						"recordKOLInProject(address,address)": "infinite",
						"renounceOwnership()": "24443",
						"setProjectConfig(address,uint8,uint8)": "infinite",
						"transferOwnership(address)": "24835"
					}
				},
				"methodIdentifiers": {
					"MainMint(address,address,address)": "47a02312",
					"getKOLValue(address,address)": "1a54d9cb",
					"getProjectConfig(address)": "dd4c74c1",
					"owner()": "8da5cb5b",
					"readKOLInProject(address,address)": "caed69b9",
					"recordKOLInProject(address,address)": "8e41d948",
					"renounceOwnership()": "715018a6",
					"setProjectConfig(address,uint8,uint8)": "f1490318",
					"transferOwnership(address)": "f2fde38b"
				}
			},
			"storageLayout": {
				"storage": [
					{
						"astId": 7,
						"contract": "contracts/Main.sol:MainContract",
						"label": "_owner",
						"offset": 0,
						"slot": "0",
						"type": "t_address"
					},
					{
						"astId": 148,
						"contract": "contracts/Main.sol:MainContract",
						"label": "_project_sharing",
						"offset": 20,
						"slot": "0",
						"type": "t_uint8"
					},
					{
						"astId": 151,
						"contract": "contracts/Main.sol:MainContract",
						"label": "_kol_sharing",
						"offset": 21,
						"slot": "0",
						"type": "t_uint8"
					},
					{
						"astId": 161,
						"contract": "contracts/Main.sol:MainContract",
						"label": "project_configs",
						"offset": 0,
						"slot": "1",
						"type": "t_mapping(t_address,t_struct(sharing_config)156_storage)"
					},
					{
						"astId": 167,
						"contract": "contracts/Main.sol:MainContract",
						"label": "project_kols",
						"offset": 0,
						"slot": "2",
						"type": "t_mapping(t_address,t_mapping(t_address,t_bool))"
					},
					{
						"astId": 173,
						"contract": "contracts/Main.sol:MainContract",
						"label": "kol_project_value",
						"offset": 0,
						"slot": "3",
						"type": "t_mapping(t_address,t_mapping(t_address,t_uint256))"
					}
				],
				"types": {
					"t_address": {
						"encoding": "inplace",
						"label": "address",
						"numberOfBytes": "20"
					},
					"t_bool": {
						"encoding": "inplace",
						"label": "bool",
						"numberOfBytes": "1"
					},
					"t_mapping(t_address,t_bool)": {
						"encoding": "mapping",
						"key": "t_address",
						"label": "mapping(address => bool)",
						"numberOfBytes": "32",
						"value": "t_bool"
					},
					"t_mapping(t_address,t_mapping(t_address,t_bool))": {
						"encoding": "mapping",
						"key": "t_address",
						"label": "mapping(address => mapping(address => bool))",
						"numberOfBytes": "32",
						"value": "t_mapping(t_address,t_bool)"
					},
					"t_mapping(t_address,t_mapping(t_address,t_uint256))": {
						"encoding": "mapping",
						"key": "t_address",
						"label": "mapping(address => mapping(address => uint256))",
						"numberOfBytes": "32",
						"value": "t_mapping(t_address,t_uint256)"
					},
					"t_mapping(t_address,t_struct(sharing_config)156_storage)": {
						"encoding": "mapping",
						"key": "t_address",
						"label": "mapping(address => struct MainContract.sharing_config)",
						"numberOfBytes": "32",
						"value": "t_struct(sharing_config)156_storage"
					},
					"t_mapping(t_address,t_uint256)": {
						"encoding": "mapping",
						"key": "t_address",
						"label": "mapping(address => uint256)",
						"numberOfBytes": "32",
						"value": "t_uint256"
					},
					"t_struct(sharing_config)156_storage": {
						"encoding": "inplace",
						"label": "struct MainContract.sharing_config",
						"members": [
							{
								"astId": 153,
								"contract": "contracts/Main.sol:MainContract",
								"label": "project_sharing",
								"offset": 0,
								"slot": "0",
								"type": "t_uint8"
							},
							{
								"astId": 155,
								"contract": "contracts/Main.sol:MainContract",
								"label": "kol_sharing",
								"offset": 1,
								"slot": "0",
								"type": "t_uint8"
							}
						],
						"numberOfBytes": "32"
					},
					"t_uint256": {
						"encoding": "inplace",
						"label": "uint256",
						"numberOfBytes": "32"
					},
					"t_uint8": {
						"encoding": "inplace",
						"label": "uint8",
						"numberOfBytes": "1"
					}
				}
			},
			"userdoc": {
				"kind": "user",
				"methods": {},
				"version": 1
			}
		}
	}
}