{
  "_format": "hh-sol-artifact-1",
  "contractName": "ProjectNFT",
  "sourceName": "hardhat/contracts/Project.sol",
  "abi": [
    {
      "inputs": [],
      "stateMutability": "nonpayable",
      "type": "constructor"
    },
    {
      "anonymous": false,
      "inputs": [
        {
          "indexed": true,
          "internalType": "address",
          "name": "owner",
          "type": "address"
        },
        {
          "indexed": true,
          "internalType": "address",
          "name": "approved",
          "type": "address"
        },
        {
          "indexed": true,
          "internalType": "uint256",
          "name": "tokenId",
          "type": "uint256"
        }
      ],
      "name": "Approval",
      "type": "event"
    },
    {
      "anonymous": false,
      "inputs": [
        {
          "indexed": true,
          "internalType": "address",
          "name": "owner",
          "type": "address"
        },
        {
          "indexed": true,
          "internalType": "address",
          "name": "operator",
          "type": "address"
        },
        {
          "indexed": false,
          "internalType": "bool",
          "name": "approved",
          "type": "bool"
        }
      ],
      "name": "ApprovalForAll",
      "type": "event"
    },
    {
      "anonymous": false,
      "inputs": [
        {
          "indexed": true,
          "internalType": "address",
          "name": "from",
          "type": "address"
        },
        {
          "indexed": true,
          "internalType": "address",
          "name": "to",
          "type": "address"
        },
        {
          "indexed": true,
          "internalType": "uint256",
          "name": "tokenId",
          "type": "uint256"
        }
      ],
      "name": "Transfer",
      "type": "event"
    },
    {
      "inputs": [
        {
          "internalType": "address",
          "name": "to",
          "type": "address"
        },
        {
          "internalType": "uint256",
          "name": "tokenId",
          "type": "uint256"
        }
      ],
      "name": "approve",
      "outputs": [],
      "stateMutability": "nonpayable",
      "type": "function"
    },
    {
      "inputs": [
        {
          "internalType": "address",
          "name": "owner",
          "type": "address"
        }
      ],
      "name": "balanceOf",
      "outputs": [
        {
          "internalType": "uint256",
          "name": "",
          "type": "uint256"
        }
      ],
      "stateMutability": "view",
      "type": "function"
    },
    {
      "inputs": [
        {
          "internalType": "uint256",
          "name": "tokenId",
          "type": "uint256"
        }
      ],
      "name": "getApproved",
      "outputs": [
        {
          "internalType": "address",
          "name": "",
          "type": "address"
        }
      ],
      "stateMutability": "view",
      "type": "function"
    },
    {
      "inputs": [],
      "name": "getBalance",
      "outputs": [
        {
          "internalType": "uint256",
          "name": "",
          "type": "uint256"
        }
      ],
      "stateMutability": "view",
      "type": "function"
    },
    {
      "inputs": [
        {
          "internalType": "address",
          "name": "owner",
          "type": "address"
        },
        {
          "internalType": "address",
          "name": "operator",
          "type": "address"
        }
      ],
      "name": "isApprovedForAll",
      "outputs": [
        {
          "internalType": "bool",
          "name": "",
          "type": "bool"
        }
      ],
      "stateMutability": "view",
      "type": "function"
    },
    {
      "inputs": [],
      "name": "name",
      "outputs": [
        {
          "internalType": "string",
          "name": "",
          "type": "string"
        }
      ],
      "stateMutability": "view",
      "type": "function"
    },
    {
      "inputs": [
        {
          "internalType": "uint256",
          "name": "tokenId",
          "type": "uint256"
        }
      ],
      "name": "ownerOf",
      "outputs": [
        {
          "internalType": "address",
          "name": "",
          "type": "address"
        }
      ],
      "stateMutability": "view",
      "type": "function"
    },
    {
      "inputs": [
        {
          "internalType": "address",
          "name": "to",
          "type": "address"
        }
      ],
      "name": "safeMint",
      "outputs": [],
      "stateMutability": "payable",
      "type": "function"
    },
    {
      "inputs": [
        {
          "internalType": "address",
          "name": "from",
          "type": "address"
        },
        {
          "internalType": "address",
          "name": "to",
          "type": "address"
        },
        {
          "internalType": "uint256",
          "name": "tokenId",
          "type": "uint256"
        }
      ],
      "name": "safeTransferFrom",
      "outputs": [],
      "stateMutability": "nonpayable",
      "type": "function"
    },
    {
      "inputs": [
        {
          "internalType": "address",
          "name": "from",
          "type": "address"
        },
        {
          "internalType": "address",
          "name": "to",
          "type": "address"
        },
        {
          "internalType": "uint256",
          "name": "tokenId",
          "type": "uint256"
        },
        {
          "internalType": "bytes",
          "name": "_data",
          "type": "bytes"
        }
      ],
      "name": "safeTransferFrom",
      "outputs": [],
      "stateMutability": "nonpayable",
      "type": "function"
    },
    {
      "inputs": [
        {
          "internalType": "address",
          "name": "operator",
          "type": "address"
        },
        {
          "internalType": "bool",
          "name": "approved",
          "type": "bool"
        }
      ],
      "name": "setApprovalForAll",
      "outputs": [],
      "stateMutability": "nonpayable",
      "type": "function"
    },
    {
      "inputs": [
        {
          "internalType": "bytes4",
          "name": "interfaceId",
          "type": "bytes4"
        }
      ],
      "name": "supportsInterface",
      "outputs": [
        {
          "internalType": "bool",
          "name": "",
          "type": "bool"
        }
      ],
      "stateMutability": "view",
      "type": "function"
    },
    {
      "inputs": [],
      "name": "symbol",
      "outputs": [
        {
          "internalType": "string",
          "name": "",
          "type": "string"
        }
      ],
      "stateMutability": "view",
      "type": "function"
    },
    {
      "inputs": [
        {
          "internalType": "uint256",
          "name": "index",
          "type": "uint256"
        }
      ],
      "name": "tokenByIndex",
      "outputs": [
        {
          "internalType": "uint256",
          "name": "",
          "type": "uint256"
        }
      ],
      "stateMutability": "view",
      "type": "function"
    },
    {
      "inputs": [
        {
          "internalType": "address",
          "name": "owner",
          "type": "address"
        },
        {
          "internalType": "uint256",
          "name": "index",
          "type": "uint256"
        }
      ],
      "name": "tokenOfOwnerByIndex",
      "outputs": [
        {
          "internalType": "uint256",
          "name": "",
          "type": "uint256"
        }
      ],
      "stateMutability": "view",
      "type": "function"
    },
    {
      "inputs": [
        {
          "internalType": "uint256",
          "name": "tokenId",
          "type": "uint256"
        }
      ],
      "name": "tokenURI",
      "outputs": [
        {
          "internalType": "string",
          "name": "",
          "type": "string"
        }
      ],
      "stateMutability": "view",
      "type": "function"
    },
    {
      "inputs": [],
      "name": "totalSupply",
      "outputs": [
        {
          "internalType": "uint256",
          "name": "",
          "type": "uint256"
        }
      ],
      "stateMutability": "view",
      "type": "function"
    },
    {
      "inputs": [
        {
          "internalType": "address",
          "name": "from",
          "type": "address"
        },
        {
          "internalType": "address",
          "name": "to",
          "type": "address"
        },
        {
          "internalType": "uint256",
          "name": "tokenId",
          "type": "uint256"
        }
      ],
      "name": "transferFrom",
      "outputs": [],
      "stateMutability": "nonpayable",
      "type": "function"
    },
    {
      "stateMutability": "payable",
      "type": "receive"
    }
  ],
  "bytecode": "0x60806040523480156200001157600080fd5b506040518060400160405280600c81526020017f50726f6a656374546f6b656e00000000000000000000000000000000000000008152506040518060400160405280600381526020017f50544b0000000000000000000000000000000000000000000000000000000000815250816000908051906020019062000096929190620000b8565b508060019080519060200190620000af929190620000b8565b505050620001cd565b828054620000c69062000168565b90600052602060002090601f016020900481019282620000ea576000855562000136565b82601f106200010557805160ff191683800117855562000136565b8280016001018555821562000136579182015b828111156200013557825182559160200191906001019062000118565b5b50905062000145919062000149565b5090565b5b80821115620001645760008160009055506001016200014a565b5090565b600060028204905060018216806200018157607f821691505b602082108114156200019857620001976200019e565b5b50919050565b7f4e487b7100000000000000000000000000000000000000000000000000000000600052602260045260246000fd5b6131d380620001dd6000396000f3fe60806040526004361061010d5760003560e01c806342842e0e1161009557806395d89b411161006457806395d89b411461039f578063a22cb465146103ca578063b88d4fde146103f3578063c87b56dd1461041c578063e985e9c51461045957610114565b806342842e0e146102bf5780634f6ccce7146102e85780636352211e1461032557806370a082311461036257610114565b806312065fe0116100dc57806312065fe0146101e757806318160ddd1461021257806323b872dd1461023d5780632f745c591461026657806340d097c3146102a357610114565b806301ffc9a71461011957806306fdde0314610156578063081812fc14610181578063095ea7b3146101be57610114565b3661011457005b600080fd5b34801561012557600080fd5b50610140600480360381019061013b91906121eb565b610496565b60405161014d9190612614565b60405180910390f35b34801561016257600080fd5b5061016b6104a8565b604051610178919061262f565b60405180910390f35b34801561018d57600080fd5b506101a860048036038101906101a3919061223d565b61053a565b6040516101b591906125ad565b60405180910390f35b3480156101ca57600080fd5b506101e560048036038101906101e091906121af565b6105bf565b005b3480156101f357600080fd5b506101fc6106d7565b6040516102099190612871565b60405180910390f35b34801561021e57600080fd5b506102276106df565b6040516102349190612871565b60405180910390f35b34801561024957600080fd5b50610264600480360381019061025f91906120a9565b6106ec565b005b34801561027257600080fd5b5061028d600480360381019061028891906121af565b61074c565b60405161029a9190612871565b60405180910390f35b6102bd60048036038101906102b89190612044565b6107f1565b005b3480156102cb57600080fd5b506102e660048036038101906102e191906120a9565b610871565b005b3480156102f457600080fd5b5061030f600480360381019061030a919061223d565b610891565b60405161031c9190612871565b60405180910390f35b34801561033157600080fd5b5061034c6004803603810190610347919061223d565b610928565b60405161035991906125ad565b60405180910390f35b34801561036e57600080fd5b5061038960048036038101906103849190612044565b6109da565b6040516103969190612871565b60405180910390f35b3480156103ab57600080fd5b506103b4610a92565b6040516103c1919061262f565b60405180910390f35b3480156103d657600080fd5b506103f160048036038101906103ec9190612173565b610b24565b005b3480156103ff57600080fd5b5061041a600480360381019061041591906120f8565b610b3a565b005b34801561042857600080fd5b50610443600480360381019061043e919061223d565b610b9c565b604051610450919061262f565b60405180910390f35b34801561046557600080fd5b50610480600480360381019061047b919061206d565b610c43565b60405161048d9190612614565b60405180910390f35b60006104a182610cd7565b9050919050565b6060600080546104b790612af0565b80601f01602080910402602001604051908101604052809291908181526020018280546104e390612af0565b80156105305780601f1061050557610100808354040283529160200191610530565b820191906000526020600020905b81548152906001019060200180831161051357829003601f168201915b5050505050905090565b600061054582610d51565b610584576040517f08c379a000000000000000000000000000000000000000000000000000000000815260040161057b906127d1565b60405180910390fd5b6004600083815260200190815260200160002060009054906101000a900473ffffffffffffffffffffffffffffffffffffffff169050919050565b60006105ca82610928565b90508073ffffffffffffffffffffffffffffffffffffffff168373ffffffffffffffffffffffffffffffffffffffff16141561063b576040517f08c379a000000000000000000000000000000000000000000000000000000000815260040161063290612811565b60405180910390fd5b8073ffffffffffffffffffffffffffffffffffffffff1661065a610dbd565b73ffffffffffffffffffffffffffffffffffffffff161480610689575061068881610683610dbd565b610c43565b5b6106c8576040517f08c379a00000000000000000000000000000000000000000000000000000000081526004016106bf90612751565b60405180910390fd5b6106d28383610dc5565b505050565b600047905090565b6000600880549050905090565b6106fd6106f7610dbd565b82610e7e565b61073c576040517f08c379a000000000000000000000000000000000000000000000000000000000815260040161073390612831565b60405180910390fd5b610747838383610f5c565b505050565b6000610757836109da565b8210610798576040517f08c379a000000000000000000000000000000000000000000000000000000000815260040161078f90612651565b60405180910390fd5b600660008473ffffffffffffffffffffffffffffffffffffffff1673ffffffffffffffffffffffffffffffffffffffff168152602001908152602001600020600083815260200190815260200160002054905092915050565b600166b1a2bc2ec50000808261080791906129ac565b341015610849576040517f08c379a000000000000000000000000000000000000000000000000000000000815260040161084090612711565b60405180910390fd5b6000610855600a6111c3565b9050610861600a6111d1565b61086b84826111e7565b50505050565b61088c83838360405180602001604052806000815250610b3a565b505050565b600061089b6106df565b82106108dc576040517f08c379a00000000000000000000000000000000000000000000000000000000081526004016108d390612851565b60405180910390fd5b60088281548110610916577f4e487b7100000000000000000000000000000000000000000000000000000000600052603260045260246000fd5b90600052602060002001549050919050565b6000806002600084815260200190815260200160002060009054906101000a900473ffffffffffffffffffffffffffffffffffffffff169050600073ffffffffffffffffffffffffffffffffffffffff168173ffffffffffffffffffffffffffffffffffffffff1614156109d1576040517f08c379a00000000000000000000000000000000000000000000000000000000081526004016109c890612791565b60405180910390fd5b80915050919050565b60008073ffffffffffffffffffffffffffffffffffffffff168273ffffffffffffffffffffffffffffffffffffffff161415610a4b576040517f08c379a0000000000000000000000000000000000000000000000000000000008152600401610a4290612771565b60405180910390fd5b600360008373ffffffffffffffffffffffffffffffffffffffff1673ffffffffffffffffffffffffffffffffffffffff168152602001908152602001600020549050919050565b606060018054610aa190612af0565b80601f0160208091040260200160405190810160405280929190818152602001828054610acd90612af0565b8015610b1a5780601f10610aef57610100808354040283529160200191610b1a565b820191906000526020600020905b815481529060010190602001808311610afd57829003601f168201915b5050505050905090565b610b36610b2f610dbd565b8383611205565b5050565b610b4b610b45610dbd565b83610e7e565b610b8a576040517f08c379a0000000000000000000000000000000000000000000000000000000008152600401610b8190612831565b60405180910390fd5b610b9684848484611372565b50505050565b6060610ba782610d51565b610be6576040517f08c379a0000000000000000000000000000000000000000000000000000000008152600401610bdd906127f1565b60405180910390fd5b6000610bf06113ce565b90506000815111610c105760405180602001604052806000815250610c3b565b80610c1a846113e5565b604051602001610c2b929190612589565b6040516020818303038152906040525b915050919050565b6000600560008473ffffffffffffffffffffffffffffffffffffffff1673ffffffffffffffffffffffffffffffffffffffff16815260200190815260200160002060008373ffffffffffffffffffffffffffffffffffffffff1673ffffffffffffffffffffffffffffffffffffffff16815260200190815260200160002060009054906101000a900460ff16905092915050565b60007f780e9d63000000000000000000000000000000000000000000000000000000007bffffffffffffffffffffffffffffffffffffffffffffffffffffffff1916827bffffffffffffffffffffffffffffffffffffffffffffffffffffffff19161480610d4a5750610d4982611592565b5b9050919050565b60008073ffffffffffffffffffffffffffffffffffffffff166002600084815260200190815260200160002060009054906101000a900473ffffffffffffffffffffffffffffffffffffffff1673ffffffffffffffffffffffffffffffffffffffff1614159050919050565b600033905090565b816004600083815260200190815260200160002060006101000a81548173ffffffffffffffffffffffffffffffffffffffff021916908373ffffffffffffffffffffffffffffffffffffffff160217905550808273ffffffffffffffffffffffffffffffffffffffff16610e3883610928565b73ffffffffffffffffffffffffffffffffffffffff167f8c5be1e5ebec7d5bd14f71427d1e84f3dd0314c0f7b2291e5b200ac8c7c3b92560405160405180910390a45050565b6000610e8982610d51565b610ec8576040517f08c379a0000000000000000000000000000000000000000000000000000000008152600401610ebf90612731565b60405180910390fd5b6000610ed383610928565b90508073ffffffffffffffffffffffffffffffffffffffff168473ffffffffffffffffffffffffffffffffffffffff161480610f4257508373ffffffffffffffffffffffffffffffffffffffff16610f2a8461053a565b73ffffffffffffffffffffffffffffffffffffffff16145b80610f535750610f528185610c43565b5b91505092915050565b8273ffffffffffffffffffffffffffffffffffffffff16610f7c82610928565b73ffffffffffffffffffffffffffffffffffffffff1614610fd2576040517f08c379a0000000000000000000000000000000000000000000000000000000008152600401610fc990612691565b60405180910390fd5b600073ffffffffffffffffffffffffffffffffffffffff168273ffffffffffffffffffffffffffffffffffffffff161415611042576040517f08c379a0000000000000000000000000000000000000000000000000000000008152600401611039906126d1565b60405180910390fd5b61104d838383611674565b611058600082610dc5565b6001600360008573ffffffffffffffffffffffffffffffffffffffff1673ffffffffffffffffffffffffffffffffffffffff16815260200190815260200160002060008282546110a89190612a06565b925050819055506001600360008473ffffffffffffffffffffffffffffffffffffffff1673ffffffffffffffffffffffffffffffffffffffff16815260200190815260200160002060008282546110ff9190612925565b92505081905550816002600083815260200190815260200160002060006101000a81548173ffffffffffffffffffffffffffffffffffffffff021916908373ffffffffffffffffffffffffffffffffffffffff160217905550808273ffffffffffffffffffffffffffffffffffffffff168473ffffffffffffffffffffffffffffffffffffffff167fddf252ad1be2c89b69c2b068fc378daa952ba7f163c4a11628f55a4df523b3ef60405160405180910390a46111be838383611684565b505050565b600081600001549050919050565b6001816000016000828254019250508190555050565b611201828260405180602001604052806000815250611689565b5050565b8173ffffffffffffffffffffffffffffffffffffffff168373ffffffffffffffffffffffffffffffffffffffff161415611274576040517f08c379a000000000000000000000000000000000000000000000000000000000815260040161126b906126f1565b60405180910390fd5b80600560008573ffffffffffffffffffffffffffffffffffffffff1673ffffffffffffffffffffffffffffffffffffffff16815260200190815260200160002060008473ffffffffffffffffffffffffffffffffffffffff1673ffffffffffffffffffffffffffffffffffffffff16815260200190815260200160002060006101000a81548160ff0219169083151502179055508173ffffffffffffffffffffffffffffffffffffffff168373ffffffffffffffffffffffffffffffffffffffff167f17307eab39ab6107e8899845ad3d59bd9653f200f220920489ca2b5937696c31836040516113659190612614565b60405180910390a3505050565b61137d848484610f5c565b611389848484846116e4565b6113c8576040517f08c379a00000000000000000000000000000000000000000000000000000000081526004016113bf90612671565b60405180910390fd5b50505050565b606060405180602001604052806000815250905090565b6060600082141561142d576040518060400160405280600181526020017f3000000000000000000000000000000000000000000000000000000000000000815250905061158d565b600082905060005b6000821461145f57808061144890612b53565b915050600a82611458919061297b565b9150611435565b60008167ffffffffffffffff8111156114a1577f4e487b7100000000000000000000000000000000000000000000000000000000600052604160045260246000fd5b6040519080825280601f01601f1916602001820160405280156114d35781602001600182028036833780820191505090505b5090505b60008514611586576001826114ec9190612a06565b9150600a856114fb9190612b9c565b60306115079190612925565b60f81b818381518110611543577f4e487b7100000000000000000000000000000000000000000000000000000000600052603260045260246000fd5b60200101907effffffffffffffffffffffffffffffffffffffffffffffffffffffffffffff1916908160001a905350600a8561157f919061297b565b94506114d7565b8093505050505b919050565b60007f80ac58cd000000000000000000000000000000000000000000000000000000007bffffffffffffffffffffffffffffffffffffffffffffffffffffffff1916827bffffffffffffffffffffffffffffffffffffffffffffffffffffffff1916148061165d57507f5b5e139f000000000000000000000000000000000000000000000000000000007bffffffffffffffffffffffffffffffffffffffffffffffffffffffff1916827bffffffffffffffffffffffffffffffffffffffffffffffffffffffff1916145b8061166d575061166c8261187b565b5b9050919050565b61167f8383836118e5565b505050565b505050565b61169383836119f9565b6116a060008484846116e4565b6116df576040517f08c379a00000000000000000000000000000000000000000000000000000000081526004016116d690612671565b60405180910390fd5b505050565b60006117058473ffffffffffffffffffffffffffffffffffffffff16611bd3565b1561186e578373ffffffffffffffffffffffffffffffffffffffff1663150b7a0261172e610dbd565b8786866040518563ffffffff1660e01b815260040161175094939291906125c8565b602060405180830381600087803b15801561176a57600080fd5b505af192505050801561179b57506040513d601f19601f820116820180604052508101906117989190612214565b60015b61181e573d80600081146117cb576040519150601f19603f3d011682016040523d82523d6000602084013e6117d0565b606091505b50600081511415611816576040517f08c379a000000000000000000000000000000000000000000000000000000000815260040161180d90612671565b60405180910390fd5b805181602001fd5b63150b7a0260e01b7bffffffffffffffffffffffffffffffffffffffffffffffffffffffff1916817bffffffffffffffffffffffffffffffffffffffffffffffffffffffff191614915050611873565b600190505b949350505050565b60007f01ffc9a7000000000000000000000000000000000000000000000000000000007bffffffffffffffffffffffffffffffffffffffffffffffffffffffff1916827bffffffffffffffffffffffffffffffffffffffffffffffffffffffff1916149050919050565b6118f0838383611bf6565b600073ffffffffffffffffffffffffffffffffffffffff168373ffffffffffffffffffffffffffffffffffffffff1614156119335761192e81611bfb565b611972565b8173ffffffffffffffffffffffffffffffffffffffff168373ffffffffffffffffffffffffffffffffffffffff1614611971576119708382611c44565b5b5b600073ffffffffffffffffffffffffffffffffffffffff168273ffffffffffffffffffffffffffffffffffffffff1614156119b5576119b081611db1565b6119f4565b8273ffffffffffffffffffffffffffffffffffffffff168273ffffffffffffffffffffffffffffffffffffffff16146119f3576119f28282611ef4565b5b5b505050565b600073ffffffffffffffffffffffffffffffffffffffff168273ffffffffffffffffffffffffffffffffffffffff161415611a69576040517f08c379a0000000000000000000000000000000000000000000000000000000008152600401611a60906127b1565b60405180910390fd5b611a7281610d51565b15611ab2576040517f08c379a0000000000000000000000000000000000000000000000000000000008152600401611aa9906126b1565b60405180910390fd5b611abe60008383611674565b6001600360008473ffffffffffffffffffffffffffffffffffffffff1673ffffffffffffffffffffffffffffffffffffffff1681526020019081526020016000206000828254611b0e9190612925565b92505081905550816002600083815260200190815260200160002060006101000a81548173ffffffffffffffffffffffffffffffffffffffff021916908373ffffffffffffffffffffffffffffffffffffffff160217905550808273ffffffffffffffffffffffffffffffffffffffff16600073ffffffffffffffffffffffffffffffffffffffff167fddf252ad1be2c89b69c2b068fc378daa952ba7f163c4a11628f55a4df523b3ef60405160405180910390a4611bcf60008383611684565b5050565b6000808273ffffffffffffffffffffffffffffffffffffffff163b119050919050565b505050565b6008805490506009600083815260200190815260200160002081905550600881908060018154018082558091505060019003906000526020600020016000909190919091505550565b60006001611c51846109da565b611c5b9190612a06565b9050600060076000848152602001908152602001600020549050818114611d40576000600660008673ffffffffffffffffffffffffffffffffffffffff1673ffffffffffffffffffffffffffffffffffffffff168152602001908152602001600020600084815260200190815260200160002054905080600660008773ffffffffffffffffffffffffffffffffffffffff1673ffffffffffffffffffffffffffffffffffffffff168152602001908152602001600020600084815260200190815260200160002081905550816007600083815260200190815260200160002081905550505b6007600084815260200190815260200160002060009055600660008573ffffffffffffffffffffffffffffffffffffffff1673ffffffffffffffffffffffffffffffffffffffff16815260200190815260200160002060008381526020019081526020016000206000905550505050565b60006001600880549050611dc59190612a06565b9050600060096000848152602001908152602001600020549050600060088381548110611e1b577f4e487b7100000000000000000000000000000000000000000000000000000000600052603260045260246000fd5b906000526020600020015490508060088381548110611e63577f4e487b7100000000000000000000000000000000000000000000000000000000600052603260045260246000fd5b906000526020600020018190555081600960008381526020019081526020016000208190555060096000858152602001908152602001600020600090556008805480611ed8577f4e487b7100000000000000000000000000000000000000000000000000000000600052603160045260246000fd5b6001900381819060005260206000200160009055905550505050565b6000611eff836109da565b905081600660008573ffffffffffffffffffffffffffffffffffffffff1673ffffffffffffffffffffffffffffffffffffffff168152602001908152602001600020600083815260200190815260200160002081905550806007600084815260200190815260200160002081905550505050565b6000611f86611f81846128b1565b61288c565b905082815260208101848484011115611f9e57600080fd5b611fa9848285612aae565b509392505050565b600081359050611fc081613141565b92915050565b600081359050611fd581613158565b92915050565b600081359050611fea8161316f565b92915050565b600081519050611fff8161316f565b92915050565b600082601f83011261201657600080fd5b8135612026848260208601611f73565b91505092915050565b60008135905061203e81613186565b92915050565b60006020828403121561205657600080fd5b600061206484828501611fb1565b91505092915050565b6000806040838503121561208057600080fd5b600061208e85828601611fb1565b925050602061209f85828601611fb1565b9150509250929050565b6000806000606084860312156120be57600080fd5b60006120cc86828701611fb1565b93505060206120dd86828701611fb1565b92505060406120ee8682870161202f565b9150509250925092565b6000806000806080858703121561210e57600080fd5b600061211c87828801611fb1565b945050602061212d87828801611fb1565b935050604061213e8782880161202f565b925050606085013567ffffffffffffffff81111561215b57600080fd5b61216787828801612005565b91505092959194509250565b6000806040838503121561218657600080fd5b600061219485828601611fb1565b92505060206121a585828601611fc6565b9150509250929050565b600080604083850312156121c257600080fd5b60006121d085828601611fb1565b92505060206121e18582860161202f565b9150509250929050565b6000602082840312156121fd57600080fd5b600061220b84828501611fdb565b91505092915050565b60006020828403121561222657600080fd5b600061223484828501611ff0565b91505092915050565b60006020828403121561224f57600080fd5b600061225d8482850161202f565b91505092915050565b61226f81612a3a565b82525050565b61227e81612a4c565b82525050565b600061228f826128e2565b61229981856128f8565b93506122a9818560208601612abd565b6122b281612c89565b840191505092915050565b60006122c8826128ed565b6122d28185612909565b93506122e2818560208601612abd565b6122eb81612c89565b840191505092915050565b6000612301826128ed565b61230b818561291a565b935061231b818560208601612abd565b80840191505092915050565b6000612334602b83612909565b915061233f82612c9a565b604082019050919050565b6000612357603283612909565b915061236282612ce9565b604082019050919050565b600061237a602583612909565b915061238582612d38565b604082019050919050565b600061239d601c83612909565b91506123a882612d87565b602082019050919050565b60006123c0602483612909565b91506123cb82612db0565b604082019050919050565b60006123e3601983612909565b91506123ee82612dff565b602082019050919050565b6000612406601283612909565b915061241182612e28565b602082019050919050565b6000612429602c83612909565b915061243482612e51565b604082019050919050565b600061244c603883612909565b915061245782612ea0565b604082019050919050565b600061246f602a83612909565b915061247a82612eef565b604082019050919050565b6000612492602983612909565b915061249d82612f3e565b604082019050919050565b60006124b5602083612909565b91506124c082612f8d565b602082019050919050565b60006124d8602c83612909565b91506124e382612fb6565b604082019050919050565b60006124fb602f83612909565b915061250682613005565b604082019050919050565b600061251e602183612909565b915061252982613054565b604082019050919050565b6000612541603183612909565b915061254c826130a3565b604082019050919050565b6000612564602c83612909565b915061256f826130f2565b604082019050919050565b61258381612aa4565b82525050565b600061259582856122f6565b91506125a182846122f6565b91508190509392505050565b60006020820190506125c26000830184612266565b92915050565b60006080820190506125dd6000830187612266565b6125ea6020830186612266565b6125f7604083018561257a565b81810360608301526126098184612284565b905095945050505050565b60006020820190506126296000830184612275565b92915050565b6000602082019050818103600083015261264981846122bd565b905092915050565b6000602082019050818103600083015261266a81612327565b9050919050565b6000602082019050818103600083015261268a8161234a565b9050919050565b600060208201905081810360008301526126aa8161236d565b9050919050565b600060208201905081810360008301526126ca81612390565b9050919050565b600060208201905081810360008301526126ea816123b3565b9050919050565b6000602082019050818103600083015261270a816123d6565b9050919050565b6000602082019050818103600083015261272a816123f9565b9050919050565b6000602082019050818103600083015261274a8161241c565b9050919050565b6000602082019050818103600083015261276a8161243f565b9050919050565b6000602082019050818103600083015261278a81612462565b9050919050565b600060208201905081810360008301526127aa81612485565b9050919050565b600060208201905081810360008301526127ca816124a8565b9050919050565b600060208201905081810360008301526127ea816124cb565b9050919050565b6000602082019050818103600083015261280a816124ee565b9050919050565b6000602082019050818103600083015261282a81612511565b9050919050565b6000602082019050818103600083015261284a81612534565b9050919050565b6000602082019050818103600083015261286a81612557565b9050919050565b6000602082019050612886600083018461257a565b92915050565b60006128966128a7565b90506128a28282612b22565b919050565b6000604051905090565b600067ffffffffffffffff8211156128cc576128cb612c5a565b5b6128d582612c89565b9050602081019050919050565b600081519050919050565b600081519050919050565b600082825260208201905092915050565b600082825260208201905092915050565b600081905092915050565b600061293082612aa4565b915061293b83612aa4565b9250827fffffffffffffffffffffffffffffffffffffffffffffffffffffffffffffffff038211156129705761296f612bcd565b5b828201905092915050565b600061298682612aa4565b915061299183612aa4565b9250826129a1576129a0612bfc565b5b828204905092915050565b60006129b782612aa4565b91506129c283612aa4565b9250817fffffffffffffffffffffffffffffffffffffffffffffffffffffffffffffffff04831182151516156129fb576129fa612bcd565b5b828202905092915050565b6000612a1182612aa4565b9150612a1c83612aa4565b925082821015612a2f57612a2e612bcd565b5b828203905092915050565b6000612a4582612a84565b9050919050565b60008115159050919050565b60007fffffffff0000000000000000000000000000000000000000000000000000000082169050919050565b600073ffffffffffffffffffffffffffffffffffffffff82169050919050565b6000819050919050565b82818337600083830152505050565b60005b83811015612adb578082015181840152602081019050612ac0565b83811115612aea576000848401525b50505050565b60006002820490506001821680612b0857607f821691505b60208210811415612b1c57612b1b612c2b565b5b50919050565b612b2b82612c89565b810181811067ffffffffffffffff82111715612b4a57612b49612c5a565b5b80604052505050565b6000612b5e82612aa4565b91507fffffffffffffffffffffffffffffffffffffffffffffffffffffffffffffffff821415612b9157612b90612bcd565b5b600182019050919050565b6000612ba782612aa4565b9150612bb283612aa4565b925082612bc257612bc1612bfc565b5b828206905092915050565b7f4e487b7100000000000000000000000000000000000000000000000000000000600052601160045260246000fd5b7f4e487b7100000000000000000000000000000000000000000000000000000000600052601260045260246000fd5b7f4e487b7100000000000000000000000000000000000000000000000000000000600052602260045260246000fd5b7f4e487b7100000000000000000000000000000000000000000000000000000000600052604160045260246000fd5b6000601f19601f8301169050919050565b7f455243373231456e756d657261626c653a206f776e657220696e646578206f7560008201527f74206f6620626f756e6473000000000000000000000000000000000000000000602082015250565b7f4552433732313a207472616e7366657220746f206e6f6e20455243373231526560008201527f63656976657220696d706c656d656e7465720000000000000000000000000000602082015250565b7f4552433732313a207472616e736665722066726f6d20696e636f72726563742060008201527f6f776e6572000000000000000000000000000000000000000000000000000000602082015250565b7f4552433732313a20746f6b656e20616c7265616479206d696e74656400000000600082015250565b7f4552433732313a207472616e7366657220746f20746865207a65726f2061646460008201527f7265737300000000000000000000000000000000000000000000000000000000602082015250565b7f4552433732313a20617070726f766520746f2063616c6c657200000000000000600082015250565b7f496e73756666696369656e742065746865720000000000000000000000000000600082015250565b7f4552433732313a206f70657261746f7220717565727920666f72206e6f6e657860008201527f697374656e7420746f6b656e0000000000000000000000000000000000000000602082015250565b7f4552433732313a20617070726f76652063616c6c6572206973206e6f74206f7760008201527f6e6572206e6f7220617070726f76656420666f7220616c6c0000000000000000602082015250565b7f4552433732313a2062616c616e636520717565727920666f7220746865207a6560008201527f726f206164647265737300000000000000000000000000000000000000000000602082015250565b7f4552433732313a206f776e657220717565727920666f72206e6f6e657869737460008201527f656e7420746f6b656e0000000000000000000000000000000000000000000000602082015250565b7f4552433732313a206d696e7420746f20746865207a65726f2061646472657373600082015250565b7f4552433732313a20617070726f76656420717565727920666f72206e6f6e657860008201527f697374656e7420746f6b656e0000000000000000000000000000000000000000602082015250565b7f4552433732314d657461646174613a2055524920717565727920666f72206e6f60008201527f6e6578697374656e7420746f6b656e0000000000000000000000000000000000602082015250565b7f4552433732313a20617070726f76616c20746f2063757272656e74206f776e6560008201527f7200000000000000000000000000000000000000000000000000000000000000602082015250565b7f4552433732313a207472616e736665722063616c6c6572206973206e6f74206f60008201527f776e6572206e6f7220617070726f766564000000000000000000000000000000602082015250565b7f455243373231456e756d657261626c653a20676c6f62616c20696e646578206f60008201527f7574206f6620626f756e64730000000000000000000000000000000000000000602082015250565b61314a81612a3a565b811461315557600080fd5b50565b61316181612a4c565b811461316c57600080fd5b50565b61317881612a58565b811461318357600080fd5b50565b61318f81612aa4565b811461319a57600080fd5b5056fea2646970667358221220ad9f2e562aa17dfe90c7e550434c1b5e91e20f9ca461936a2d98956fe3c7262064736f6c63430008040033",
  "linkReferences": {},
  "deployedLinkReferences": {}
}