{
  "_format": "hh-sol-artifact-1",
  "contractName": "MainContract",
  "sourceName": "hardhat/contracts/Main.sol",
  "abi": [
    {
      "inputs": [],
      "stateMutability": "nonpayable",
      "type": "constructor"
    },
    {
      "anonymous": false,
      "inputs": [
        {
          "indexed": true,
          "internalType": "address",
          "name": "previousOwner",
          "type": "address"
        },
        {
          "indexed": true,
          "internalType": "address",
          "name": "newOwner",
          "type": "address"
        }
      ],
      "name": "OwnershipTransferred",
      "type": "event"
    },
    {
      "inputs": [
        {
          "internalType": "address",
          "name": "projectAddress",
          "type": "address"
        },
        {
          "internalType": "address",
          "name": "minter",
          "type": "address"
        },
        {
          "internalType": "address",
          "name": "kolAddress",
          "type": "address"
        }
      ],
      "name": "MainMint",
      "outputs": [],
      "stateMutability": "payable",
      "type": "function"
    },
    {
      "inputs": [
        {
          "internalType": "address",
          "name": "kolAddress",
          "type": "address"
        },
        {
          "internalType": "address",
          "name": "projectAddress",
          "type": "address"
        }
      ],
      "name": "getKOLValue",
      "outputs": [
        {
          "internalType": "uint256",
          "name": "",
          "type": "uint256"
        }
      ],
      "stateMutability": "view",
      "type": "function"
    },
    {
      "inputs": [
        {
          "internalType": "address",
          "name": "projectAddress",
          "type": "address"
        }
      ],
      "name": "getProjectConfig",
      "outputs": [
        {
          "components": [
            {
              "internalType": "uint8",
              "name": "project_sharing",
              "type": "uint8"
            },
            {
              "internalType": "uint8",
              "name": "kol_sharing",
              "type": "uint8"
            }
          ],
          "internalType": "struct MainContract.sharing_config",
          "name": "",
          "type": "tuple"
        }
      ],
      "stateMutability": "view",
      "type": "function"
    },
    {
      "inputs": [],
      "name": "owner",
      "outputs": [
        {
          "internalType": "address",
          "name": "",
          "type": "address"
        }
      ],
      "stateMutability": "view",
      "type": "function"
    },
    {
      "inputs": [
        {
          "internalType": "address",
          "name": "projectAddress",
          "type": "address"
        },
        {
          "internalType": "address",
          "name": "kolAddress",
          "type": "address"
        }
      ],
      "name": "readKOLInProject",
      "outputs": [
        {
          "internalType": "bool",
          "name": "",
          "type": "bool"
        }
      ],
      "stateMutability": "view",
      "type": "function"
    },
    {
      "inputs": [
        {
          "internalType": "address",
          "name": "projectAddress",
          "type": "address"
        },
        {
          "internalType": "address",
          "name": "kolAddress",
          "type": "address"
        }
      ],
      "name": "recordKOLInProject",
      "outputs": [],
      "stateMutability": "nonpayable",
      "type": "function"
    },
    {
      "inputs": [],
      "name": "renounceOwnership",
      "outputs": [],
      "stateMutability": "nonpayable",
      "type": "function"
    },
    {
      "inputs": [
        {
          "internalType": "address",
          "name": "projectAddress",
          "type": "address"
        },
        {
          "internalType": "uint8",
          "name": "project_sharing",
          "type": "uint8"
        },
        {
          "internalType": "uint8",
          "name": "kol_sharing",
          "type": "uint8"
        }
      ],
      "name": "setProjectConfig",
      "outputs": [],
      "stateMutability": "nonpayable",
      "type": "function"
    },
    {
      "inputs": [
        {
          "internalType": "address",
          "name": "newOwner",
          "type": "address"
        }
      ],
      "name": "transferOwnership",
      "outputs": [],
      "stateMutability": "nonpayable",
      "type": "function"
    }
  ],
  "bytecode": "0x6080604052605a600060146101000a81548160ff021916908360ff1602179055506008600060156101000a81548160ff021916908360ff16021790555034801561004857600080fd5b5061006561005a61006a60201b60201c565b61007260201b60201c565b610136565b600033905090565b60008060009054906101000a900473ffffffffffffffffffffffffffffffffffffffff169050816000806101000a81548173ffffffffffffffffffffffffffffffffffffffff021916908373ffffffffffffffffffffffffffffffffffffffff1602179055508173ffffffffffffffffffffffffffffffffffffffff168173ffffffffffffffffffffffffffffffffffffffff167f8be0079c531659141344cd1fd0a4f28419497f9722a3daafe3b4186f6b6457e060405160405180910390a35050565b611276806101456000396000f3fe6080604052600436106100865760003560e01c80638e41d948116100595780638e41d94814610126578063caed69b91461014f578063dd4c74c11461018c578063f1490318146101c9578063f2fde38b146101f257610086565b80631a54d9cb1461008b57806347a02312146100c8578063715018a6146100e45780638da5cb5b146100fb575b600080fd5b34801561009757600080fd5b506100b260048036038101906100ad9190610dbe565b61021b565b6040516100bf9190610fda565b60405180910390f35b6100e260048036038101906100dd9190610dfa565b6102a2565b005b3480156100f057600080fd5b506100f9610731565b005b34801561010757600080fd5b506101106107b9565b60405161011d9190610f49565b60405180910390f35b34801561013257600080fd5b5061014d60048036038101906101489190610dbe565b6107e2565b005b34801561015b57600080fd5b5061017660048036038101906101719190610dbe565b61087b565b6040516101839190610f64565b60405180910390f35b34801561019857600080fd5b506101b360048036038101906101ae9190610d95565b61090f565b6040516101c09190610fbf565b60405180910390f35b3480156101d557600080fd5b506101f060048036038101906101eb9190610e49565b610a50565b005b3480156101fe57600080fd5b5061021960048036038101906102149190610d95565b610b87565b005b6000600360008473ffffffffffffffffffffffffffffffffffffffff1673ffffffffffffffffffffffffffffffffffffffff16815260200190815260200160002060008373ffffffffffffffffffffffffffffffffffffffff1673ffffffffffffffffffffffffffffffffffffffff16815260200190815260200160002054905092915050565b60008390506000600260008673ffffffffffffffffffffffffffffffffffffffff1673ffffffffffffffffffffffffffffffffffffffff16815260200190815260200160002060008473ffffffffffffffffffffffffffffffffffffffff1673ffffffffffffffffffffffffffffffffffffffff16815260200190815260200160002060009054906101000a900460ff169050600081156106bc57600080600160008973ffffffffffffffffffffffffffffffffffffffff1673ffffffffffffffffffffffffffffffffffffffff16815260200190815260200160002060000160009054906101000a900460ff1660ff16146103ed57600160008873ffffffffffffffffffffffffffffffffffffffff1673ffffffffffffffffffffffffffffffffffffffff16815260200190815260200160002060000160009054906101000a900460ff166103fe565b600060149054906101000a900460ff165b9050600080600160008a73ffffffffffffffffffffffffffffffffffffffff1673ffffffffffffffffffffffffffffffffffffffff16815260200190815260200160002060000160019054906101000a900460ff1660ff16146104b057600160008973ffffffffffffffffffffffffffffffffffffffff1673ffffffffffffffffffffffffffffffffffffffff16815260200190815260200160002060000160019054906101000a900460ff166104c1565b600060159054906101000a900460ff165b90508473ffffffffffffffffffffffffffffffffffffffff166340d097c360648460ff16346104f0919061108d565b6104fa919061105c565b896040518363ffffffff1660e01b81526004016105179190610f49565b6000604051808303818588803b15801561053057600080fd5b505af1158015610544573d6000803e3d6000fd5b50505050508592508273ffffffffffffffffffffffffffffffffffffffff166108fc60648360ff1634610577919061108d565b610581919061105c565b9081150290604051600060405180830381858888f193505050501580156105ac573d6000803e3d6000fd5b5034600360008873ffffffffffffffffffffffffffffffffffffffff1673ffffffffffffffffffffffffffffffffffffffff16815260200190815260200160002060008a73ffffffffffffffffffffffffffffffffffffffff1673ffffffffffffffffffffffffffffffffffffffff168152602001908152602001600020546106359190611006565b600360008873ffffffffffffffffffffffffffffffffffffffff1673ffffffffffffffffffffffffffffffffffffffff16815260200190815260200160002060008a73ffffffffffffffffffffffffffffffffffffffff1673ffffffffffffffffffffffffffffffffffffffff168152602001908152602001600020819055505050610729565b8273ffffffffffffffffffffffffffffffffffffffff166340d097c334876040518363ffffffff1660e01b81526004016106f69190610f49565b6000604051808303818588803b15801561070f57600080fd5b505af1158015610723573d6000803e3d6000fd5b50505050505b505050505050565b610739610c7f565b73ffffffffffffffffffffffffffffffffffffffff166107576107b9565b73ffffffffffffffffffffffffffffffffffffffff16146107ad576040517f08c379a00000000000000000000000000000000000000000000000000000000081526004016107a490610f9f565b60405180910390fd5b6107b76000610c87565b565b60008060009054906101000a900473ffffffffffffffffffffffffffffffffffffffff16905090565b6001600260008473ffffffffffffffffffffffffffffffffffffffff1673ffffffffffffffffffffffffffffffffffffffff16815260200190815260200160002060008373ffffffffffffffffffffffffffffffffffffffff1673ffffffffffffffffffffffffffffffffffffffff16815260200190815260200160002060006101000a81548160ff0219169083151502179055505050565b6000600260008473ffffffffffffffffffffffffffffffffffffffff1673ffffffffffffffffffffffffffffffffffffffff16815260200190815260200160002060008373ffffffffffffffffffffffffffffffffffffffff1673ffffffffffffffffffffffffffffffffffffffff16815260200190815260200160002060009054906101000a900460ff16905092915050565b610917610d4b565b6000600160008473ffffffffffffffffffffffffffffffffffffffff1673ffffffffffffffffffffffffffffffffffffffff16815260200190815260200160002060000160009054906101000a900460ff1660ff16146109fc57600160008373ffffffffffffffffffffffffffffffffffffffff1673ffffffffffffffffffffffffffffffffffffffff1681526020019081526020016000206040518060400160405290816000820160009054906101000a900460ff1660ff1660ff1681526020016000820160019054906101000a900460ff1660ff1660ff16815250509050610a4b565b610a04610d4b565b600060149054906101000a900460ff16816000019060ff16908160ff1681525050600060159054906101000a900460ff16816020019060ff16908160ff1681525050809150505b919050565b610a58610c7f565b73ffffffffffffffffffffffffffffffffffffffff16610a766107b9565b73ffffffffffffffffffffffffffffffffffffffff1614610acc576040517f08c379a0000000000000000000000000000000000000000000000000000000008152600401610ac390610f9f565b60405180910390fd5b81600160008573ffffffffffffffffffffffffffffffffffffffff1673ffffffffffffffffffffffffffffffffffffffff16815260200190815260200160002060000160006101000a81548160ff021916908360ff16021790555080600160008573ffffffffffffffffffffffffffffffffffffffff1673ffffffffffffffffffffffffffffffffffffffff16815260200190815260200160002060000160016101000a81548160ff021916908360ff160217905550505050565b610b8f610c7f565b73ffffffffffffffffffffffffffffffffffffffff16610bad6107b9565b73ffffffffffffffffffffffffffffffffffffffff1614610c03576040517f08c379a0000000000000000000000000000000000000000000000000000000008152600401610bfa90610f9f565b60405180910390fd5b600073ffffffffffffffffffffffffffffffffffffffff168173ffffffffffffffffffffffffffffffffffffffff161415610c73576040517f08c379a0000000000000000000000000000000000000000000000000000000008152600401610c6a90610f7f565b60405180910390fd5b610c7c81610c87565b50565b600033905090565b60008060009054906101000a900473ffffffffffffffffffffffffffffffffffffffff169050816000806101000a81548173ffffffffffffffffffffffffffffffffffffffff021916908373ffffffffffffffffffffffffffffffffffffffff1602179055508173ffffffffffffffffffffffffffffffffffffffff168173ffffffffffffffffffffffffffffffffffffffff167f8be0079c531659141344cd1fd0a4f28419497f9722a3daafe3b4186f6b6457e060405160405180910390a35050565b6040518060400160405280600060ff168152602001600060ff1681525090565b600081359050610d7a81611212565b92915050565b600081359050610d8f81611229565b92915050565b600060208284031215610da757600080fd5b6000610db584828501610d6b565b91505092915050565b60008060408385031215610dd157600080fd5b6000610ddf85828601610d6b565b9250506020610df085828601610d6b565b9150509250929050565b600080600060608486031215610e0f57600080fd5b6000610e1d86828701610d6b565b9350506020610e2e86828701610d6b565b9250506040610e3f86828701610d6b565b9150509250925092565b600080600060608486031215610e5e57600080fd5b6000610e6c86828701610d6b565b9350506020610e7d86828701610d80565b9250506040610e8e86828701610d80565b9150509250925092565b610ea1816110e7565b82525050565b610eb0816110f9565b82525050565b6000610ec3602683610ff5565b9150610ece8261119a565b604082019050919050565b6000610ee6602083610ff5565b9150610ef1826111e9565b602082019050919050565b604082016000820151610f126000850182610f3a565b506020820151610f256020850182610f3a565b50505050565b610f3481611125565b82525050565b610f438161112f565b82525050565b6000602082019050610f5e6000830184610e98565b92915050565b6000602082019050610f796000830184610ea7565b92915050565b60006020820190508181036000830152610f9881610eb6565b9050919050565b60006020820190508181036000830152610fb881610ed9565b9050919050565b6000604082019050610fd46000830184610efc565b92915050565b6000602082019050610fef6000830184610f2b565b92915050565b600082825260208201905092915050565b600061101182611125565b915061101c83611125565b9250827fffffffffffffffffffffffffffffffffffffffffffffffffffffffffffffffff038211156110515761105061113c565b5b828201905092915050565b600061106782611125565b915061107283611125565b9250826110825761108161116b565b5b828204905092915050565b600061109882611125565b91506110a383611125565b9250817fffffffffffffffffffffffffffffffffffffffffffffffffffffffffffffffff04831182151516156110dc576110db61113c565b5b828202905092915050565b60006110f282611105565b9050919050565b60008115159050919050565b600073ffffffffffffffffffffffffffffffffffffffff82169050919050565b6000819050919050565b600060ff82169050919050565b7f4e487b7100000000000000000000000000000000000000000000000000000000600052601160045260246000fd5b7f4e487b7100000000000000000000000000000000000000000000000000000000600052601260045260246000fd5b7f4f776e61626c653a206e6577206f776e657220697320746865207a65726f206160008201527f6464726573730000000000000000000000000000000000000000000000000000602082015250565b7f4f776e61626c653a2063616c6c6572206973206e6f7420746865206f776e6572600082015250565b61121b816110e7565b811461122657600080fd5b50565b6112328161112f565b811461123d57600080fd5b5056fea26469706673582212205ebbe0936210324115cdcd559865fd0de897e5949ab5d5b5dc767cea0f46d24d64736f6c63430008040033",
  "linkReferences": {},
  "deployedLinkReferences": {}
}